:10000000000001208901000071F1000029F10000C9
:1000100029F1000029F1000029F1000029F1000078
:1000200029F1000029F1000029F1000071F1000020
:1000300071F1000029F1000071F1000019F10000D8
:1000400071F1000071F1000071F1000071F1000028
:1000500071F1000071F1000071F1000071F1000018
:1000600071F1000071F1000071F1000071F1000008
:1000700071F1000071F1000071F1000071F10000F8
:1000800071F1000071F1000071F1000071F10000E8
:1000900071F1000071F1000071F1000071F10000D8
:1000A000E5C1000071F1000071F1000071F1000084
:1000B00071F1000071F1000071F1000049110100BF
:1000C00071F100001518010071F10000811D01009F
:1000D00071F1000071F1000071F1000071F1000098
:1000E00071F1000071F1000071F1000071F1000088
:1000F00071F1000071F1000071F1000071F1000078
:1001000071F1000071F1000071F1000071F1000067
:1001100071F10000C5F7000071F1000071F10000FD
:1001200071F1000071F1000071F1000071F1000047
:1001300071F1000071F1000071F1000071F1000037
:100140001506010071F1000071F1000071F100006D
:1001500071F1000071F1000071F1000071F1000017
:1001600071F1000071F1000071F1000071F1000007
:1001700071F1000071F1000071F1000071F10000F7
:1001800071F1000071F10000724B4CF2205210B579
:100190001A804DF628121A8000BF00BF0EF0ECFF47
:1001A0006D4B4FF010621A606C4A9A6002F1402267
:1001B000BA32136843F02C5343F0010313605368C1
:1001C00043F005035360664A136823F0010313608C
:1001D000644B4FF470021A60634B4FF4A2721A60C2
:1001E000624A136843F007031360614B40F2031245
:1001F0001A604FF48172C3F8FC2F5E4A136813F43F
:10020000807304D15C490B604FF4A85313605B4BBF
:100210001A78140703D51A7842F008021A70584B5E
:1002200058492A221A70584A584B8B4204D252F825
:10023000040F43F8040BF8E7554B564900228B4254
:1002400002D243F8042BFAE7534B1B68580704D437
:10025000524A137843F001031370514B1B689907FE
:1002600004D54E4A137863F07F0313704D494E4A0C
:10027000002352F8230041F823000133622BF8D108
:100280004A4B4B4A802103F8011B9342FBD1494B57
:10029000444A1A60484B8A221A70A3F580532422DC
:1002A0005A70A0221A709A799207FCD59A79D406CE
:1002B000FCD4424A937903F00C03082B3F4BF9D14D
:1002C00003221A7146225A719A799006FCD53B4A4C
:1002D00091793A4B4906FBD5394A4FF0827111604A
:1002E0000921516020221A709A7902F00C020C2A1E
:1002F000FAD1344B344A1A60344B354A1A60002222
:100300005A60072243F8042C324AC3F80C2D62B617
:100310000FF028F9184B1B68DA0705D52E480FF0A7
:1003200085F82E4B2E4A1A602E4B1B785B0609D59A
:100330002A4C2B4B22689A4204D127480FF076F8BA
:100340000023236016F00AF90EF01CFF10F080FB6A
:10035000FEE700BF0E20054030800440823F0400CD
:1003600000D0004088ED00E01CB0044084F00F4055
:1003700008C0044010D0034014D0034002D007400E
:1003800000E007409841FF1FE4C10100E828FF1F7B
:100390009841FF1FD461FF1FD0F00F40805EFF1F08
:1003A00010F10F400024FF1F0000000000E400E0F7
:1003B00052E400E008ED00E0005006400040064036
:1003C0004480044004800440C010050014E000E0B4
:1003D000BFD4010000002020D2E3E05F1CE0034016
:1003E000A5C3945A00F00740FFFFFFFFFFFFFFFF88
:1003F000FFFFFFFFFFFFFFFFFFFFFFFFFFFFFFFF0D
:10040000FFFFFFFFFFFFFFFFFFFFFFFFFEFFFFFFFD
:1004100010B5054C237833B9044B13B10448AFF33E
:1004200000800123237010BD9841FF1F00000000D1
:10043000E0C10100084B10B51BB108490848AFF3F3
:1004400000800848036803B910BD074B002BFBD0A0
:10045000BDE81040184700BF000000009C41FF1F8E
:10046000E0C101009841FF1F00000000002070471C
:100470000020704700207047002070470020704720
:1004800038B5037F43F0010300210377044610F0E1
:100490006FF850B1054629462046002210F042F878
:1004A0002846BDE8384010F019B838BD10B50446EC
:1004B000806816F083F8204610BD00BF08B5AF2154
:1004C00004480DF06BF9044A137863F07F0313704E
:1004D00008BD00BF104BFF1F1845FF1F10B5F3EEFE
:1004E000047AB4EEE70AF1EE10FA2DED028B0C4619
:1004F00009D4DFED117AB4EE670AF1EE10FAC8BF45
:10050000B0EE670A01E0B0EE670ADFED0C7A9FED0E
:100510000C8A20EE270A60EE087AFDEEE77AC0ED3D
:10052000007A11F08DFF20EE080ABDEC028BBDEEC3
:10053000C00A84ED000A10BD000096461F4209382B
:100540000000004F214B10B41A68136850681978E6
:100550000478507A137A044201EA03011BD0937A9B
:1005600003F0030309B143F0040343F008039910B7
:10057000013B91720D2B0BD8DFE803F021071B071D
:100580000A152121150A071B0721D368013BD360F7
:100590005DF8044B7047937A03F003030029E6D01B
:1005A00043F00403E3E7D3685DF8044B023BD360F8
:1005B0007047D3685DF8044B0233D3607047D3684B
:1005C0005DF8044B0133D360704700BFD45DFF1F5B
:1005D000214B10B45A681368506819780478507A1F
:1005E000137A044201EA03011BD0937A03F0030358
:1005F00009B143F0040343F008039910013B9172E1
:100600000D2B0BD8DFE803F021071B070A1521216A
:10061000150A071B0721D368013BD3605DF8044B23
:100620007047937A03F003030029E6D043F00403F4
:10063000E3E7D3685DF8044B023BD3607047D368AF
:100640005DF8044B0233D3607047D3685DF8044B08
:100650000133D360704700BFD45DFF1F214B10B43E
:100660009A681368506819780478507A137A0442AB
:1006700001EA03011BD0937A03F0030309B143F0AD
:10068000040343F008039910013B91720D2B0BD822
:10069000DFE803F021071B070A152121150A071BB4
:1006A0000721D368013BD3605DF8044B7047937A10
:1006B00003F003030029E6D043F00403E3E7D36823
:1006C0005DF8044B023BD3607047D3685DF8044B80
:1006D0000233D3607047D3685DF8044B0133D360B5
:1006E000704700BFD45DFF1F214B10B4DA68136858
:1006F000506819780478507A137A044201EA0301A9
:100700001BD0937A03F0030309B143F0040343F0D1
:1007100008039910013B91720D2B0BD8DFE803F011
:1007200021071B070A152121150A071B0721D3687A
:10073000013BD3605DF8044B7047937A03F00303E9
:100740000029E6D043F00403E3E7D3685DF8044BE7
:10075000023BD3607047D3685DF8044B0233D3602B
:100760007047D3685DF8044B0133D360704700BF16
:10077000D45DFF1F214B10B41A69136850681978B3
:100780000478507A137A044201EA03011BD0937A69
:1007900003F0030309B143F0040343F00803991085
:1007A000013B91720D2B0BD8DFE803F021071B07EB
:1007B0000A152121150A071B0721D368013BD360C5
:1007C0005DF8044B7047937A03F003030029E6D0E9
:1007D00043F00403E3E7D3685DF8044B023BD360C6
:1007E0007047D3685DF8044B0233D3607047D36819
:1007F0005DF8044B0133D360704700BFD45DFF1F29
:10080000214B10B45A691368506819780478507AEB
:10081000137A044201EA03011BD0937A03F0030325
:1008200009B143F0040343F008039910013B9172AE
:100830000D2B0BD8DFE803F021071B070A15212138
:10084000150A071B0721D368013BD3605DF8044BF1
:100850007047937A03F003030029E6D043F00403C2
:10086000E3E7D3685DF8044B023BD3607047D3687D
:100870005DF8044B0233D3607047D3685DF8044BD6
:100880000133D360704700BFD45DFF1F214B10B40C
:100890009A691368506819780478507A137A044278
:1008A00001EA03011BD0937A03F0030309B143F07B
:1008B000040343F008039910013B91720D2B0BD8F0
:1008C000DFE803F021071B070A152121150A071B82
:1008D0000721D368013BD3605DF8044B7047937ADE
:1008E00003F003030029E6D043F00403E3E7D368F1
:1008F0005DF8044B023BD3607047D3685DF8044B4E
:100900000233D3607047D3685DF8044B0133D36082
:10091000704700BFD45DFF1F214B10B4DA69136824
:10092000506819780478507A137A044201EA030176
:100930001BD0937A03F0030309B143F0040343F09F
:1009400008039910013B91720D2B0BD8DFE803F0DF
:1009500021071B070A152121150A071B0721D36848
:10096000013BD3605DF8044B7047937A03F00303B7
:100970000029E6D043F00403E3E7D3685DF8044BB5
:10098000023BD3607047D3685DF8044B0233D360F9
:100990007047D3685DF8044B0133D360704700BFE4
:1009A000D45DFF1F214B10B41A6A13685068197880
:1009B0000478507A137A044201EA03011BD0937A37
:1009C00003F0030309B143F0040343F00803991053
:1009D000013B91720D2B0BD8DFE803F021071B07B9
:1009E0000A152121150A071B0721D368013BD36093
:1009F0005DF8044B7047937A03F003030029E6D0B7
:100A000043F00403E3E7D3685DF8044B023BD36093
:100A10007047D3685DF8044B0233D3607047D368E6
:100A20005DF8044B0133D360704700BFD45DFF1FF6
:100A3000214B10B45A6A1368506819780478507AB8
:100A4000137A044201EA03011BD0937A03F00303F3
:100A500009B143F0040343F008039910013B91727C
:100A60000D2B0BD8DFE803F021071B070A15212106
:100A7000150A071B0721D368013BD3605DF8044BBF
:100A80007047937A03F003030029E6D043F0040390
:100A9000E3E7D3685DF8044B023BD3607047D3684B
:100AA0005DF8044B0233D3607047D3685DF8044BA4
:100AB0000133D360704700BFD45DFF1F214B10B4DA
:100AC0009A6A1368506819780478507A137A044245
:100AD00001EA03011BD0937A03F0030309B143F049
:100AE000040343F008039910013B91720D2B0BD8BE
:100AF000DFE803F021071B070A152121150A071B50
:100B00000721D368013BD3605DF8044B7047937AAB
:100B100003F003030029E6D043F00403E3E7D368BE
:100B20005DF8044B023BD3607047D3685DF8044B1B
:100B30000233D3607047D3685DF8044B0133D36050
:100B4000704700BFD45DFF1F214B10B4DA6A1368F1
:100B5000506819780478507A137A044201EA030144
:100B60001BD0937A03F0030309B143F0040343F06D
:100B700008039910013B91720D2B0BD8DFE803F0AD
:100B800021071B070A152121150A071B0721D36816
:100B9000013BD3605DF8044B7047937A03F0030385
:100BA0000029E6D043F00403E3E7D3685DF8044B83
:100BB000023BD3607047D3685DF8044B0233D360C7
:100BC0007047D3685DF8044B0133D360704700BFB2
:100BD000D45DFF1F214B10B41A6B1368506819784D
:100BE0000478507A137A044201EA03011BD0937A05
:100BF00003F0030309B143F0040343F00803991021
:100C0000013B91720D2B0BD8DFE803F021071B0786
:100C10000A152121150A071B0721D368013BD36060
:100C20005DF8044B7047937A03F003030029E6D084
:100C300043F00403E3E7D3685DF8044B023BD36061
:100C40007047D3685DF8044B0233D3607047D368B4
:100C50005DF8044B0133D360704700BFD45DFF1FC4
:100C6000214B10B45A6B1368506819780478507A85
:100C7000137A044201EA03011BD0937A03F00303C1
:100C800009B143F0040343F008039910013B91724A
:100C90000D2B0BD8DFE803F021071B070A152121D4
:100CA000150A071B0721D368013BD3605DF8044B8D
:100CB0007047937A03F003030029E6D043F004035E
:100CC000E3E7D3685DF8044B023BD3607047D36819
:100CD0005DF8044B0233D3607047D3685DF8044B72
:100CE0000133D360704700BFD45DFF1F214B10B4A8
:100CF0009A6B1368506819780478507A137A044212
:100D000001EA03011BD0937A03F0030309B143F016
:100D1000040343F008039910013B91720D2B0BD88B
:100D2000DFE803F021071B070A152121150A071B1D
:100D30000721D368013BD3605DF8044B7047937A79
:100D400003F003030029E6D043F00403E3E7D3688C
:100D50005DF8044B023BD3607047D3685DF8044BE9
:100D60000233D3607047D3685DF8044B0133D3601E
:100D7000704700BFD45DFF1F214B10B4DA6B1368BE
:100D8000506819780478507A137A044201EA030112
:100D90001BD0937A03F0030309B143F0040343F03B
:100DA00008039910013B91720D2B0BD8DFE803F07B
:100DB00021071B070A152121150A071B0721D368E4
:100DC000013BD3605DF8044B7047937A03F0030353
:100DD0000029E6D043F00403E3E7D3685DF8044B51
:100DE000023BD3607047D3685DF8044B0233D36095
:100DF0007047D3685DF8044B0133D360704700BF80
:100E0000D45DFF1F214B10B41A6C13685068197819
:100E10000478507A137A044201EA03011BD0937AD2
:100E200003F0030309B143F0040343F008039910EE
:100E3000013B91720D2B0BD8DFE803F021071B0754
:100E40000A152121150A071B0721D368013BD3602E
:100E50005DF8044B7047937A03F003030029E6D052
:100E600043F00403E3E7D3685DF8044B023BD3602F
:100E70007047D3685DF8044B0233D3607047D36882
:100E80005DF8044B0133D360704700BFD45DFF1F92
:100E9000214B10B45A6C1368506819780478507A52
:100EA000137A044201EA03011BD0937A03F003038F
:100EB00009B143F0040343F008039910013B917218
:100EC0000D2B0BD8DFE803F021071B070A152121A2
:100ED000150A071B0721D368013BD3605DF8044B5B
:100EE0007047937A03F003030029E6D043F004032C
:100EF000E3E7D3685DF8044B023BD3607047D368E7
:100F00005DF8044B0233D3607047D3685DF8044B3F
:100F10000133D360704700BFD45DFF1F214B10B475
:100F20009A6C1368506819780478507A137A0442DE
:100F300001EA03011BD0937A03F0030309B143F0E4
:100F4000040343F008039910013B91720D2B0BD859
:100F5000DFE803F021071B070A152121150A071BEB
:100F60000721D368013BD3605DF8044B7047937A47
:100F700003F003030029E6D043F00403E3E7D3685A
:100F80005DF8044B023BD3607047D3685DF8044BB7
:100F90000233D3607047D3685DF8044B0133D360EC
:100FA000704700BFD45DFF1F214B10B4DA6C13688B
:100FB000506819780478507A137A044201EA0301E0
:100FC0001BD0937A03F0030309B143F0040343F009
:100FD00008039910013B91720D2B0BD8DFE803F049
:100FE00021071B070A152121150A071B0721D368B2
:100FF000013BD3605DF8044B7047937A03F0030321
:101000000029E6D043F00403E3E7D3685DF8044B1E
:10101000023BD3607047D3685DF8044B0233D36062
:101020007047D3685DF8044B0133D360704700BF4D
:10103000D45DFF1F214B10B41A6D136850681978E6
:101040000478507A137A044201EA03011BD0937AA0
:1010500003F0030309B143F0040343F008039910BC
:10106000013B91720D2B0BD8DFE803F021071B0722
:101070000A152121150A071B0721D368013BD360FC
:101080005DF8044B7047937A03F003030029E6D020
:1010900043F00403E3E7D3685DF8044B023BD360FD
:1010A0007047D3685DF8044B0233D3607047D36850
:1010B0005DF8044B0133D360704700BFD45DFF1F60
:1010C000214B10B45A6D1368506819780478507A1F
:1010D000137A044201EA03011BD0937A03F003035D
:1010E00009B143F0040343F008039910013B9172E6
:1010F0000D2B0BD8DFE803F021071B070A15212170
:10110000150A071B0721D368013BD3605DF8044B28
:101110007047937A03F003030029E6D043F00403F9
:10112000E3E7D3685DF8044B023BD3607047D368B4
:101130005DF8044B0233D3607047D3685DF8044B0D
:101140000133D360704700BFD45DFF1F214B10B443
:101150009A6D1368506819780478507A137A0442AB
:1011600001EA03011BD0937A03F0030309B143F0B2
:10117000040343F008039910013B91720D2B0BD827
:10118000DFE803F021071B070A152121150A071BB9
:101190000721D368013BD3605DF8044B7047937A15
:1011A00003F003030029E6D043F00403E3E7D36828
:1011B0005DF8044B023BD3607047D3685DF8044B85
:1011C0000233D3607047D3685DF8044B0133D360BA
:1011D000704700BFD45DFF1F214B10B4DA6D136858
:1011E000506819780478507A137A044201EA0301AE
:1011F0001BD0937A03F0030309B143F0040343F0D7
:1012000008039910013B91720D2B0BD8DFE803F016
:1012100021071B070A152121150A071B0721D3687F
:10122000013BD3605DF8044B7047937A03F00303EE
:101230000029E6D043F00403E3E7D3685DF8044BEC
:10124000023BD3607047D3685DF8044B0233D36030
:101250007047D3685DF8044B0133D360704700BF1B
:10126000D45DFF1F214B10B41A6E136850681978B3
:101270000478507A137A044201EA03011BD0937A6E
:1012800003F0030309B143F0040343F0080399108A
:10129000013B91720D2B0BD8DFE803F021071B07F0
:1012A0000A152121150A071B0721D368013BD360CA
:1012B0005DF8044B7047937A03F003030029E6D0EE
:1012C00043F00403E3E7D3685DF8044B023BD360CB
:1012D0007047D3685DF8044B0233D3607047D3681E
:1012E0005DF8044B0133D360704700BFD45DFF1F2E
:1012F000214B10B45A6E1368506819780478507AEC
:10130000137A044201EA03011BD0937A03F003032A
:1013100009B143F0040343F008039910013B9172B3
:101320000D2B0BD8DFE803F021071B070A1521213D
:10133000150A071B0721D368013BD3605DF8044BF6
:101340007047937A03F003030029E6D043F00403C7
:10135000E3E7D3685DF8044B023BD3607047D36882
:101360005DF8044B0233D3607047D3685DF8044BDB
:101370000133D360704700BFD45DFF1F214B10B411
:101380009A6E1368506819780478507A137A044278
:1013900001EA03011BD0937A03F0030309B143F080
:1013A000040343F008039910013B91720D2B0BD8F5
:1013B000DFE803F021071B070A152121150A071B87
:1013C0000721D368013BD3605DF8044B7047937AE3
:1013D00003F003030029E6D043F00403E3E7D368F6
:1013E0005DF8044B023BD3607047D3685DF8044B53
:1013F0000233D3607047D3685DF8044B0133D36088
:10140000704700BFD45DFF1F214B10B4DA6E136824
:10141000506819780478507A137A044201EA03017B
:101420001BD0937A03F0030309B143F0040343F0A4
:1014300008039910013B91720D2B0BD8DFE803F0E4
:1014400021071B070A152121150A071B0721D3684D
:10145000013BD3605DF8044B7047937A03F00303BC
:101460000029E6D043F00403E3E7D3685DF8044BBA
:10147000023BD3607047D3685DF8044B0233D360FE
:101480007047D3685DF8044B0133D360704700BFE9
:10149000D45DFF1F214B10B41A6F13685068197880
:1014A0000478507A137A044201EA03011BD0937A3C
:1014B00003F0030309B143F0040343F00803991058
:1014C000013B91720D2B0BD8DFE803F021071B07BE
:1014D0000A152121150A071B0721D368013BD36098
:1014E0005DF8044B7047937A03F003030029E6D0BC
:1014F00043F00403E3E7D3685DF8044B023BD36099
:101500007047D3685DF8044B0233D3607047D368EB
:101510005DF8044B0133D360704700BFD45DFF1FFB
:10152000214B10B45A6F1368506819780478507AB8
:10153000137A044201EA03011BD0937A03F00303F8
:1015400009B143F0040343F008039910013B917281
:101550000D2B0BD8DFE803F021071B070A1521210B
:10156000150A071B0721D368013BD3605DF8044BC4
:101570007047937A03F003030029E6D043F0040395
:10158000E3E7D3685DF8044B023BD3607047D36850
:101590005DF8044B0233D3607047D3685DF8044BA9
:1015A0000133D360704700BFD45DFF1F214B10B4DF
:1015B0009A6F1368506819780478507A137A044245
:1015C00001EA03011BD0937A03F0030309B143F04E
:1015D000040343F008039910013B91720D2B0BD8C3
:1015E000DFE803F021071B070A152121150A071B55
:1015F0000721D368013BD3605DF8044B7047937AB1
:1016000003F003030029E6D043F00403E3E7D368C3
:101610005DF8044B023BD3607047D3685DF8044B20
:101620000233D3607047D3685DF8044B0133D36055
:10163000704700BFD45DFF1F214B10B4DA6F1368F1
:10164000506819780478507A137A044201EA030149
:101650001BD0937A03F0030309B143F0040343F072
:1016600008039910013B91720D2B0BD8DFE803F0B2
:1016700021071B070A152121150A071B0721D3681B
:10168000013BD3605DF8044B7047937A03F003038A
:101690000029E6D043F00403E3E7D3685DF8044B88
:1016A000023BD3607047D3685DF8044B0233D360CC
:1016B0007047D3685DF8044B0133D360704700BFB7
:1016C000D45DFF1F214B10B4D3F8802013685068FD
:1016D00019780478507A137A044201EA03011BD086
:1016E000937A03F0030309B143F0040343F00803C2
:1016F0009910013B91720D2B0BD8DFE803F0210705
:101700001B070A152121150A071B0721D368013B76
:10171000D3605DF8044B7047937A03F0030300290C
:10172000E6D043F00403E3E7D3685DF8044B023BE3
:10173000D3607047D3685DF8044B0233D3607047C1
:10174000D3685DF8044B0133D3607047D45DFF1F4D
:10175000214B10B4D3F884201368506819780478AA
:10176000507A137A044201EA03011BD0937A03F002
:10177000030309B143F0040343F008039910013B4C
:1017800091720D2B0BD8DFE803F021071B070A1518
:101790002121150A071B0721D368013BD3605DF89F
:1017A000044B7047937A03F003030029E6D043F01B
:1017B0000403E3E7D3685DF8044B023BD360704752
:1017C000D3685DF8044B0233D3607047D3685DF88B
:1017D000044B0133D3607047D45DFF1F70B50446DE
:1017E00008460D4615F0ECFC2368024629462046C3
:1017F0005B68BDE870401847002310B4104C41727C
:10180000026104600372C36041B1194600E00269DD
:1018100042F82310427A01339A42F8DC094B1A68E5
:101820000AB90BE01A465369002BFBD15061002323
:1018300043618380C3805DF8044B70471860F6E70E
:10184000C4A50100845FFF1F10B51C4B0360044654
:101850000021012004F1B8020B466072226121725E
:10186000E16000E0226942F82310627A01339A4273
:10187000F8DC134B1A680AB91DE01A465369002BAD
:10188000FBD15461204600210E4B6161A180E180B3
:10189000A02240F8183B15F0CBF94FF07E530A4ACE
:1018A000E2636266C4F88C20A3612364A366C4F873
:1018B0009030204610BD1C60E4E700BFC4A50100C5
:1018C000845FFF1FA8AF010000FEFF46F8B5044685
:1018D00015460E46084602210DF0CEFD284602218F
:1018E0000DF0CAFD9C4A9D4B52F83610012001F5BF
:1018F00000772760207252F83520607202F5007779
:1019000000206760E060013BFDD191F8003292F861
:10191000002203F00103D20744BF43F00203DBB20D
:10192000A372212E00F24A83DFE816F03D03340350
:101930002B032203190310030703FE02F502EC0236
:10194000E302DA028D0284027B0272026902600203
:1019500057024E0245023C0233022A0221021802BB
:101960000F020602FD01F401EB01E201D8012200A1
:101970007B4B7C49C3F88440042221200DF09EFC5F
:1019800001232374212D00F21783DFE815F09D0158
:10199000930189017F0175016B01610157014D01BF
:1019A000430139012F0125011B011101DB00D10089
:1019B000C700BD00B300A9009F0095008B00810007
:1019C00077006D00630059004F0045003B00300078
:1019D0002200634B6349C3F88440042221200DF0A8
:1019E0006DFC237C0122134423742046F8BD5C4B1C
:1019F0005D49C3F88040042220200DF05FFC237C69
:101A00000122F0E7564B5949DC6704221F200DF0F4
:101A100055FC237C0122E6E7514B55499C67042283
:101A20001E200DF04BFC237C0122DCE74C4B51497E
:101A30005C6704221D200DF041FC237C0122D2E7CB
:101A4000474B4D491C6704221C200DF037FC237CBA
:101A50000122C8E7424B4949DC6604221B200DF0F5
:101A60002DFC237C0122BEE73D4B45499C660422A8
:101A70001A200DF023FC237C0122B4E7384B4149A6
:101A80005C66042219200DF019FC237C0122AAE7D0
:101A9000334B3D491C66042218200DF00FFC237CBB
:101AA0000122A0E72E4B3949DC65042217200DF0F6
:101AB00005FC237C012296E7294B35499C650422CD
:101AC00016200DF0FBFB237C01228CE7244B3149CF
:101AD0005C65042215200DF0F1FB237C012282E7D6
:101AE0001F4B2D491C65042214200DF0E7FB237CBD
:101AF000012278E71A4B2949DC64042213200DF0F7
:101B0000DDFB237C01226EE7154B25499C640422F2
:101B100012200DF0D3FB237C012264E7104B2149F6
:101B20005C64042211200DF0C9FB237C01225AE7DA
:101B30000B4B1D491C64042210200DF0BFFB237CBD
:101B4000012250E7064B1949DC6304220F200DF0F7
:101B5000B5FB237C012246E748B60100803801002E
:101B6000D45DFF1F51170000C51600003916000094
:101B7000AD150000211500009514000009140000A7
:101B80007D130000F112000065120000D911000061
:101B90004D110000C110000035100000A90F000019
:101BA0001D0F0000910E0000050E0000790D0000D1
:101BB000A94BAA499C6304220E200DF07FFB237CD5
:101BC000012210E7A44BA6495C6304220D200DF00E
:101BD00075FB237C012206E79F4BA2491C6304226C
:101BE0000C200DF06BFB237C0122FCE69A4B9E49F6
:101BF000DC6204220B200DF061FB237C0122F2E663
:101C0000954B9A499C6204220A200DF057FB237CD5
:101C10000122E8E6904B96495C62042209200DF00F
:101C20004DFB237C0122DEE68B4B92491C62042291
:101C300008200DF043FB237C0122D4E6864B8E491D
:101C4000DC61042207200DF039FB237C0122CAE667
:101C5000814B8A499C61042206200DF02FFB237CD6
:101C60000122C0E67C4B86495C61042205200DF010
:101C700025FB237C0122B6E6774B82491C610422B6
:101C800010460DF01BFB237C0122ACE6724B7E4913
:101C9000DC60042203200DF011FB237C0122A2E66C
:101CA0006D4B7A499C60042202200DF007FB237CD7
:101CB000012298E6684B76495C60042201200DF011
:101CC000FDFA237C01228EE6634B72491C600422DC
:101CD00000200DF0F3FA237C012284E65E4B6E496E
:101CE000C3F88040042220200DF0E8FA012348E6E2
:101CF000594B6A49DC6704221F200DF0DFFA0123EB
:101D00003FE6554B66499C6704221E200DF0D6FA2B
:101D1000012336E6504B63495C6704221D200DF019
:101D2000CDFA01232DE64C4B5F491C6704221C2091
:101D30000DF0C4FA012324E6474B5C49DC6604221B
:101D40001B200DF0BBFA01231BE6434B58499C6650
:101D500004221A200DF0B2FA012312E63E4B554937
:101D60005C66042219200DF0A9FA012309E63A4B1A
:101D700051491C66042218200DF0A0FA012300E648
:101D8000354B4E49DC65042217200DF097FA0123EC
:101D9000F7E5314B4A499C65042216200DF08EFA76
:101DA0000123EEE52C4B47495C65042215200DF01C
:101DB00085FA0123E5E5284B43491C6504221420DC
:101DC0000DF07CFA0123DCE5234B4049DC6404225E
:101DD00013200DF073FA0123D3E51F4B3C499C649B
:101DE000042212200DF06AFA0123CAE51A4B394980
:101DF0005C64042211200DF061FA0123C1E5164B49
:101E000035491C64042210200DF058FA0123B8E56E
:101E1000114B3249DC6304220F200DF04FFA0123ED
:101E2000AFE50D4B0D499C6304220E200DF046FAE0
:101E30000123A6E5084B0A495C6304220D200DF03E
:101E40003DFA01239DE5044B06491C6304220C2046
:101E50000DF034FA012394E5D45DFF1FED0C000072
:101E6000610C0000D50B0000490B0000BD0A00000A
:101E7000310A0000A5090000190900008D080000C2
:101E80000108000075070000E90600005D0600007B
:101E9000D105000045050000C516000039160000F8
:101EA000AD15000021150000951400000914000074
:101EB0007D130000F112000065120000D91100002E
:101EC0004D110000C110000035100000A90F0000E6
:101ED0001D0F0000910E0000050E0000790D00009E
:101EE000374B3849DC6204220B200DF0E7F901235F
:101EF00047E5334B34499C6204220A200DF0DEF999
:101F000001233EE52E4B31495C62042209200DF08D
:101F1000D5F9012335E52A4B2D491C6204220820FE
:101F20000DF0CCF901232CE5254B2A49DC61042274
:101F300007200DF0C3F9012323E5214B26499C61BD
:101F4000042206200DF0BAF901231AE51C4B23499F
:101F50005C61042205200DF0B1F9012311E5184B55
:101F60001F491C61042210460DF0A8F9012308E561
:101F7000134B1C49DC60042203200DF09FF9012360
:101F8000FFE40F4B18499C60042202200DF096F9E3
:101F90000123F6E40A4B15495C60042201200DF090
:101FA0008DF90123EDE4064B11491C600422002049
:101FB0000DF084F90123E4E4002214E50023E0E4B9
:101FC000D45DFF1F490B0000BD0A0000310A00006C
:101FD000A5090000190900008D0800000108000093
:101FE00075070000E90600005D060000D10500004D
:101FF00045050000FFFFFFFF2DE9F04F55EC124BA8
:102000002DED048BB0EE419AF0EE619A25F000437D
:1020100087B0002206468A4612EE100A1946C84BBF
:1020200059EC108B8DED003B13F0F4FE9FEDC00BCF
:1020300041EC110B10F0D4FA40464946BEA3D3E957
:102040000023B0EE408AF0EE608A13F0B9FD9DEDFA
:10205000003B53EC132B13F0DDFE41EC100B10F0A2
:10206000B7F959EC108B072E64D8DFE816F008009A
:102070007A00AE000F016D01E6018F02680010EEDC
:10208000100A53EC192B494613F0C4FE424606468B
:102090000F464B464046494613F092FD0022044647
:1020A0000D46A84B3046394613F0D8FB22462B4646
:1020B00013F0D4FB02460B460020A24913F0AAFEFF
:1020C000B04602460B46B94606460F46204629460C
:1020D00013F076FD14F06CF807EE900A37EEA77A4D
:1020E000CAF80000CAF808008AED017A0022954B70
:1020F0002046294613F0B0FB02460B4613F0AEFB18
:1021000032463B4613F05CFD14F052F88D49CAF894
:102110000C0042464B46002013F09EFB22462B4605
:1021200013F09CFB32463B4613F04AFD14F040F896
:10213000CAF8100007B0BDEC048BBDE8F08F002397
:102140004FF07E52CAF80430CAF80830CAF80C3092
:10215000CAF81030CAF8002007B0BDEC048BBDE807
:10216000F08F10EE100A53EC192B494613F052FE73
:10217000424606460F464B464046494613F020FD70
:10218000002204460D466F4B3046394613F066FB7D
:1021900022462B4613F062FB02460B46002069499B
:1021A00013F038FEB046B94606460F4614F000F864
:1021B00007EE100AF8EE007A67EE277ACAF80000F8
:1021C000CAF80800CAED017A90E710EE100A53EC45
:1021D000192B494613F01EFE424604460D464B4657
:1021E0004046494613F0ECFC002206460F46554B8C
:1021F0002046294613F032FB32463B4613F02EFBB5
:1022000002460B4600204F4913F004FEA046A946A3
:1022100002460B4604460D464046494613F0D0FCA4
:1022200013F0C6FF07EE900A0023F1EE677ACAEDBD
:10223000027ACAF80000CAF804300022414B304646
:10224000394613F009FB02460B4613F007FB224602
:102250002B4613F0B5FC13F0ABFF42464B46CAF8D1
:102260000C000020374913F0F7FA32463B4613F0D2
:10227000F5FA22462B4613F0A3FC13F099FFCAF897
:10228000100007B0BDEC048BBDE8F08F10EE100A13
:1022900053EC192B494613F0BDFD424606460F4646
:1022A0004B464046494613F08BFC002204460D463F
:1022B000244B3046394613F0D1FA22462B4613F010
:1022C000CDFA02460B4600201E4913F0A3FDB0468E
:1022D000B94606460F4600221A4B2046294613F0FF
:1022E000BDFA32463B4613F06BFC13F061FF00224F
:1022F0008346144BCAF800002946204613F0ACFA76
:1023000002460B4613F0AAFA32463B4613F058FC3D
:1023100013F04EFFCAF808B0CAF80400CAF80C005F
:1023200042464B4600200749F6E600BFAFF3008067
:102330000000000000002440000000E0697E06402C
:10234000000034400000F03F0022002320462946D0
:1023500013F0BCFE53EC192B002800F0B7810020CD
:10236000D94913F057FD42464B4613F029FC42462B
:1023700006460F464B464046494613F021FC0022D4
:1023800004460D46D04B30463946CDE9006713F080
:1023900065FA22462B4613F061FA02460B460020EE
:1023A000C94913F037FD53EC192B06460F4651EC83
:1023B000180B13F02FFD42464B4613F001FC002290
:1023C000C14B8046894613F049FA22462B4613F04A
:1023D00045FA32463B4613F0F3FB13F0E9FE0022C8
:1023E000B94BCAF800002946204613F035FA0246D8
:1023F0000B4613F033FA32463B4613F0E1FB13F081
:10240000D7FE424683464B46CAF80400AE49002038
:1024100013F022FA22462B4613F020FA32463B46AE
:1024200013F0CEFB13F0C4FECAF80CB0CAF80800D3
:10243000DDE900230020A4496EE62046294600225B
:10244000002313F043FE002800F0F9819CA3D3E998
:1024500000234046494613F0B3FB424604460D466E
:102460004B464046494613F0ABFB002206460F465A
:10247000954B20462946CDE9004513F0EFF9324649
:102480003B46CDE9026713F0E9F902460B4600200E
:102490008D4913F0BFFC53EC182B04460D4651EC4C
:1024A000180B13F0DBF941EC100B41EC190B10F099
:1024B00033FA42464B4651EC180B8DED040B13F0EA
:1024C0007FFB42464B4613F07BFB9DED040B06461B
:1024D00053EC102B0F464046494613F071FB002287
:1024E000794B13F0BBF932463B4613F0B7F922465D
:1024F0002B4613F065FB13F05BFE0022724BCAF80B
:1025000000003946304613F0A7F902460B4613F097
:10251000A5F922462B4613F053FB13F049FEB0EE0B
:10252000490AF0EE690ACAF8040010F0F5F94046CD
:1025300053EC102B494613F043FB02460B46002098
:10254000614913F089F932463B4613F087F9224678
:102550002B4613F035FB13F02BFEDDE9026700225A
:10256000594BCAF808003946304613F075F902464F
:102570000B4613F073F922462B4613F021FB13F0A0
:1025800017FEDDE90023CAF80C006AE6204629465A
:102590000022002313F09AFD002800F0C28048A317
:1025A000D3E900234046494613F00AFB424606465B
:1025B0000F464B464046494613F002FB00220446B4
:1025C0000D46414B30463946CDE9006713F046F9D8
:1025D00022462B4613F042F902460B4600203A49A8
:1025E00013F018FC53EC182B06460F4651EC180B51
:1025F00013F034F941EC100B41EC190B10F08CF98D
:10260000404653EC102B494613F0DAFA53EC182BE2
:1026100013F024F922462B4613F020F932463B46AC
:1026200013F0CEFA13F0C4FD53EC182BCAF80000D7
:102630002946204613F010F902460B4613F00EF916
:1026400032463B4613F0BCFA13F0B2FDB0EE490A35
:10265000F0EE690ACAF8040010F05EF9404653EC47
:10266000102B494613F0ACFA02460B4651EC180BFE
:1026700013F0F2F822462B4613F0F0F832463B46B0
:1026800013F09EFA13F094FD00220F4BCAF80800D5
:102690002946204613F0E0F802460B4613F0DEF818
:1026A00032463B4613F08CFA13F082FDDDE900233D
:1026B000CAF80C00044900202EE500BFAFF30080EB
:1026C000000000609EA0F63F0000F03F51EC180BA8
:1026D00013F0A0FB42464B4613F072FA4246064600
:1026E0000F464B464046494613F06AFA002204461C
:1026F0000D46A54B30463946CDE9006713F0AEF8DC
:1027000022462B4613F0AAF802460B4600209E49AB
:1027100013F080FB53EC192B06460F4600209A4914
:1027200047E653EC182B51EC180B13F097F841ECDB
:10273000100B41EC190B10F0EFF842464B464046A7
:1027400049468DED000B13F03BFA9DED000B04465E
:1027500053EC102B0D464046494613F031FA53EC2A
:10276000182B13F07BF822462B4613F077F802461D
:102770000B460020844913F04DFB81A3D3E90023CD
:1027800006460F464046494613F01AFA00227E4B91
:10279000CDE9000113F062F822462B4613F05EF8F3
:1027A00032463B4613F00CFA13F002FD0022764B42
:1027B000CAF800002946204613F04EF802460B46A0
:1027C00013F04CF832463B4613F0FAF913F0F0FCE4
:1027D000DDE90023CAF804006B49002013F03CF83F
:1027E00022462B4613F03AF832463B4613F0E8F9FE
:1027F00013F0DEFC53EC182BCAF8080029462046DB
:1028000013F02AF802460B4613F028F832463B46EE
:1028100013F0D6F913F0CCFCB0EE490AF0EE690AD9
:10282000CAF80C0010F078F8404653EC102B4946DB
:1028300013F0C6F902460B4651EC180B6CE453EC4E
:10284000182B51EC180B13F009F841EC100B41EC6C
:10285000190B10F061F842464B4651EC180B8DED08
:10286000000B13F0ADF942464B4613F0A9F99DED6C
:10287000000B064653EC102B0F464046494613F01A
:102880009FF90022404B12F0E9FF32463B46CDE96A
:10289000026712F0E3FF02460B4600203A4913F0AC
:1028A000B9FA37A3D3E9002304460D46404649460A
:1028B00013F086F94246CDE900014B4640464946B1
:1028C00013F07EF9002206460F462F4BDDE900018A
:1028D00012F0C4FF32463B4612F0C0FF22462B46A0
:1028E00013F06EF913F064FC0022274BCAF80000C5
:1028F0003946304612F0B0FF02460B4612F0AEFFEA
:1029000022462B4613F05CF913F052FCDDE900235C
:10291000CAF804001C49002012F09EFF32463B46D4
:1029200012F09CFF22462B4613F04AF913F040FCAC
:10293000DDE902670022144BCAF808003946304628
:1029400012F08AFF02460B4612F088FF22462B4601
:1029500013F036F913F02CFCB0EE490AF0EE690AD8
:10296000CAF80C000FF0D8FF404653EC102B494634
:1029700013F026F902460B4673E400BFAFF3008064
:10298000000000609EA0F63F0000F03F84B030B42D
:1029900003AC84E80E002D4DDDED087A9DED047A40
:1029A000044695E80F00B4EEE77A9DF80C50F1EE7E
:1029B00010FA84E80F0025702DD577EEC76AA0EED7
:1029C000267ADDED056ADDED097A84ED017AF4EE13
:1029D000E76AF1EE10FA29D537EEE67AF0EE667A7C
:1029E000E0EE077ADDED066A9DED0A7AC4ED027A23
:1029F000F4EEC76AF1EE10FA21D4F7EE007A77EE22
:102A0000666A30EE670AA0EE267A204684ED037AE5
:102A100030BC04B07047F7EE006A37EEC77A70EE4C
:102A2000666AE6EE877AB0EE677ACAE7B7EE007AB2
:102A300077EEE66A30EE477AE7EE267AD2E777EE6F
:102A4000667AB0EE667AA0EE277ADEE700A601008D
:102A50002DE9F041294E06F1100507460FCD4FF044
:102A60007C5E4FF0000C07F16004C7F800E0C7F887
:102A70000CE0C7F810E0C7F814E0C7F804C0C7F8C6
:102A800008C00FC495E803004FF0500806F1280570
:102A900084E803004246294607F178000CF058F913
:102AA0004246294607F1C8000CF052F94246294631
:102AB00007F58C700CF04CF94246294607F5B470C6
:102AC00006F178050CF044F90FCD07F5DC740FC45E
:102AD0000FCD0FC40FCD0FC495E80F0006F1B80558
:102AE00084E80F000FCD07F50A740FC495E80F00B6
:102AF00084E80F003846BDE8F08100BF00A6010061
:102B0000F0B501F0030495B0B14D032800F2E58063
:102B1000DFE800F0AC743B02002C40F08B8105F53F
:102B2000AC730FCBAB4ED5F8247196ED020A01AE13
:102B300086E80F0005F58C75009795E80E000BA848
:102B4000FFF724FF0E9812F0E7FFCDE908010D987A
:102B500012F0E2FFCDE906010C9812F0DDFF9DEDC9
:102B6000082B9DED061B9FED964B9FED973B41EC8F
:102B7000100B9DF82C000FA9FFF73EFA0FAA214673
:102B8000954807F075FC15B0F0BD002C40F02E8183
:102B900005F5D4730FCB8F4ED5F8747196ED020AFC
:102BA00001AE86E80F0005F5B475009795E80E00B4
:102BB0000BA8FFF7EBFE0E9812F0AEFFCDE908016F
:102BC0000D9812F0A9FFCDE906010C9812F0A4FFB0
:102BD0009DED082B9DED061B9FED794B9FED7A3BFC
:102BE00041EC100B9DF82C000FA9FFF705FA0FAA76
:102BF00021467A4807F03CFC15B0F0BD002C40F0AF
:102C0000BB8005F584730FCB724ED5F8D47096ED6A
:102C1000010A01AE86E80F00C835009795E80E005E
:102C20000BA8FFF7B3FE0E9812F076FFCDE908016E
:102C30000D9812F071FFCDE906010C9812F06CFFAF
:102C40009DED082B9DED061B9FED5D4B9FED5E3BC3
:102C500041EC100B9DF82C000FA9FFF7CDF90FAA3E
:102C600021465F4807F004FC15B0F0BD002C60D190
:102C700005F1B8030FCB574ED5F8847096ED010AD5
:102C800001AE86E80F007835009795E80E000BA896
:102C9000FFF77CFE0E9812F03FFFCDE908010D987A
:102CA00012F03AFFCDE906010C9812F035FF9DEDC8
:102CB000082B9DED061B9FED424B9FED433B41ECE6
:102CC000100B9DF82C000FA9FFF796F90FAA2146CB
:102CD000444807F0CDFB15B0F0BD04F11C0605EB30
:102CE000061605EB0415706812F016FFCDE9080111
:102CF000306812F011FFCDE90601D5F8BC0112F0E1
:102D00000BFF41EC100B95F8B8019DED082B9DEDE4
:102D1000061B0FA99FED2A4B9FED2B3B00F00700F0
:102D2000FFF76AF90FAA21462F4807F0A1FB15B05B
:102D3000F0BD04F1080605EB061605EB04157068F6
:102D400012F0EAFECDE90801306812F0E5FECDE9A7
:102D50000601E86F12F0E0FE41EC100B95F87800E8
:102D60009DED082B00F007009DED061B0FA99FEDC0
:102D7000144B9FED153BA7E704F10D0605EB061676
:102D800005EB0415706812F0C7FECDE90801306844
:102D900012F0C2FECDE90601D5F8CC0012F0BCFE5F
:102DA00041EC100B95F8C8009DED082B00F00700D2
:102DB0009DED061B0FA99FED024B9FED033B4CE7DA
:102DC000000000000000D041000000000070E7405B
:102DD000A853FF1F202EFF1FC850FF1F3456FF1F90
:102DE000B441FF1F684BFF1F5C45FF1F04F117062E
:102DF00005EB061605EB0415706812F08DFECDE9A3
:102E00000801306812F088FECDE90601D5F86C01A2
:102E100012F082FE41EC100B95F868019DED082B35
:102E200000F007009DED061B0FA99FED154B9FEDD0
:102E3000163BDAE604F1120605EB061605EB04155F
:102E4000706812F069FECDE90801306812F064FE86
:102E5000CDE90601D5F81C0112F05EFE41EC100B25
:102E600095F818019DED082B00F007009DED061B5D
:102E70000FA99FED034B9FED043B7DE6AFF3008070
:102E8000000000000000D041000000000070E7409A
:102E900008B53D4B3D4AD3ED0E7A93ED0F6AF4EE43
:102EA000C67AF1EE10FA76EE676A4BBFB6EE007A9C
:102EB000BEEE007AF0EE675AF0EE465AE6EE875A1A
:102EC00092ED007AF0EE656AD3ED175AB4EEE57A2A
:102ED000F1EE10FA19D8F4EEE67AF1EE10FA49D4D0
:102EE00037EE657A76EEE77A9FED296A27EEC77AA4
:102EF00076EE655AC7EE257A77EEA67AB2EE047AB8
:102F0000C7EE876A16EE900A18E0B4EEE66AF1EEB4
:102F100010FA20DCF7EE007A76EE666A37EE677A12
:102F200075EEE75A26EEC77AC7EE256A76EE866A10
:102F3000F2EE047A86EEA77A17EE100A12F0ECFD94
:102F400041EC100B0FF0C8FA51EC100B13F030F9F4
:102F5000104B186108BD37EE657A36EE666AF7EEFB
:102F6000007A27EE066A77EEE55AC6EE257A77EE06
:102F7000A66ADDE776EEE76A26EE877AC7EE256A6F
:102F800076EEA77ABAE700BFA853FF1F202EFF1FD7
:102F900000000000E84EFF1F70B54C4C4C4ED4EDC5
:102FA000066AD4ED077A96ED016AF4EEE76AF1EE6F
:102FB00010FA27D537EEE67AF0EE667AE6EE077A73
:102FC000B2EE047AC7EE876A16EE900A12F0A4FDFC
:102FD00041EC100B0FF080FA51EC100B13F0E8F8F5
:102FE0009FED3C7A07EE900AF4EEC77AF1EE10FA04
:102FF00011DC9FED397AF4EEC77AF1EE10FA55D56F
:10300000364B09E0B7EE007A77EEE66A36EE476AAD
:10301000E6EE267AD4E7324B324D00210846AB610A
:10302000FFF76EFDD4ED086AD4ED097A96ED016ADA
:10303000F4EEE76AF1EE10FA2FD537EEE67AF0EE0D
:10304000667AE6EE077AB2EE047AC7EE876A16EE83
:10305000900A12F061FD41EC100B0FF03DFA51ECBB
:10306000100B13F0A5F807EE900A9FED1A7AF1EE17
:10307000677AF4EEC77AF1EE10FA25DC9FED167A46
:10308000F4EEC77AF1EE10FA17D5144BEB6100217C
:103090000120BDE87040FFF733BDB7EE007A77EE50
:1030A000E66A36EE476AE6EE267ACCE707EE100AC5
:1030B000BEEEC87A17EE103AAEE7B0EE677ABEEE13
:1030C000C87A17EE103AE1E7054BDFE7A853FF1F78
:1030D000202EFF1F00FEFF4600FEFFC600000180FD
:1030E0000000FF7F5450FF1F70B54B4C4B4ED4ED8A
:1030F0000A6AD4ED0B7A96ED026AF4EEE76AF1EE15
:1031000010FA27D537EEE67AF0EE667AE6EE077A21
:10311000B2EE047AC7EE876A16EE900A12F0FCFC53
:1031200041EC100B0FF0D8F951EC100B13F040F8F4
:103130009FED3B7A07EE900AF4EEC77AF1EE10FAB3
:1031400011DC9FED387AF4EEC77AF1EE10FA53D520
:10315000354B09E0B7EE007A77EEE66A36EE476A5D
:10316000E6EE267AD4E7314B314D00210320AB61E6
:10317000FFF7C6FCD4ED0C6AD4ED0D7A96ED026A29
:10318000F4EEE76AF1EE10FA2DD537EEE67AF0EEBE
:10319000667AE6EE077AB2EE047AC7EE876A16EE32
:1031A000900A12F0B9FC41EC100B0FF095F951ECBC
:1031B000100B12F0FDFF9FED1A7A07EE900AF4EE65
:1031C000C77AF1EE10FA25DC9FED167AF4EEC77A95
:1031D000F1EE10FA17D5144BEB6100210220BDE887
:1031E0007040FFF78DBCB7EE007A77EEE66A36EEF8
:1031F000476AE6EE267ACEE707EE100ABEEEC87AF8
:1032000017EE103AB0E707EE100ABEEEC87A17EED6
:10321000103AE1E7054BDFE7A853FF1F202EFF1F01
:1032200000FEFF4600FEFFC6000001800000FF7F99
:103230009050FF1F174B184AD3ED106AD3ED117A47
:1032400092ED036AF4EEE76AF1EE10FA10B51AD4C3
:10325000B7EE007A77EEE66A36EE476AE6EE267A51
:103260000E4CB2EE047AC7EE876A16EE900A12F0A0
:1032700053FC41EC100B0FF02FF951EC100B12F036
:1032800097FF606110BD37EEE67AF0EE667AE6EE03
:10329000077AE5E7A853FF1F202EFF1FE84EFF1F08
:1032A000184B194AD3ED126AD3ED137A92ED046AE2
:1032B000F4EEE76AF1EE10FA10B51CD4B7EE007A1E
:1032C00077EEE66A36EE476AE6EE267A0F4CB2EE05
:1032D000047AC7EE876A16EE900A12F01DFC41ECE4
:1032E000100B0FF0F9F851EC100B12F061FF80F0A9
:1032F0000040A06110BD37EEE67AF0EE667AE6EEA9
:10330000077AE3E7A853FF1F202EFF1FE84EFF1F99
:10331000174B184AD3ED146AD3ED157A92ED056A6E
:10332000F4EEE76AF1EE10FA10B51AD4B7EE007AAF
:1033300077EEE66A36EE476AE6EE267A0E4CB2EE95
:10334000047AC7EE876A16EE900A12F0E5FB41ECAC
:10335000100B0FF0C1F851EC100B12F029FFE061D7
:1033600010BD37EEE67AF0EE667AE6EE077AE5E72C
:10337000A853FF1F202EFF1FE84EFF1FF8B507467A
:10338000054640F6F17440F6FD7620460BF032FE1D
:103390000134B44205F8010BF7D13B78872B04D0F8
:1033A000002387223A707B60BB603846F8BD00BFBF
:1033B00008B540F6FF700BF01DFE872801D00020F5
:1033C00008BD40F6FE70BDE808400BF013BE00BF1C
:1033D00000B583B0872340F6FF708DF807300BF0FF
:1033E00009FE872806D0012240F6FF710DF1070083
:1033F0000BF01AFE40F6FE700BF0FCFD064B1A783F
:10340000824205D01846012240F6FE710BF00CFEF8
:10341000FE2003B05DF804FB1945FF1F00B583B023
:10342000872340F6D8708DF807300BF0E3FD87282E
:1034300006D0012240F6D8710DF107000BF0F4FD23
:10344000182240F6D97103480BF0EEFDD92003B0E5
:103450005DF804FB202EFF1F70B540F6D8700BF00E
:10346000C9FD872818D0144B4FF07C5200211A60F8
:10347000DA601A615A6159609960D824FFF708FD33
:10348000FFF78AFDFFF730FEFFF7D4FEFFF708FFD6
:10349000FFF73EFF204670BD084CC4F57D65093539
:1034A00004F1180628190BF0A5FD04F8010FB44229
:1034B000F8D1D924E2E700BF202EFF1F1F2EFF1FE7
:1034C0002DE9F0412DED028BD24B1C7840F25E28A5
:1034D00008FB04F882B040460BF08CFD872800F012
:1034E0002283CD4DCD486864CD48A864CD48E864BA
:1034F0004FF07E50CC4BA8654FF07A50CB4ACC4E63
:10350000CC492B63E865CC4BCC486B62AA63CC4BAF
:10351000CC4A2E642866CC4ECC48A966CC492B6791
:10352000EA670023CB4AC5F88060C5F88C00CA4E14
:10353000CA48C5F89010042108F10107AB61EB619E
:10354000AB62EB626B65C5F88430C5F894302E62CF
:103550002E656863E8636A66EA666A6785F87810CC
:1035600085F88810002C00F0BD814FF08143BC4EDF
:10357000BC4CBD48BD4A85F8981085F8A810C5F820
:103580009C60C5F8AC40C5F8A030C5F8B030C5F8AF
:10359000A400C5F8B420AB48B54CC5F8BC00C5F8CC
:1035A000DC400020B34CB449B44BC5F87401C5F8F5
:1035B000BC41B348A74AA44EDFF808E3C5F86C1134
:1035C0000124C5F8AC11C5F870310421C5F8B0313B
:1035D000C5F8C4000723C5F8B40185F8D840A94848
:1035E00085F82841A84CC5F8C060C5F8E020C5F8AA
:1035F0003021A64EC5F82CE185F8B81085F8681181
:1036000085F8A81185F8C83085F8E83085F8F830D5
:1036100085F8083185F8783185F8883185F8983152
:1036200085F8183185F8383185F8483185F85831F2
:1036300085F8B831C5F8C001C5F8C44185F8251230
:10364000934CC5F8100293499348C5F82C22C5F84D
:103650003422C5F804621722904EC5F81842C5F806
:10366000200227241A20C5F828121921C5F8306233
:1036700085F8F8211E268A4A85F8FD4185F8FE0165
:10368000884C85F8FF110520462185F8C83185F85A
:10369000D83185F8E83185F800620023C5F80822A2
:1036A000C5F81C42632285F8240285F84812DFF829
:1036B00018C2DFF818E2C5F80CC2612665244D2057
:1036C0006921C5F814E285F8F93185F8FA3185F8F1
:1036D000FB3185F8FC3185F8013285F8023285F836
:1036E000496285F84A2285F84B4285F84C3285F8C4
:1036F000542285F84D3285F84E3285F84F3285F8E0
:10370000503285F8513285F8553285F8563285F8B1
:10371000573285F8583285F8593285F85A3285F88B
:103720005B3285F8520285F853120026F4B2214626
:103730000020FFF7E5F921460120FFF7E1F92146D6
:103740000220FFF7DDF921460320FFF7D9F9013602
:1037500021460420FFF7D4F9042EE7D1D5ED187ADD
:10376000B3EE047AF4EEC77AF1EE10FA00F11381A9
:103770009FED4D7AF4EEC77AF1EE10FA40F3F48142
:103780004A4A4B4CD5ED197A9FED4A7A4A4BF4EEF2
:10379000C77AF1EE10FA9C61DA6100F1A980B1EE0E
:1037A000047AF4EEC77AF1EE10FA00F3D081F7EE66
:1037B000006A86EEA77AF0EE477AFEEEC17A17EE3F
:1037C000902A3E495A620B78012B00F09880D5ED83
:1037D0008A7AB3EE047AF4EEC77AF1EE10FA00F1C9
:1037E000B3819FED317AF4EEC77AF1EE10FA40F32F
:1037F000DE812E4A2E4CD5ED8B7A9FED2E7A304B02
:10380000F4EEC77AF1EE10FA9C61DA6100F1C6803D
:103810005EE000BF1945FF1FA853FF1FCDCC4CC071
:103820000000D8C10000E0C0000034C2000070C237
:103830009A99B9C100002A430000A0C00000A84125
:103840000080D44400C05A468FC2753E00803B457C
:10385000CDCCCC3E8104353F0000A0C10000A0408B
:103860000000B94300007743000010C10000C0C051
:103870000000AF430080544500409C469A99193E91
:10388000000030C10000C040000040C1CDCC3C4031
:1038900066668640000004428FC2F53D0000164473
:1038A0000000D0400000104100009646008C3C4BC8
:1038B00000BE6C503333333F244EFF1F8453FF1F31
:1038C0002C4FFF1F0000FA44CDCC34403333A340CB
:1038D000B1EE047AF4EEC77AF1EE10FA40F35981B2
:1038E000D64A5CE0072385F8983085F8A83052E680
:1038F000D349D44A5A620B78012B7FF468AFD5EDD7
:103900001A7AB3EE047AF4EEC77AF1EE10FA00F107
:103910004B819FEDCD7AF4EEC77AF1EE10FA40F3C9
:10392000AB81CA4ACA4CD5ED1B7A9FEDCA7ACA4B05
:10393000F4EEC77AF1EE10FA9C61DA6100F1618170
:10394000B1EE047AF4EEC77AF1EE10FA00F35E817C
:10395000F7EE006A86EEA77AF0EE477AFEEEC17ABD
:1039600017EE902AD5ED1C7A5A62B3EE047AF4EE83
:10397000C77AF1EE10FA00F146819FEDB37AF4EECA
:10398000C77AF1EE10FA40F34381B04AB04CB34B22
:10399000D5ED1D7A1BE0B24A1446F3E6A94AD5EDEF
:1039A0008C7A5A62B3EE047AF4EEC77AF1EE10FA2A
:1039B00000F1B6809FEDA47AF4EEC77AF1EE10FA2A
:1039C00040F30A81A14AA24CA44BD5ED8D7A9FED1C
:1039D000A17A9C61F4EEC77AF1EE10FADA6100F197
:1039E0009D80B1EE047AF4EEC77AF1EE10FA40F35E
:1039F000B080924A9B485A620024D5F8203295F84C
:103A0000F81195F82462C3600094467495F8256215
:103A10000674C1F38003C1F34002934801F0010131
:103A200006F02CFC214695F8F9218F4806F052FC4F
:103A300095F8FA218C48012106F04CFC95F8FB2101
:103A40008948022106F046FC214695F8FC2186486B
:103A500006F078FC95F8FC218348012106F072FC01
:103A600095F8FD218048214602F0010206F090FC05
:103A700095F8FD217C48C2F34002012106F088FC44
:103A800095F8FD217848C2F38002022106F080FCFF
:103A900095F8FD217448C2F3C002032106F078FCBA
:103AA00095F8FD2170482146C2F3001206F084FC0F
:103AB00095F8FD216C48C2F34012012106F07CFC10
:103AC00095F8FD216848C2F38012022106F074FCCB
:103AD00095F8FD216448D209032106F06DFC2146CA
:103AE00095F8FE21604806F07DFC95F8FF215E48C0
:103AF000012106F077FC95F800225B48022106F0D0
:103B000071FC95F8F82158482146120906F07CFC12
:103B1000384602B0BDEC028BBDE8F081494A69E746
:103B20004F4A144650E7514C651CC5F10206464405
:103B300004F5177730190BF05DFA04F8010FBC4259
:103B4000F8D108F25D27F0E5454A144653E63B4AB2
:103B500037E6F7EE006A86EEA77AF0EE477AFEEED9
:103B6000C17A17EE902A45E79FED410A9FED418A01
:103B700027EE800A60EE087AFDEEE77A17EE904AAB
:103B80000EF05EFC20EE080AFDEEC07A17EE902AD9
:103B9000F8E5F7EE006A86EEA77AF0EE477AFEEED9
:103BA000C17A17EE902AFAE62D4A1446BBE69FED3D
:103BB000300A9FED308A27EE800A60EE087AFDEE2B
:103BC000E77A17EE904A0EF03BFC20EE080AFDEE75
:103BD000C07A17EE902A0EE69FED250A9FED258A02
:103BE00027EE800A60EE087AFDEEE77A17EE904A3B
:103BF0000EF026FC20EE080AFDEEC07A17EE902AA1
:103C0000E2E6104AAEE6164A1446C0E60B4AA9E6BA
:103C10009FED170A9FED178A27EE800A60EE087A5B
:103C2000FDEEE77A17EE904A0EF00AFC20EE080A45
:103C3000FDEEC07A17EE902AA9E600BFD0CCCC0CDE
:103C40008453FF1F00B76D5B00009646008C3C4B11
:103C500000BE6C503333333F2C4FFF1F1C45FF1FFA
:103C600054721500C848FF1F8C50FF1FA753FF1F39
:103C70001F4209380000004F1FED030A1FED038AA1
:103C800027EE800A60EE087AFDEEE77A17EE904A9A
:103C90000EF0D6FB20EE080AFDEEC07A17EE902A51
:103CA00041E600BF10B50F4B1C7840F25E2382B096
:103CB00003FB04F4204687238DF807300BF09AF9B4
:103CC000872805D0012221460DF107000BF0ACF941
:103CD0004FF41772611C04480BF0A6F904F25D2042
:103CE00002B010BD1945FF1FA853FF1F2DE9F04F6B
:103CF0002DED048B8DB00022B34FDFEDB49ADFEDD4
:103D0000B48A9FEDB48A9FEDB49A8DF823201346B0
:103D100005461446EA5CE81862B30DF12301AF4A88
:103D200008F05AFE0138092800F28881DFE810F017
:103D30000A010101360115014101DF0035002A00A9
:103D400014000A002F21A6480CF076FAA5480CF0C2
:103D500037FD0AF0ABFFFEE7FFF7A4FFA2490246DA
:103D6000A0480CF043FD9DF82330EA5C0124E818DC
:103D7000002AD2D1002C00F070810DB0BDEC048B74
:103D8000BDE8F08FFFF79CFB9849024695480CF080
:103D90002DFD01249DF82330BCE772B6944A137FB1
:103DA00003F0FF010BB10023137762B6002900F086
:103DB000608172B647F6FF734FF400400024B2F9F9
:103DC0001E105484D383B2F92030108462B6002BC5
:103DD00081EAE172B8BF5B42A2EBE1729342B8BFE5
:103DE000134607EE903AF8EEE77A87EEA97A17EED7
:103DF000100A11F091FE02460B467A487D490CF0FC
:103E0000F5FC72B67C4A137F03F0FF010BB100236F
:103E1000137762B6002900F01B8172B647F6FF7374
:103E20004FF400400024B2F91E105484D383B2F939
:103E30002030108462B6002B81EAE172B8BF5B4289
:103E4000A2EBE1729342B8BF134607EE903AF8EE48
:103E5000E77A87EEA97A17EE100A11F05DFE0246A6
:103E60000B46604865490CF0C1FC182164480CF011
:103E7000E3F9644B5B481B88633387FB0321DB1743
:103E8000C3EBA1110CF000FD16215F480CF0D4F932
:103E90005E4B544819780A2200230CF0B5FC162119
:103EA0005B480CF0C9F95B4B4E481B88633387FBBA
:103EB0000321DB17C3EBA1110CF0E6FC0A215648E5
:103EC0000CF0BAF9554B186811F026FE41EC100BB6
:103ED0000A2144480CF0E0FC012151480CF0ACF9F7
:103EE00040480CF06DFC01249DF8233012E70126B8
:103EF0009DF823004B4A28440DF1230108F06CFD86
:103F00000138122800F2A180DFE810F04D099F006F
:103F10003C0347030903891074101516F502E30FDB
:103F2000CD0F9E0F7C0FA2027F025402FC01160DE2
:103F3000E90C3D4A3D492B480CF058FC01249DF802
:103F40002330E7E606213A480CF076F925480CF0D4
:103F500037FC01249DF82330DCE69DF82300314A2C
:103F600028440DF1230108F037FD0138122801F231
:103F7000B284DFE810F0A60C090DFE0C180D9002BB
:103F80007C01670159014B014001360127010901FC
:103F9000E200C400AE00A300980083000223009357
:103FA000012224490F480CF021FC01249DF8233004
:103FB000B0E61E2120480CF03FF90A480CF000FC46
:103FC0000124002694E700BF8FE7545200FEFF460D
:103FD0000098B7466F12833A3333333FA0A80100ED
:103FE00014AE0100B45FFF1F08AE0100FCAD01007C
:103FF000F058FF1F80AD01009C4EFF1F90AD0100E7
:10400000A0AD0100925FFF1FBCAD0100885FFF1FE4
:10401000D4AD0100AC5FFF1FECAD0100182EFF1FF7
:10402000F8AD0100B8A70100DCA80100F0A801006C
:10403000E8A8010000A9010094AB01009DF823301D
:104040000133DBB28DF8233064E69DF8233061E65E
:10405000BA49BB48FDF7C2FB07E71121B9480CF08C
:10406000EBF8B7480CF0ACFB0DB0BDEC048BBDE831
:10407000F08FB549B248FDF7B1FBC2E6B34B93ED03
:10408000887AF2EE047A67EE277A012417EE900A16
:1040900011F042FD0B460246AD49A9480CF0A6FBC3
:1040A0009DF8233036E6A94BAA4993F82522A44867
:1040B0000CF09CFB01249DF823302BE6A34BA64972
:1040C00093F824229E480CF091FB01249DF82330A4
:1040D00020E69DF823000DF12301284408F0B4FBED
:1040E00051EC100B12F044F8C4B2012C43D19B4A9E
:1040F0009B4993480CF07AFB9DF823300AE69DF823
:1041000023000DF12301284408F09EFB51EC100B15
:1041100012F02EF88D4BC6B203EB86030124D3F8C0
:10412000180211F0F9FC3246CDE900018D498448AE
:104130000CF05CFB9DF82330ECE59DF823000DF1BD
:104140002301284408F080FB51EC100B12F010F80A
:104150007E4BC6B203EB86030124D3F80C0211F0A8
:10416000DBFC3246CDE900017F4975480CF03EFB8F
:104170009DF82330CEE57D4A7D4971480CF036FB31
:1041800001249DF82330C5E59DF823000DF123019E
:10419000284408F059FB51EC100B11F0E9FF6B4B70
:1041A000C6B203EB86030124D3F8040211F0B4FC79
:1041B0003246CDE900016F4961480CF017FB9DF8CC
:1041C0002330A7E5614BD3F8140211F0A5FC0B4690
:1041D000024669495A480CF009FB01249DF8233036
:1041E00098E5664B66491A7855480CF0FFFA0124A9
:1041F0009DF823308EE5634A6349936850485268BE
:104200000CF0F4FA01249DF8233083E54F4B986DB0
:1042100011F082FC0B4602465C4949480CF0E6FA74
:1042200001249DF8233075E5484BD86D11F074FCDE
:104230000B460246564942480CF0D8FA01249DF834
:10424000233067E59DF82300524A28440DF12301ED
:1042500008F0C2FB0138062801F2BD82DFE810F049
:10426000A20A8C0A7E0AD80ABF0A46003A009DF8C4
:1042700023000DF12301284408F0E6FA51EC100B5D
:1042800011F076FFC4B2224643492D480CF0AEFA35
:104290009DF82300414A0DF12301284408F09CFBBE
:1042A000022801F0DF82032841F0C082274B03EB94
:1042B000C403022C94BF586ED3F8140211F02CFCE6
:1042C0000B46024636491E480CF090FA01249DF830
:1042D00023301FE51D4B334993F8F8211848120984
:1042E0000CF084FA01249DF8233013E5174B2E4976
:1042F00093F8FD21124812090CF078FA01249DF878
:10430000233007E59DF82300104C0DF123012844CC
:1043100008F09AFA51EC100B11F02AFFC2B284F89F
:1043200024222EB1214906480CF060FA94F8242288
:104330001F499DF823300A740124EBE498AD010075
:10434000B45FFF1F44AE010088AD0100A853FF1FFA
:1043500080AB01006CAB010058AB0100F055FF1FB2
:1043600038AB010024AB010010AB0100FA55FF1F70
:1043700048AB0100FCAA0100E8AA01001945FF1F93
:10438000D8AA0100684FFF1FC4AA0100B0AA01000B
:104390009CAA010058A80100D0A9010058AF010053
:1043A000E8A9010084AA01006CAA010044AD010043
:1043B000C848FF1F9DF823000DF12301284408F091
:1043C00043FA51EC100B11F0D3FE9DF82320531C3F
:1043D000DCB2C0B28DF8234001282B5D05EB04014F
:1043E00041F0CA851F2B41F2B7850932D2B223466C
:1043F0000133DBB2E81815F803E0BEF11F0F41F2FC
:10440000AC859342F4D101F0A8BD9DF823000DF1D5
:104410002301284408F018FA51EC100B11F0A8FE03
:104420009DF82330C4B20DF12301E81808F00CFA0E
:1044300051EC100B11F0BCFEBD4B03EB8403C3F831
:104440001802002E41F0B6859DF82330012461E466
:104450009DF823000DF12301284408F0F5F951ECF3
:10446000100B11F085FE9DF82330C4B20DF123012D
:10447000E81808F0E9F951EC100B11F099FEAC4B7B
:1044800003EB8403C3F80C02002E41F0B4829DF8C4
:10449000233001243EE49DF823000DF1230128443C
:1044A00008F0D2F951EC100B11F062FE9DF82330A8
:1044B000C6B20DF12301E81808F0C6F951EC100B53
:1044C00011F056FEC4B2324623469A499A480CF07F
:1044D0008DF99DF82300994A0DF12301284408F035
:1044E0007BFA0138032802F27E84DFE810F07613AD
:1044F0000B146D1367139DF823000DF1230128445D
:1045000008F0A2F951EC100B11F052FE884B98659F
:10451000002E6FD19DF823300124FFF7FBBB9DF8DF
:1045200023000DF12301284408F08EF951EC100B03
:1045300011F01EFE9DF823300DF123015FFA80FA81
:10454000E81808F081F951EC100B11F011FE5FFA38
:1045500080F92EB14B465246794977480CF046F91E
:104560009DF82300754A28440DF1230108F034FA20
:104570000138032800F2D782DFE810F0C6027A0182
:104580006A011F066F4B70491A786B480CF02EF9C0
:1045900001249DF82330FFF7BDBB9DF823000DF1EA
:1045A0002301284408F050F951EC100B11F0E0FD04
:1045B000C4B226B1224665495F480CF017F99DF850
:1045C0002300634A28440DF1230108F005FA01286D
:1045D00000F00386022840F02F81072C00F215819D
:1045E000DFE814F0F600D900BC0089006C004F0031
:1045F0003200150011F090FA0B46024655494E481C
:104600000CF0F4F801249DF82330FFF783BB9DF8EC
:1046100023000DF12301284408F016F951EC100B8A
:1046200011F0C6FD424B58653EB111F075FA0246D5
:104630000B46414848490CF0D9F8FEF769FE0124C1
:104640009DF82330FFF766BB9DF823000DF1230191
:10465000284408F0F9F851EC100B11F0A9FD344B87
:10466000D8643EB111F058FA02460B4632483A4936
:104670000CF0BCF8FEF714FE01249DF82330FFF780
:1046800049BB9DF823000DF12301284408F0DCF814
:1046900051EC100B11F08CFD254B58643EB111F01C
:1046A0003BFA02460B4624482B490CF09FF8FEF7D4
:1046B000C1FD01249DF82330FFF72CBB9DF823009A
:1046C0000DF12301284408F0BFF851EC100B11F054
:1046D0006FFD174BD8633EB111F01EFA02460B4630
:1046E00015481D490CF082F8FEF7D2FB01249DF815
:1046F0002330FFF70FBB9DF823000DF12301284461
:1047000008F0A2F851EC100B11F052FD084B586361
:104710003EB111F001FA02460B4607480E490CF073
:1047200065F8FEF7E1FC01249DF82330FFF7F2BAAB
:10473000A853FF1F88A90100B45FFF1F58AF0100F5
:10474000C4AB01001C2EFF1F48A90100B4AB01003F
:1047500098A801009CAC010074A901009DF82300F9
:104760000DF12301284408F06FF851EC100B11F003
:104770001FFDC64BD8623EB111F0CEF902460B4682
:10478000C348C4490CF032F8FEF7AEFC01249DF892
:104790002330FFF7BFBA9DF823000DF12301284411
:1047A00008F052F851EC100B11F002FDB74B5862B3
:1047B0003EB111F0B1F902460B46B548B5490CF0CF
:1047C00015F8FEF7E9FB01249DF82330FFF7A2BAA4
:1047D0009DF823000DF12301284408F035F851EC31
:1047E000100B11F0E5FCA94BD8613EB111F094F922
:1047F00002460B46A648A7490BF0F8FFFEF7CCFB94
:1048000001249DF82330FFF785BA072C00F2F284CB
:1048100001A353F824F000BFFD470000C347000088
:104820008947000023470000E9460000AF4600002A
:10483000754600003B460000072CE6D8DFE814F080
:104840005F0730070107D206A30674064506160661
:104850009DF823008D4C0DF123012844BAF1030F7C
:1048600000F24781DFE81AF03A011E010701120049
:104870009DF82300854C0DF123012844BAF1030F64
:1048800000F2CB80DFE80AF0AD785B3607F0DCFFA2
:1048900051EC100B11F08CFC07EE900A09F1120399
:1048A000F4EEC87A04EB0312F1EE10FAC2ED007ACE
:1048B00016D582ED008A56B104EB0313186811F087
:1048C0002BF902460B46724873490BF08FFF49469D
:1048D0005046FEF715F901249DF82330FFF71ABA68
:1048E0009FED6F7AF4EEC77AF1EE10FAC8BF82ED51
:1048F000007AE0E707F0A8FF51EC100B11F058FC2C
:1049000007EE900A4FEA0918B2EE047A04EB0803A6
:10491000F4EEC77AF1EE10FAC3F81C0149D583ED25
:10492000477A002ED3D04444D4F81C0111F0F4F897
:1049300002460B46564859490BF058FFC7E707F0A7
:1049400083FF51EC100B11F033FC07EE900A4FEA95
:104950000918B2EE047A04EB0803F4EEC77AF1EE1C
:1049600010FAC3F86C012CD583ED5B7A002EAED023
:104970004444D4F86C01D9E707F066FF51EC100B02
:1049800011F016FC07EE900A4FEA0918B2EE047A0D
:1049900004EB0803F4EEC77AF1EE10FAC3F8CC008A
:1049A00017D583ED337A002E91D04444D4F8CC004F
:1049B000BCE7F4EEE87AF1EE10FAC8BFC3ED478A1F
:1049C000AFE7F4EEE87AF1EE10FAC8BFC3ED5B8A08
:1049D000CCE7F4EEE87AF1EE10FAC8BFC3ED338A03
:1049E000E1E707F031FF51EC100B11F0E1FB07EEAE
:1049F000900A4FEA0918B2EE047A04EB0803F4EEC9
:104A0000C77AF1EE10FAD86725D583ED1F7A002E0C
:104A10003FF45DAF4444E06F88E707F015FF51ECC9
:104A2000100B11F0C5FB07EE900A4FEA0918B2EE21
:104A3000047A04EB0803F4EEC77AF1EE10FAC3F837
:104A4000BC0110D583ED6F7A002E3FF440AF444493
:104A5000D4F8BC016AE7F4EEE87AF1EE10FAC8BFC8
:104A6000C3ED1F8AD3E7F4EEE87AF1EE10FAC8BF7F
:104A7000C3ED6F8AE8E707F0E7FE51EC100B11F089
:104A800097FB09F1170307EE900A09E7A853FF1FE8
:104A9000B45FFF1F74A90100ACA90100A4A9010023
:104AA0008941624107F0D0FE51EC100B11F080FB00
:104AB00007EE900A09F10D0304EB0312F4EEC87A35
:104AC000F1EE10FA10603FF5F4AE1FED0B7AF4EE44
:104AD000C77AF1EE10FA7FF7EEAEEAE607F0B4FE21
:104AE00051EC100B11F064FB09F1080307EE900A7A
:104AF000D6E607F0A9FE51EC100B11F059FB09F1B5
:104B00001C0307EE900ACBE69DF823000DF123016C
:104B10002844BAF1030F00F23583DFE81AF02203CC
:104B20001103000314009DF82300A34C28440DF149
:104B30002301BAF1030F00F25D82DFE81AF04901A8
:104B4000D501AF00190007F07FFE51EC100B11F0FA
:104B50000FFB994B03EB091300F0070283F81821B0
:104B6000002E3FF4B4AE954995480BF03FFEAEE6FB
:104B700007F06AFE51EC100B11F0FAFA4FEA09182F
:104B80009DF8232004EB080B00F007038BF8183185
:104B9000A8180DF1230107F057FE51EC100B11F08E
:104BA00007FB9DF82330CBF81C010DF12301E81819
:104BB00007F04AFE51EC100B11F0FAFA09F112035A
:104BC00004EB03129DF823E010600DF1230105EBC7
:104BD0000E000793069207F037FE51EC100B11F010
:104BE000E7FA9BED477A069A079B5060F2EE046A5B
:104BF000B4EEE67AF1EE10FA07EE900A3CD5CBED72
:104C0000476A04EB0312D2ED006AF4EEC86AF1EED3
:104C100010FA39D582ED008A9FED6B7AF4EEC77AEF
:104C2000F1EE10FA06D4B2EE047AF4EEC77AF1EEA1
:104C300010FA03DD04EB031282ED017A002E3FF43B
:104C400046AE04EB03164444706894F8188110F0E3
:104C500063FFCDE90401306810F05EFFCDE9020189
:104C6000D4F81C0110F058FF4246CDE90001554927
:104C700053480BF0BBFD2AE6B4EEE87AF1EE10FAE9
:104C8000C8BFCBED478ABCE79FED507AF4EEC76A08
:104C9000F1EE10FAC8BF82ED007ABDE707F0D4FD4F
:104CA00051EC100B11F064FA4FEA09189DF823201B
:104CB00004EB080B00F007038BF86831A8180DF11E
:104CC000230107F0C1FD51EC100B11F071FA9DF8B2
:104CD0002330CBF86C010DF12301E81807F0B4FD87
:104CE00051EC100B11F064FA09F1170304EB0312F5
:104CF0009DF823E010600DF1230105EB0E000793F2
:104D0000069207F0A1FD51EC100B11F051FA9BED4A
:104D10005B7A069A079B5060F2EE046AB4EEE67A7C
:104D2000F1EE10FA07EE900A3DD5CBED5B6A04EB8D
:104D30000312D2ED006AF4EEC86AF1EE10FA28D53B
:104D400082ED008A9FED207AF4EEC77AF1EE10FA38
:104D500006D4B2EE047AF4EEC77AF1EE10FA03DD6F
:104D600004EB031282ED017A002E3FF4B0AD04EBA8
:104D700003164444706894F8688110F0CDFECDE9C4
:104D80000401306810F0C8FECDE90201D4F86C01CE
:104D900068E79FED0E7AF4EEC76AF1EE10FAC8BF2D
:104DA00082ED007ACEE7B4EEE87AF1EE10FAC8BFF1
:104DB000CBED5B8ABBE700BFA853FF1F9CA9010096
:104DC000B45FFF1FBCA901000000A0C2894162417D
:104DD00007F03AFD51EC100B11F0CAF94FEA09182F
:104DE0009DF8232004EB080B00F007038BF87830C4
:104DF000A8180DF1230107F027FD51EC100B11F05D
:104E0000D7F99DF82330CBF87C000DF12301E81889
:104E100007F01AFD51EC100B11F0CAF909F1080363
:104E200004EB03129DF823E010600DF1230105EB64
:104E30000E000793069207F007FD51EC100B11F0DE
:104E4000B7F99BED1F7A069A079B5060F2EE046A51
:104E5000B4EEE67AF1EE10FA07EE900A3CD5CBED0F
:104E60001F6A04EB0312D2ED006AF4EEC86AF1EE99
:104E700010FA27D582ED008A1FED2D7AF4EEC77A5D
:104E8000F1EE10FA06D4B2EE047AF4EEC77AF1EE3F
:104E900010FA03DD04EB031282ED017A002E3FF4D9
:104EA00016AD04EB03164444706894F8788010F053
:104EB00033FECDE90401306810F02EFECDE9020189
:104EC000E06FCFE61FED3F7AF4EEC76AF1EE10FA1D
:104ED000C8BF82ED007ACFE7B4EEE87AF1EE10FABF
:104EE000C8BFCBED1F8ABCE707F0AEFC51EC100B3E
:104EF00011F03EF94FEA09189DF8232004EB080B46
:104F000000F007038BF8C830A8180DF1230107F053
:104F10009BFC51EC100B11F04BF99DF82330CBF8B2
:104F2000CC000DF12301E81807F08EFC51EC100BBA
:104F300011F03EF909F10D0304EB03129DF823E093
:104F400010600DF1230105EB0E000793069207F0A8
:104F50007BFC51EC100B11F02BF99BED337A069A88
:104F6000079B5060F2EE046AB4EEE67AF1EE10FAB6
:104F700007EE900A40F1C380CBED336A04EB0312D5
:104F8000D2ED006AF4EEC86AF1EE10FA28D582ED8F
:104F9000008A1FED737AF4EEC77AF1EE10FA06D4A8
:104FA000B2EE047AF4EEC77AF1EE10FA03DD04EB08
:104FB000031282ED017A002E3FF489AC04EB031654
:104FC0004444706894F8C88010F0A6FDCDE904014F
:104FD000306810F0A1FDCDE90201D4F8CC0041E623
:104FE0001FED867AF4EEC76AF1EE10FAC8BF82EDC3
:104FF000007ACEE707F028FC51EC100B11F0B8F85E
:105000004FEA09189DF8232004EB080B00F0070372
:105010008BF8B831A8180DF1230107F015FC51ECFD
:10502000100B11F0C5F89DF82330CBF8BC010DF141
:105030002301E81807F008FC51EC100B11F0B8F848
:1050400009F11C0304EB03129DF823E010600DF13D
:10505000230105EB0E000793069207F0F5FB51ECD8
:10506000100B11F0A5F89BED6F7A069A079B506024
:10507000F2EE046AB4EEE67AF1EE10FA07EE900A68
:1050800045D5CBED6F6A04EB0312D2ED006AF4EE66
:10509000C86AF1EE10FA28D582ED008A1FEDB67AC3
:1050A000F4EEC77AF1EE10FA06D4B2EE047AF4EE1A
:1050B000C77AF1EE10FA03DD04EB031282ED017AF8
:1050C000002E3FF404AC04EB03164444706894F8DB
:1050D000B88110F021FDCDE90401306810F01CFD0D
:1050E000CDE90201D4F8BC01BCE51FEDC87AF4EEAD
:1050F000C76AF1EE10FAC8BF82ED007ACEE7B4EECF
:10510000E87AF1EE10FAC8BFCBED338A36E7B4EE99
:10511000E87AF1EE10FAC8BFCBED6F8AB3E707F07B
:1051200093FB51EC100B11F023F8CA4B03EB09135E
:1051300000F0070283F86821002E3FF4C8AB12E5A7
:1051400007F082FB51EC100B11F012F8C14B03EB8E
:10515000091300F0070283F8C820002E3FF4B7AB14
:1051600001E507F071FB51EC100B11F001F8B94BA0
:1051700003EB091300F0070283F87820002E3FF4B8
:10518000A6ABF0E407F060FB51EC100B10F0F0FF61
:10519000B04B03EB091300F0070283F8B821002E8F
:1051A0003FF495ABDFE47F22AB49AC480BF01EFB2C
:1051B00001249DF82330FEF7ADBD9DF82300A54CDA
:1051C0000DF123012844BAF1030F00F23781DFE823
:1051D0001AF02A011F0114011600072C3FF615AB27
:1051E000DFE814F0F100D700BD00A30089006F00D4
:1051F00055003B009DF823300124FEF78BBD07F0DE
:1052000023FB51EC100B10F0D3FF07EE900A09F1CD
:1052100012039FED937AF4EEC77A04EB0312F1EEDA
:1052200010FAC2ED017A06D4B2EE047AF4EEC77A2F
:10523000F1EE10FA01DD82ED017A002E3FF447AB6A
:1052400004EB0313586810F067FC02460B468348D2
:1052500084490BF0CBFAFFF73ABB9DF823000DF120
:105260002301284407F0F0FA51EC100B10F0A0FFD6
:10527000784B1865002E3FF4E0A910F04DFC024673
:105280000B46764878490BF0B1FAFFF7D6B99DF88E
:1052900023000DF12301284407F0D6FA51EC100B3E
:1052A00010F086FF6B4B9864002E3FF4E3A910F0DA
:1052B00033FC02460B4669486B490BF097FAFFF73F
:1052C000D9B99DF823000DF12301284407F0BCFA59
:1052D00051EC100B10F06CFF5E4B1864002E3FF485
:1052E000E6A910F019FC02460B465C485E490BF03B
:1052F0007DFAFFF7DCB99DF823000DF12301284466
:1053000007F0A2FA51EC100B10F052FF514B9863CA
:10531000002E3FF4E9A910F0FFFB02460B464F4870
:1053200051490BF063FAFFF7DFB99DF823000DF147
:105330002301284407F088FA51EC100B10F038FFD5
:10534000444B1863002E3FF4ECA910F0E5FB024635
:105350000B46424844490BF049FAFFF7E2B99DF881
:1053600023000DF12301284407F06EFA51EC100BD5
:1053700010F01EFF374B9862002E3FF405AA10F084
:10538000CBFB02460B46354837490BF02FFAFFF7A7
:10539000FBB99DF823000DF12301284407F054FACE
:1053A00051EC100B10F004FF2A4B1862002E3FF452
:1053B00008AA10F0B1FB02460B4628482A490BF018
:1053C00015FAFFF7FEB99DF823000DF123012844DB
:1053D00007F03AFA51EC100B10F0EAFE1D4B986101
:1053E000002E3FF40BAA10F097FB02460B461B4819
:1053F0001D490BF0FBF9FFF701BA07F025FA51EC54
:10540000100B10F0D5FE09F1170307EE900A00E724
:1054100007F01AFA51EC100B10F0CAFE09F10D0357
:1054200007EE900AF5E607F00FFA51EC100B10F0BA
:10543000BFFE09F1080307EE900AEAE607F004FA56
:1054400051EC100B10F0B4FE09F11C0307EE900AAA
:10545000DFE600BFA853FF1F10A90100B45FFF1FC4
:105460000000A0C2B4A901006CA901009DF82300AE
:10547000C74C28440DF1230107F0E6F951EC100B5D
:1054800010F096FE9DF8233020650DF12301E818F9
:1054900007F0DAF951EC100B10F08AFE80466065D7
:1054A000002E3FF4CAA8206D10F036FB824640461D
:1054B0008B4610F031FB5246CDE900015B46B54901
:1054C000B5480BF093F9FFF7B8B89DF82300B04C3E
:1054D00028440DF1230107F0B7F951EC100B10F03F
:1054E00067FE9DF82330A0640DF12301E81807F052
:1054F000ABF951EC100B10F05BFE8046E064002E1F
:105500003FF4B8A8A06C10F007FB824640468B46DB
:1055100010F002FB5246CDE900015B469D499E48D2
:105520000BF064F9FFF7A6B89DF82300984C2844C7
:105530000DF1230107F088F951EC100B10F038FE43
:105540009DF8233020640DF12301E81807F07CF961
:1055500051EC100B10F02CFE80466064002E3FF4DE
:10556000A6A8206C10F0D8FA824640468B4610F070
:10557000D3FA5246CDE900015B46864986480BF0D6
:1055800035F9FFF794B89DF82300814C28440DF1BC
:10559000230107F059F951EC100B10F009FE9DF8AA
:1055A0002330A0630DF12301E81807F04DF951EC09
:1055B000100B10F0FDFD8046E063002E3FF494A830
:1055C000A06B10F0A9FA824640468B4610F0A4FA70
:1055D0005246CDE900015B466E496F480BF006F973
:1055E000FFF782B89DF82300694C28440DF1230190
:1055F00007F02AF951EC100B10F0DAFD9DF823307A
:1056000020630DF12301E81807F01EF951EC100B8F
:1056100010F0CEFD80466063002E3FF482A8206B20
:1056200010F07AFA824640468B4610F075FA5246E0
:10563000CDE900015B46574957480BF0D7F8FFF713
:1056400070B89DF82300524C28440DF1230107F057
:10565000FBF851EC100B10F0ABFD9DF82330A0626D
:105660000DF12301E81807F0EFF851EC100B10F0E2
:105670009FFD8046E062002E3FF486A8A06A10F0ED
:105680004BFA824640468B4610F046FA5246CDE928
:1056900000015B463F4940480BF0A8F8FFF774B89B
:1056A0009DF823003A4C28440DF1230107F0CCF873
:1056B00051EC100B10F07CFD9DF8233020620DF1B1
:1056C0002301E81807F0C0F851EC100B10F070FD42
:1056D00080466062002E3FF474A8206A10F01CFA25
:1056E000824640468B4610F017FA5246CDE900013B
:1056F0005B46284928480BF079F8FFF762B89DF817
:105700002300234C28440DF1230107F09DF851ECB0
:10571000100B10F04DFD9DF82330A0610DF1230119
:10572000E81807F091F851EC100B10F041FD80469D
:10573000E061002E3FF462A8A06910F0EDF9824606
:1057400040468B4610F0E8F95246CDE900015B4631
:10575000104911480BF04AF8FFF750B80C4B0F49AD
:1057600093F8F8210C4802F00F020BF03FF80124E7
:105770009DF82330FEF7CEBA054B094993F8FC217A
:1057800005480BF033F801249DF82330FEF7C2BA28
:10579000A853FF1F7CA90100B45FFF1F2CAA0100C2
:1057A00014AA01009DF823000DF12301284407F0FD
:1057B0004BF851EC100B10F0DBFCC34BC349C2B2E9
:1057C0001344C34893F8F9310BF010F801249DF805
:1057D0002330FEF79FBA9DF82330FEF79BBA9DF861
:1057E00023000DF12301284407F02EF851EC100B93
:1057F00010F0BEFCB44BB749C2B21344B44893F89E
:10580000FE310AF0F3FF01249DF82330FEF782BA3F
:10581000AD4BB14993F8FD21AD4802F00F020AF0FB
:10582000E5FF01249DF82330FEF774BA022C2ED830
:10583000A54A04F10C0302EBC3060124306810F002
:105840006BF980467068894610F066F94B46CDE9E1
:1058500000014246A1499E480AF0C8FF9DF8233046
:10586000FEF758BA984B03EBC403022C94BF186E92
:10587000D3F8100210F050F90B46024698499448AC
:105880000AF0B4FF01249DF82330FEF743BA8E4E90
:1058900004F1420306EBC3060124306810F03CF922
:1058A00080467068894610F037F94B46CDE9000113
:1058B00042468A4986480AF099FF9DF82330FEF750
:1058C00029BA7F22874982480AF090FF01249DF877
:1058D0002330FEF71FBA9DF82330FEF71BBA9DF860
:1058E0002300794C0DF12301284406F0ADFF00227E
:1058F0007D4B51EC100B10F08DFA10F059FC07EEB7
:10590000900AC4F820027EB1B2EE047A67EE877A7C
:1059100017EE900A10F000F902460B466C487349E6
:105920000AF064FFD4ED887A714A9DF82330C2ED05
:10593000037A0124FEF7EEB99DF82300624C0DF1C5
:105940002301284406F080FF51EC100B10F010FCEE
:10595000C2B284F825222EB166495D480AF046FF9E
:1059600094F8252262499DF823304A740124FEF7F9
:10597000D1B9614B61491A7855480AF037FF0124C3
:105980009DF82330FEF7C6B904225D4950480AF05D
:105990002DFF08225B494E480AF028FF01249DF89C
:1059A0002330FEF7B7B99DF823000DF123012844F9
:1059B00006F04AFF51EC100B10F0DAFBC4B222469D
:1059C000514943480AF012FF9DF823004F4A0DF158
:1059D0002301284407F000F8012800F0CD800228B8
:1059E00040F0BD80072C00F2B580DFE804F0A495FC
:1059F0005D4E3F30211210F08FF82246CDE90001B4
:105A0000434933480AF0F2FE01249DF82330FEF7A3
:105A100081B92D4B586D10F07FF80B4602463D4979
:105A20002B480AF0E3FE01249DF82330FEF772B9FB
:105A3000254BD86C10F070F80B46024635492448C7
:105A40000AF0D4FE01249DF82330FEF763B91E4B03
:105A5000586C10F061F80B4602462E491C480AF0BB
:105A6000C5FE01249DF82330FEF754B9164BD86BC0
:105A700010F052F80B460246264915480AF0B6FEC9
:105A800001249DF82330FEF745B90F4B586B10F0F9
:105A900043F80B4602461F490D480AF0A7FE0124B1
:105AA0009DF82330FEF736B9074BD86A10F034F86A
:105AB0000B460246174906480AF098FE01249DF855
:105AC0002330FEF727B900BFA853FF1FFCA9010030
:105AD000B45FFF1F54AA010040AA0100F0A9010011
:105AE000E0A9010010A90100000024406CAD0100F4
:105AF000C848FF1F58AD01001C2EFF1F48A9010018
:105B000020A9010034A901005CA9010098A80100A6
:105B1000FCAC010074A90100B54B586A0FF0FCFF02
:105B20000B460246B349B4480AF060FE01249DF8D2
:105B30002330FEF7EFB8AE4BD8690FF0EDFF0B4600
:105B40000246AC49AC480AF051FE01249DF82330CE
:105B5000FEF7E0B89DF823300124FEF7DBB8072CF0
:105B600000F24081DFE814F028011201FC00E60099
:105B7000D000BA00A4001100072C00F29480DFE8E6
:105B800004F0837465564738291A994C206D0FF03C
:105B9000C3FF8046606D89460FF0BEFF4B46CDE9DE
:105BA00000014246954994480AF020FE01249DF8E0
:105BB0002330FEF7AFB88E4B186D0FF0ADFF0B46DC
:105BC00002468F498C480AF011FE01249DF82330CB
:105BD000FEF7A0B8864B986C0FF09EFF0B4602466E
:105BE000874985480AF002FE01249DF82330FEF71C
:105BF00091B87F4B186C0FF08FFF0B46024680491F
:105C00007D480AF0F3FD01249DF82330FEF782B8A9
:105C1000774B986B0FF080FF0B4602467849764829
:105C20000AF0E4FD01249DF82330FEF773B8704BB1
:105C3000186B0FF071FF0B46024671496E480AF06F
:105C4000D5FD01249DF82330FEF764B8684B986AAF
:105C50000FF062FF0B460246694967480AF0C6FD2D
:105C600001249DF82330FEF755B8614B186A0FF0F8
:105C700053FF0B46024662495F480AF0B7FD012414
:105C80009DF82330FEF746B8594B98690FF044FF52
:105C90000B4602465A4958480AF0A8FD01249DF8CF
:105CA0002330FEF737B89DF823300124FEF732B8D1
:105CB0004F4CA06C0FF030FF8046E06C89460FF02F
:105CC0002BFF4B46CDE9000142464C494A480AF0B9
:105CD0008DFD01249DF82330FEF71CB8444C206C48
:105CE0000FF01AFF8046606C89460FF015FF4B4697
:105CF000CDE90001424641493F480AF077FD0124C1
:105D00009DF82330FEF706B8394CA06B0FF004FF66
:105D10008046E06B89460FF0FFFE4B46CDE900015F
:105D20004246364934480AF061FD01249DF823308B
:105D3000FDF7F0BF2E4C206B0FF0EEFE8046606B3F
:105D400089460FF0E9FE4B46CDE9000142462B495A
:105D500029480AF04BFD01249DF82330FDF7DABFF6
:105D6000234CA06A0FF0D8FE8046E06A89460FF007
:105D7000D3FE4B46CDE90001424620491E480AF0B9
:105D800035FD01249DF82330FDF7C4BF184C206A6F
:105D90000FF0C2FE8046606A89460FF0BDFE4B469A
:105DA000CDE900014246154913480AF01FFD0124C0
:105DB0009DF82330FDF7AEBF0D4CA0690FF0ACFE8F
:105DC0008046E06989460FF0A7FE4B46CDE9000109
:105DD00042460A4908480AF009FD01249DF823308B
:105DE000FDF798BF9DF823300124FDF793BF00BF56
:105DF000A853FF1F74A90100B45FFF1F7CA9010015
:105E00006CA901009DF823000DF12301284406F040
:105E10001BFD51EC100B10F0ABF99DF82330C4B210
:105E20000DF12301E81806F00FFD51EC100B10F0F6
:105E3000BFF9BA4B03EB8403C3F80402C6B99DF85B
:105E400023300124FDF766BF9DF823000DF12301E7
:105E5000284406F0F9FC51EC100B10F0A9F9AF4BF7
:105E6000C3F8140296B99DF823300124FDF752BF00
:105E70000FF052FE2246CDE90001A949A9480AF0D7
:105E8000B5FC01249DF82330FDF744BF0FF044FE1C
:105E90000B460246A449A3480AF0A8FC01249DF839
:105EA0002330FDF737BF9DF82300A04C0DF12301EF
:105EB000284406F0C9FC51EC100B10F059F9207081
:105EC000FDF7FEFA002E3DD19DF823300124FDF7A9
:105ED00021BF974C9DF8230063680DF123012844EE
:105EE0006BBB06F07DFC60609DF82300A368DFF8C3
:105EF00040820DF123012844F3B906F0A5FC51ECD2
:105F0000100B10F035F9C8F808002EB1A3686268CC
:105F1000884984480AF06AFC94E8070009AB83E8E2
:105F2000070018460C2240F6F17109F07DF80124B3
:105F30009DF82330FDF7EEBE06F086FCE5E706F09F
:105F40004FFCD1E722787C4976480AF04FFC0124C7
:105F50009DF82330FDF7DEBE084600230370774826
:105F600011F0BAF8A6BB234675490A7842F00F0231
:105F70000A700124FDF7CEBE1F2B31D90932D2B2EF
:105F800023460133DBB2E81815F803E0BEF11F0F1A
:105F900001D99A42F5D1002303706A4811F09CF8A8
:105FA00006BB234666490A7842F00F020A700124B4
:105FB000FDF7B0BE0FF0B0FD2246CDE90001624909
:105FC00058480AF013FC01249DF82330FDF7A2BEC7
:105FD0005A4A5E4953480AF009FC9DF82330C3E74A
:105FE0000846D8E7574A5A494E480AF0FFFB9DF841
:105FF0002330D7E79DF82300564A28440DF12301AA
:1060000006F0EAFC0138062800F29185DFE810F07E
:1060100060053D050D05CA049B04AE005C009DF8BB
:1060200023000DF12301284406F00EFC51EC100B67
:1060300010F09EF85FFA80F826B14246464939488A
:106040000AF0D4FB9DF82300444A28440DF12301B3
:1060500006F0C2FC022800F05B82032840F0EC81CD
:106060009DF823002D4CB8F1020F0DF123012844B7
:1060700000F2288106F0E8FB51EC100B10F098F8C4
:1060800007EE100A08F10C0904EBC903B4EEC87A54
:10609000F1EE10FA586040F10381B8F1010F83ED81
:1060A000018A00F0D480B8F1020F40F0CC802C4B74
:1060B0001B78012B00F0AB80002E40F097809DF8FC
:1060C00023300124FDF726BEDFF850809DF8230021
:1060D00098F8F8210DF12301284402F00F0406F08E
:1060E000B3FB51EC100B10F043F800F00F0044EA42
:1060F000001288F8F82136B112091A4909480AF045
:1061000075FB98F8F82118481209002104F07CF971
:1061100001249DF82330FDF7FDBD00BFA853FF1FEC
:10612000E8AC0100B45FFF1FD4AC01001945FF1FAC
:10613000684FFF1FB0AC0100C4AC0100F055FF1F59
:106140001845FF1FFA55FF1F10AD010024AD0100D7
:1061500034AD010058A80100D8AB010058AF0100D0
:106160008453FF1F70AC01008C50FF1FA34C9DF89F
:10617000230094F8FD210DF12301284402F00F08BB
:1061800006F062FB51EC100B0FF0F2FF00F00F0075
:1061900048EA001284F8FD2136B11209984999485D
:1061A0000AF024FB94F8FD219748C2F30012002165
:1061B00004F002F994F8FD219348C2F34012012142
:1061C00004F0FAF894F8FD218F48C2F380120221FE
:1061D00004F0F2F894F8FD218B48D209032104F071
:1061E000EBF801249DF82330FDF794BD04EBC909B9
:1061F0000124D9F804000FF08FFC0B4602468349B6
:1062000080480AF0F3FA9DF82330FDF783BD804BF8
:1062100093ED007AB4EEC97AF1EE10FA3AD4F1EEC9
:10622000047AB4EEE77AF1EE10FA31DCF7EE006AA8
:10623000C6EE877AB0EE677ABEEEC17A17EE103AF4
:10624000744A536238E7744B744A536234E7744BB0
:106250001B78012B7FF430AF724B93ED007AB4EED4
:10626000C97AF1EE10FA19D4F1EE047AB4EEE77AB5
:10627000F1EE10FA10DCF7EE006AC6EE877AB0EEA7
:10628000677ABEEEC17A17EE103A674A536213E797
:10629000664BD5E7604BD3E7644BF6E75E4BF4E71C
:1062A000DFED637AB4EEE77AF1EE10FA2ADDB8F1A9
:1062B000010FC3ED017ACAD0B8F1020F3FF4F7AE77
:1062C0005A4BC1E706F0C0FA51EC100B0FF070FF0B
:1062D00007EE900A08F1420304EBC303F4EEC87A18
:1062E000F1EE10FA5860A8F103025AD583ED018A45
:1062F0004B4B1B78022B34D016BB9DF82330012466
:10630000FDF708BDB8F1010FA1D0B8F1020F3FF4BD
:10631000CEAEB4EEC97AF1EE10FA94D4F1EE047A6E
:10632000B4EEE77AF1EE10FACADCF7EE006AC6EED8
:10633000877AB0EE677ABEEEC17A17EE103A83E73D
:1063400004EBC2030124D3F82C020FF0E5FB0B464B
:1063500002462E492B480AF049FA9DF82330FDF7F2
:10636000D9BCB8F1030F2AD004EBC80898ED8B7A9A
:10637000B4EEC97AF1EE10FA1FD4F1EE047AB4EE5D
:10638000E77AF1EE10FA16DCF7EE006AC6EE877ACD
:10639000B0EE677ABEEEC17A17EE103A1D494B6235
:1063A000AAE79FED237AF4EEC77AF1EE10FAC8BFA0
:1063B00083ED017A9CE71D4BF0E7174BEEE71D4B91
:1063C00093ED007AB4EEC97AF1EE10FA00F13B8257
:1063D000F1EE047AB4EEE77AF1EE10FA00F33182CE
:1063E000F7EE006AC6EE877AB0EE677ABEEEC17A43
:1063F00017EE103A0C494B627EE700BFA853FF1F0F
:1064000058AC0100B45FFF1F8C50FF1FE8A90100CA
:106410001C54FF1F1C45FF1F00B76D5B244EFF1F60
:106420008453FF1F1454FF1F2C4FFF1FD0CCCC0CE4
:1064300089416241EC55FF1F9DF82300D24CB8F111
:10644000020F28440DF1230100F2C08106F0FCF98F
:1064500051EC100B0FF0ACFE08F10C0904EBC90A6B
:106460009DF82330CAF800000DF12301E81806F06A
:10647000EBF951EC100B0FF09BFE9AED007ACAF885
:106480000400F2EE046AB4EEE67AF1EE10FA07EEDA
:10649000900A40F17181CAED006AF4EEC87AF1EE1B
:1064A00010FA40F1008104EBC90383ED018AB8F1D1
:1064B000010F00F0D080B8F1020F00F00081B34965
:1064C00004EBC908081F98ED000AFAF707F898EDE1
:1064D000017AB4EEC97AF1EE10FA00F1BA80F1EE69
:1064E000047AB4EEE77AF1EE10FA5BDCF7EE006ABC
:1064F000C6EE877AB0EE677ABEEEC17A17EE103A32
:10650000A34A5362BEBB9DF823300124FDF702BCB1
:106510009DF823009C4CB8F1020F0DF12301284493
:1065200073D806F091F951EC100B0FF041FE07EE15
:10653000900A08F10C09B2EE047A04EBC903F4EEF8
:10654000C77AF1EE10FA186057D583ED007AB8F1EA
:10655000010F46D0B8F1020F37D08C4904EBC903C4
:10656000081F93ED000AF9F7B9FFEEB99DF8233043
:106570000124FDF7CFBB04EBC906012430680FF0FE
:10658000CBFA8046706889460FF0C6FA4B46CDE9D3
:10659000000142467F4980480AF028F99DF82330DF
:1065A000FDF7B8BB7D4BABE704EBC9090124D9F873
:1065B00000000FF0B1FA0B460246794976480AF01E
:1065C00015F99DF82330FDF7A5BB764B1B78012B01
:1065D000CBD1754B754993ED000A081FF9F77EFF83
:1065E000C3E7704B1B78012BBFD1714B714993ED01
:1065F000000A081FF9F772FFB7E7F4EEE87AF1EE48
:1066000010FAC8BFC3ED008AA1E706F01DF951ECEE
:10661000100B0FF0CDFD07EE900A08F14203B2EE29
:10662000047A04EBC303F4EEC77AF1EE10FA1860B3
:10663000A8F1030940F1888083ED007A594B1B785B
:10664000022B75D0002E62D19DF823300124FDF776
:1066500061BB594B54E7534B1B78012B7FF452AF6E
:10666000DFF84C81534998ED000A081FF9F736FF0F
:1066700098ED017AB4EEC97AF1EE10FA76D4F1EE23
:10668000047AB4EEE77AF1EE10FA6DDCF7EE006A08
:10669000C6EE877AB0EE677ABEEEC17A17EE103A90
:1066A000464A53622EE79FED467AF4EEC77AF1EE42
:1066B00010FAC4BF04EBC90383ED017AF7E6394B46
:1066C0001B78012B7FF41EAFDFF8DC80374998ED93
:1066D000000A081FF9F702FF98ED017AB4EEC97AB3
:1066E000F1EE10FA46D4F1EE047AB4EEE77AF1EE68
:1066F00010FA3DDCF7EE006AC6EE877AB0EE677AF4
:10670000BEEEC17A17EE103A2E4A5362FAE604EB57
:10671000C9090124D9F828020FF0FEF90B460246F8
:106720001F491D480AF062F89DF82330FDF7F2BAC0
:10673000B8F1030F10D01D4904EBC80898ED8A0A80
:10674000081FF9F7CBFE7DE7F4EEE87AF1EE10FAD8
:10675000C8BFC3ED008A71E71B4B164993ED000AD1
:10676000081FF9F7BBFE6DE70C4B99E7124B97E753
:106770000A4BC9E7104BC7E7B4EEE87AF1EE10FA1E
:10678000C8BFCAED008A88E6A853FF1F404EFF1F0E
:10679000244EFF1FF0A90100B45FFF1FD0CCCC0C2A
:1067A000E0A901008453FF1F1854FF1F3845FF1F45
:1067B0001054FF1F484FFF1F00B76D5B2C4FFF1F8A
:1067C000894162411C45FF1FE855FF1F06F03CF858
:1067D00051EC100B0FF0ECFC08F1420904EBC90975
:1067E0009DF82330C9F800000DF12301E81806F0E8
:1067F0002BF851EC100B0FF0DBFC99ED007AC9F887
:106800000400F2EE046AB4EEE67AF1EE10FA07EE56
:10681000900AA8F1030A65D5C9ED006AF4EEC87ABA
:10682000F1EE10FA52D504EBCA0383ED8B8AD04BFC
:106830001B78022B22D046B99DF823300124FDF7A6
:1068400069BACC4BD6E5CC4BD4E50AF1450604EB4E
:10685000C606012430680FF05FF9804670688946EB
:106860000FF05AF94B46CDE900014246C349C448EE
:1068700009F0BCFF9DF82330FDF74CBAB8F1030FC7
:106880003CD0C04908F1450804EBC80898ED000A5F
:10689000081FF9F723FE98ED017AB4EEC97AF1EEFC
:1068A00010FA29D4F1EE047AB4EEE77AF1EE10FA98
:1068B00020DCF7EE006AC6EE877AB0EE677ABEEEAD
:1068C000C17A17EE103AB04A5362B4E79FEDAF7A3F
:1068D000F4EEC77AF1EE10FAC4BF04EBCA0383EDFD
:1068E0008B7AA4E7B4EEE87AF1EE10FAC8BFC9EDEE
:1068F000008A93E79F4BE6E79F4BE4E7DFF8B88217
:10690000A34998ED000A081FF9F7E8FD98ED017A10
:10691000B4EEC97AF1EE10FA00F1D880F1EE047A03
:10692000B4EEE77AF1EE10FA00F3CE80F7EE006AEB
:10693000C6EE877AB0EE677ABEEEC17A17EE103AED
:10694000944A536277E79DF82300934C0DF123019D
:10695000284405F079FF51EC100B0FF009FC9DF86D
:1069600023305FFA80F80DF12301E81805F06CFF81
:1069700051EC100B0FF0FCFB4444C3B284F8FE3121
:1069800036B1424685497E4809F030FF94F8FE3121
:1069900083481A46414603F025FD01249DF8233023
:1069A000FDF7B8B97C4C9DF8230094F9FD210DF159
:1069B0002301284422F00F0805F046FF51EC100B8C
:1069C0000FF0D6FB00F00F0048EA0002D2B284F8C4
:1069D000FD213EB102F00F027249694809F006FF3D
:1069E00094F8FD216E4802F00102002103F0D0FC72
:1069F00094F8FD216A48C2F34002012103F0C8FC6B
:106A000094F8FD216648C2F38002022103F0C0FC25
:106A100094F8FD216248C2F3C002032103F0B8FCE0
:106A200001249DF82330FDF775B99DF823005A4CD9
:106A30000DF12301284494F9F88105F005FF51EC8C
:106A4000100B0FF095FB28F00F0800F00F0048EA3C
:106A50000001C9B284F8F8113EB101F00F024848B4
:106A6000514909F0C3FE94F8F8114D4800230093F2
:106A7000C1F34002C1F3800301F0010103F0FEFB0A
:106A800001249DF82330FDF745B99DF82300424CC1
:106A90000DF12301284405F0D7FE51EC100B0FF047
:106AA00067FBC2B284F8FC212EB14049344809F09A
:106AB0009DFE94F8FC213A48002103F043FC012498
:106AC0009DF82330FDF726B92A4B39E72A4B37E7E3
:106AD0009DF82300304C0DF12301284405F0B4FE4D
:106AE00051EC100B0FF044FB9DF823305FFA80F857
:106AF0000DF12301E81805F0A7FE51EC100B0FF083
:106B000037FB4444C3B284F8F93136B142462849D0
:106B10001B4809F06BFE94F8F93121481A464146AA
:106B200003F0D8FB01249DF82330FDF7F3B89DF85E
:106B30002330FDF7EFB89DF823000DF12301284421
:106B400005F082FE51EC100B0FF032FB124BD865B2
:106B50003EB10EF0E1FF02460B460948154909F027
:106B600045FEFCF795F901249DF82330FDF7D2B8D6
:106B70008453FF1FD0CCCC0C00B76D5BF0A9010093
:106B8000B45FFF1F3845FF1F1C45FF1F894162414D
:106B9000484FFF1F2C4FFF1FA853FF1F40AC0100A1
:106BA0008C50FF1F2CAC010018AC010000AC0100A0
:106BB000E8AB010088AC0100E855FF1F032E37D871
:106BC000DFE806F0244812A6032E00F21882DFE860
:106BD00016F00402F201E0011101032E00F284809C
:106BE000DFE806F07466584AC04B03EB0413012437
:106BF000D3F874010EF090FF0B460246BC49BD4825
:106C000009F0F4FD9DF82330FDF784B8B74B03EB92
:106C100004130124D3F884000EF07EFF0B460246D5
:106C2000B349B44809F0E2FD9DF82330FDF772B88E
:106C3000AE4B03EB04130124D3F8C4010EF06CFF38
:106C40000B460246AA49AB4809F0D0FD9DF8233017
:106C5000FDF760B8A54B03EB04130124D3F8D4006F
:106C60000EF05AFF0B460246A149A24809F0BEFDAC
:106C70009DF82330FDF74EB89C4B9F499D4803EB90
:106C80000413012493F8182109F0B0FD9DF8233076
:106C9000FDF740B8954B9849964803EB041301243F
:106CA00093F8682109F0A2FD9DF82330FDF732B872
:106CB0008E4B91498F4803EB0413012493F8C820AD
:106CC00009F094FD9DF82330FDF724B8874B8A49DD
:106CD000884803EB0413012493F8782009F086FD1B
:106CE0009DF82330FDF716B8804B8349814803EBAC
:106CF0000413012493F8B82109F078FD9DF823309E
:106D0000FDF708B8032E5CD8DFE806F04A382614F1
:106D1000764B03EB04130124D3F824010EF0FCFEA0
:106D20000B4602467249734809F060FD9DF8233016
:106D3000FCF7F0BF6D4B03EB04130124D3F81C01E7
:106D40000EF0EAFE0B4602466C496A4809F04EFD19
:106D50009DF82330FCF7DEBF644B03EB04130124E2
:106D6000D3F86C010EF0D8FE0B4602466349614829
:106D700009F03CFD9DF82330FCF7CCBF5B4B03EBE7
:106D800004130124D3F8CC000EF0C6FE0B460246D5
:106D90005A49584809F02AFD9DF82330FCF7BABF3C
:106DA000524B03EB04130124D86F0EF0B5FE0B46D3
:106DB000024652494F4809F019FD9DF82330FCF76F
:106DC000A9BF4A4B03EB04130124D3F8BC010EF016
:106DD000A3FE0B4602464949464809F007FD9DF8C7
:106DE0002330FCF797BF032E00F2B080DFE806F0F7
:106DF0008C5A37143D4B03EB04130124D3F82001C4
:106E00000EF08AFE0B4602463D493A4809F0EEFC78
:106E10009DF82330FCF77EBF344B04F1120603EBE0
:106E2000061603EB0414706894F818810EF074FED3
:106E3000CDE9040130680EF06FFECDE90201D4F80F
:106E40001C010EF069FE4246CDE900012D4929489A
:106E500009F0CCFC01249DF82330FCF75BBF234BE9
:106E600004F1170603EB061603EB0414706894F89C
:106E700068810EF051FECDE9040130680EF04CFE41
:106E8000CDE90201D4F86C010EF046FE4246CDE990
:106E900000011C49174809F0A9FC01249DF8233082
:106EA000FCF738BF114B04F10D0603EB061603EB9C
:106EB0000414706894F8C8800EF02EFECDE9040129
:106EC00030680EF029FECDE90201D4F8CC000EF0B6
:106ED00023FE4246CDE900010A49064809F086FC36
:106EE00001249DF82330FCF715BF00BFA853FF1FF6
:106EF000B4A90100B45FFF1F9CA90100A4A901006F
:106F0000ACA90100BCA90100464B04F1080603EB43
:106F1000061603EB0414706894F878800EF0FCFDFC
:106F2000CDE9040130680EF0F7FDCDE90201E06F14
:106F30000EF0F2FD4246CDE900013B493B4809F025
:106F400055FC01249DF82330FCF7E4BE354B04F1D9
:106F50001C0603EB061603EB0414706894F8B88162
:106F60000EF0DAFDCDE9040130680EF0D5FDCDE973
:106F70000201D4F8BC010EF0CFFD4246CDE900017C
:106F800029492A4809F032FC01249DF82330FCF7F6
:106F9000C1BE244B03EB04130124D3F870010EF09F
:106FA000BBFD0B4602462249204809F01FFC9DF814
:106FB0002330FCF7AFBE1B4B03EB04130124D3F8C3
:106FC000D0000EF0A9FD0B4602461949174809F0FA
:106FD0000DFC9DF82330FCF79DBE124B03EB041310
:106FE0000124D3F880000EF097FD0B4602461049AD
:106FF0000E4809F0FBFB9DF82330FCF78BBE094BD4
:1070000003EB04130124D3F8C0010EF085FD0B46F9
:1070100002460749054809F0E9FB9DF82330FCF7D3
:1070200079BE00BFA853FF1FBCA90100B45FFF1FBA
:10703000ACA9010010B5094909480B78094C002298
:1070400023F001038261A2610B70FCF7C1F9FCF728
:1070500029FEBDE81040FCF7E1B900BF184FFF1F43
:107060007044FF1F9444FF1F2DE9F0437B4B7C4885
:107070007C4D7D4EDFF86092DFF860827B4F01240B
:1070800087B01C6005F060F81921794809F0AEF965
:107090000E21784809F0D0F8774809F091FB214695
:1070A0000C2008F0E9F921460C2008F0D1F92A78E3
:1070B000337842F0400243F0040321461D202A7039
:1070C000337008F0D9F900211D2008F0C1F92146DC
:1070D000142008F0D1F92146142008F0B9F923460C
:1070E0003D220221654806F0C3FB2146634806F0B5
:1070F0009DF800222146614806F09EF8AE215F48C7
:1071000006F04CFB2B78214603F07F0318202B70F0
:1071100008F0B2F900210B2008F0AEF928215848F8
:1071200009F08AF8544809F04BFB042255490B201A
:1071300008F0C4F8544A5549137A042008702343D0
:1071400002210720137208F097F9514B00261E60A8
:1071500002211F2008F090F94E4B40F2EE259E616F
:1071600002211C205D60C9F8045008F085F94A4BE3
:107170004A4ADA614A4A1A6202210F2008F07CF971
:10718000484BD8F800009E6122460C215D6007F054
:10719000B3F92246D8F80000202107F0D5F922469D
:1071A000D8F80000022107F0C5F92246D8F80000FF
:1071B000022107F0B5F92426232501E035463E5D7E
:1071C0000121284608F058F92846002108F040F926
:1071D0000134FF2EE4B2F1D1334B344AC9F8182000
:1071E0003220334A1A6008F06FF91D213148324DC0
:1071F00002F092FF002211462E4803F06FF82F4A4A
:107200002F4B01261660684604221A70FCF7B6F868
:107210009DE8070085E80700FCF7CAF8294B1870BD
:10722000FCF74EF9FCF718F9274B284A1B68059321
:107230000599274B1160D8F800003246002422211E
:107240001C7007F09BF91E21224808F0F5FF0A4840
:1072500009F0B6FA07B0BDE8F08300BF88E100E0AE
:10726000BC5DFF1F1845FF1F184FFF1F48AF0100EF
:107270000002FF1F58AE0100B45FFF1F104BFF1F3D
:1072800068AE0100E928FF1FC848FF1F3DE400E089
:1072900020B00B407044FF1FC04EFF1F458B000005
:1072A000357000009444FF1F182EFF1F218D000031
:1072B000000010418C50FF1F684FFF1F08E100E0E5
:1072C0001C2EFF1F1945FF1F845EFF1F3056FF1F36
:1072D0000856FF1F94AE01000C56FF1F9048FF1F79
:1072E0002DE9F04F91B007F03DFE4FF4B27009F078
:1072F000B7FB044607F0D2F8AE4AAF4BAF4E126868
:107300001C60AF4931600023737233613372F360E4
:1073100012B900F00FBC1A465369002BFBD156611D
:107320000024A84BA5487461B480F480336003F056
:107330002DFBA548A54DA64FDFF8F092DFF8F0B27F
:10734000DFF8F082FAF780FAA248FAF77DFAA24B4A
:10735000012103F118021846FAF74EFA9F4B03F188
:10736000180218469C4B01211D601C77FAF744FA5D
:107370009B4B03F118021846984B01211D601C77A6
:10738000FAF73AFA974B03F128021846944B1F601C
:1073900047F6FF77DF83042148F200071F845C84EF
:1073A000FAF72AFA904B914F03F1180218468D4BC9
:1073B0004FF4803A01211F60C3F818A0C3F81CA045
:1073C000C3F820A0C3F824A0FAF716FA884B03F1FB
:1073D00018021846844B01211D601C77FAF70CFA3D
:1073E000834B84481D601C77FAF72EFA8248FAF71F
:1073F0002BFA824B012103F118021846FAF7FCF927
:107400007F4B03F1280218467C4B04211D601C773A
:10741000FAF7F2F97B4B03F118021846784B012179
:107420001F60C3F818A0C3F81CA0C3F820A0C3F8BD
:1074300024A0FAF7E1F9734B654F1F6047F6FF7719
:10744000DF8309F13402022148F2000748461F8415
:107450005C84FAF7D1F96C4BC9F8284003F11802A3
:1074600018466A4BC9F80030694BC9F81830A3F5C3
:1074700044534FF48057C9F81C30664BC9F820704C
:107480000121C9F82430C9F82C40C9F83040FAF776
:10749000B3F95D4B0BF13402022158461D601C7795
:1074A000FAF7AAF95C4BCBF8207003F128021846D2
:1074B000564BCBF80030564BCBF81830A3F544535D
:1074C0000421CBF81C30534BCBF82430CBF82840A8
:1074D000CBF82C40CBF83040FAF78EF94E4B434AAC
:1074E0004E481A60C3F818A0C3F81CA0C3F820A027
:1074F000C3F824A0FAF7A8F9494B4A4D03F1180242
:1075000018460121FAF778F9474B0093444B304A6B
:107510001A6047F6FF7148F2000ED98308F1340271
:1075200002214046A3F820E05C84FAF765F9009B4D
:10753000C8F8207003F128021846344BC8F8003010
:10754000334BC8F81830A3F54453C8F81C30314BFE
:10755000C8F824300421C8F82840C8F82C40C8F8DE
:107560003040FAF749F9009B2048154F18604FF05A
:10757000040E05F118012F602246C3F818A0C3F8C5
:107580001CA0C3F820A0C3F824A020462C72EC60F5
:1075900085F809E029612F4600E0396941F82200A9
:1075A000697A204C01329142F7DC024A11680029C5
:1075B00043D1C3E2845FFF1F9048FF1F9448FF1F21
:1075C000C4A50100ECA50100684BFF1F94A80100B1
:1075D0009CAF0100B441FF1FD859FF1FC84FFF1FC8
:1075E000E84FFF1F5450FF1F8459FF1FC0AF010019
:1075F0002848FF1F3456FF1FC850FF1F0C50FF1FA5
:107600009050FF1FF058FF1F884FFF1FB4AF0100BD
:107610009054300480F9855A085AFF1F5C45FF1FBB
:107620009C4EFF1F2C50FF1F4848FF1F2C4FFF1F71
:107630001C45FF1F244EFF1F11464A69002AFBD13B
:107640004D610024AF4A6C61AC80EC80AE48019380
:107650002A6003F099FCAD4AAD4F147210461660D3
:107660005472D460576008F0A5FFAA4AAA49516035
:1076700010464FF00103009154721660D4601372EB
:1076800008F098FFA54AA64B54724FF0020A104624
:1076900016605360D46082F808A008F08BFFA14AFE
:1076A000A14B14721046166053605472D46008F0F7
:1076B00081FF9E4A9E4B14721046166053605472AE
:1076C000D46008F077FF9B4A9B4B176010465360CD
:1076D00014725472D46008F06DFF984A964B00996A
:1076E000536010464FF00103116014725372D4605E
:1076F00008F060FF924A8A4B13601046914B147257
:1077000053605472D46008F055FF8F4A884B136061
:1077100010468E4B147253605472D46008F04AFFC6
:107720008B4A854B136010468A4B14725472D46096
:10773000536008F03FFF884A824B13601046874B26
:1077400014725472D460536008F034FF844A7F4B43
:1077500013601046834B147253605472D46008F067
:1077600029FF814A7B4B13601046804B5360147293
:107770005472D46008F01EFF7D4A784B13607B4B37
:10778000536010464FF0010314725372D46008F036
:1077900011FF784A734B13601046744B1472536098
:1077A00082F809A0D46008F005FF734A6F4B147289
:1077B000104682E808025472D46008F0FBFE6F4A5B
:1077C0006A4B136010466E4B147253605472D4604F
:1077D00008F0F0FE6B4A6C4B536010461472C2F80E
:1077E00000905472D46008F0E5FE684A684E82F852
:1077F00008A0104682E8000A5472D46008F0DAFE4D
:10780000644A614B13601046634B147253605472A8
:10781000D46008F0CFFE614A5F4B536010464FF0D2
:1078200001031472C2F800B05372D46008F0C2FEB3
:107830005B4A594B82F808A01046C2F800B053606A
:1078400082F809A0D46008F0B5FE564A524B136086
:107850001046554B14725472D460536008F0AAFE5F
:10786000524A514B13601046019B536000931472AF
:107870005472D46008F09EFE4D4A009B147210466C
:1078800082E808015472D46008F094FE494B4A4AD9
:107890005A60184683F808A0C3F800805C72DC6068
:1078A00008F088FE454B464F83F808A01846C3F8F9
:1078B00000805D605C72DC6008F07CFE414B4FF044
:1078C00001025A72344A1C72184683E82400DC60B4
:1078D00008F070FE3C4B3D4A3D481A601B2105F004
:1078E00041FF3C4D3C4986F811A0032306F11800E6
:1078F00060223374F56007F02BFA06F178006022FD
:107900006CE000BFF8A501002C50FF1FA459FF1F19
:10791000684BFF1FB459FF1FB441FF1FF859FF1FE9
:10792000D859FF1FB844FF1FE84FFF1FC844FF1F6F
:10793000C84FFF1F484BFF1F5450FF1F584BFF1FDE
:107940008853FF1F8459FF1FF844FF1F2848FF1F5B
:10795000784FFF1F3456FF1F1848FF1FC850FF1FE6
:107960000845FF1F0C50FF1F6459FF1F9050FF1F59
:107970008048FF1FA84FFF1F1459FF1F084FFF1F0C
:10798000F058FF1F2459FF1F884FFF1F3459FF1F56
:10799000C848FF1F4459FF1F085AFF1F5459FF1FB3
:1079A000C859FF1F7459FF1F5C45FF1FD844FF1FB4
:1079B0009853FF1FB84FFF1F9C4EFF1FE844FF1F47
:1079C000845EFF1F1C4FFF1F8C50FF1FD0A50100BE
:1079D000104BFF1F0AD7233CD8A601005A4907F0D5
:1079E000B7F95A4BC6F8DC40002240F20C71C6F8D9
:1079F000E04086F88341A6F8E410C6E97A2307F050
:107A000041FDDFF890E1C6F8F001BEE80F0006F591
:107A100000750FC59EE80F00D7F800E0CDF83CE0F8
:107A20000FF21C19D9E9008985E80F000F9BC6F8F1
:107A300038323046C6E97E8986F8204206F0E4F8FE
:107A40003B6803930399424A3B680493414B049D6E
:107A5000116041481D6005221521F9F737FF3B6889
:107A60000593059A39683D4B0691DDF818E0DA6018
:107A70001926C3F810E01F250622082138485C604B
:107A80001C721D755E72F9F721FF3B680793079A18
:107A90003968344B0891DDF820E0DA605146C3F8CC
:107AA00010E007250E2230485C601C725E721D7566
:107AB000F9F70CFF3B68099309993B680A93DDF8D5
:107AC00028A03B680B93DDF82C803A68274B284DA3
:107AD0000C92DDF830C0C3F80C804FF01C0EC3F8D8
:107AE00010C0E9604FF00F09224A2348C5F810A0E2
:107AF0007F215E725C601C7283F814E06C602C72F3
:107B00006E7285F8149004F0ABFD1C4A1C491A48AB
:107B10000EF012FD1B48FAF79BFF3B680D930D9882
:107B20003B680E931849194B0E9A08601A6011B001
:107B3000BDE8F08F164B1E60FFF7F2BB146080E5C6
:107B400000000000006AE84038A7010000003E4045
:107B50003056FF1F084BFF1F604EFF1F7044FF1F72
:107B6000744EFF1F0C56FF1F884EFF1FC04EFF1F95
:107B70009444FF1FED3C0000AC48FF1F102AFF1F7C
:107B8000AD040000A853FF1F0C4BFF1F744FFF1FD5
:107B9000845FFF1F98A701002DE9F0472DED048BAE
:107BA00084B00D4687B21FFA82F8814692460020C3
:107BB0009A1E1C46791CA8F10203009201906A1CCF
:107BC00001262648B0EE609AF0EE418AB0EE408A77
:107BD00004F0FCFF0094534649462A4601961F488C
:107BE00004F0A2FFB4EE498AF1EE10FA48BFB0EEFD
:107BF000498AB4EE688AF1EE10FAC8BFB0EE688A1E
:107C000038EE498A78EEC98A231FC8EE286A2C44C8
:107C1000023CB91C0196114807EE103A07EE904A53
:107C2000B8EEC77AF8EEE77A26EE877AA8F1040371
:107C300077EEC77ABDEEC77AFDEEE77A8DED037A6F
:107C4000CDED027ABDF90C40BDF90820009404F096
:107C5000BDFF04B0BDEC048BBDE8F087104BFF1FE7
:107C60002DE9F04F2DED048B9DB285B0144687B2FF
:107C70001FFA81F89B468146AB1E00208A4600937E
:107C8000791C08F10102A31E019001262048B0EEE4
:107C9000609AF0EE418AB0EE408A04F097FF5246B7
:107CA00049462346CDF800B00196194804F03CFF40
:107CB000B4EE498AF1EE10FA48BFB0EE498AB4EE4C
:107CC000688AF1EE10FAC8BFB0EE688A38EE498AC9
:107CD00078EEC98A043C88EE287A043D009508F1C4
:107CE0000202B91C01960A4807EE904AF8EEE77ABC
:107CF00067EE277AFDEEE77ACDED037ABDF90C3019
:107D000004F064FF05B0BDEC048BBDE8F08F00BF4C
:107D1000104BFF1F2DE9F0412DED028B08EE103ABC
:107D2000F8EE487AB1EE007A77EEC77AB2EE047ACE
:107D3000C7EE878A84B0431E85181FFA83F89DF822
:107D400030700224012607EE901AB8EEC88AF8EEC9
:107D5000677AB7EE007A77EE887A38EE878A37EE60
:107D6000C88A07E0013408F1FF33681CE4B21FFA47
:107D700083F885B2FDEEC87A2BB2CDED037ABDF95A
:107D80000C200D4801960FFA88F100920FB1062CD5
:107D90000AD004F057FE0B2C38EE688AE2D104B00A
:107DA000BDEC028BBDE8F0817F23002104F04AFE88
:107DB00038EE688AD6E700BF104BFF1F07EE902A07
:107DC0002DE9F043F8EE677AB1EE007A77EEC77AE4
:107DD000B2EE047A2DED048B87EE879A4C1EA1F14A
:107DE0000B0985B0CD18A4B21FFA89F94FF001082C
:107DF00007EE900AB8EE678AF7EE008A38EE288A16
:107E000038EE098AFDEEC87A26B2CDED037ABDF9C7
:107E10000C301348CDF804802FB219463246009733
:107E200004F010FE78EE687A013CFDEEE77A0097E8
:107E3000CDED037ABDF90C30CDF8048032461946F9
:107E40000748A4B204F0FEFD0135A145ADB238EEFD
:107E5000098AD7D105B0BDEC048BBDE8F08300BF23
:107E6000104BFF1FF0B52DED028B9148914D85B061
:107E700005F08CFC8E4805F0E5F900EBD07040F37E
:107E80004F00183807EE900AF8EEE77A3024FDEE3E
:107E9000E77A0126CDED037ABDF90C308448194606
:107EA00002228DE8500004F0CDFD814805F0CAF9AA
:107EB00000EBD07040F34F00183007EE900AF8EE58
:107EC000E77A0222FDEEE77A0094CDED037ABDF960
:107ED0000C3077480196194604F0B4FD744805F05B
:107EE000B1F90446724805F0ADF9734B298893ED5A
:107EF000007A04EBD47400EBD07044F34F0340F3EA
:107F00004F0008EE103A07EE900AB8EEC88AF8EE75
:107F1000E77A0B06A7EEC78A00F1AA80FDEEC87AC1
:107F2000CDED037ABDF90C6001F400718CB2002C28
:107F300040F08D800127314619225D4800971423B7
:107F400005F00EF83A462146594805F075F92B78A8
:107F50005A4ADFED5B5ADFED5B6A9FED5B6A9FED8E
:107F60005B7A534803F00F0303EB4304D35C07EE43
:107F7000903AF8EEE77A0221A7EEE58A67EE867A74
:107F8000B4EE668AF1EE10FA48BFB0EE668A78EE7B
:107F9000276AF4EEC76AF1EE10FAC8BF37EE678AB7
:107FA00005F044F9FDEEC87A1222CDED037ABDF951
:107FB0000C103F4805F036F9454A46493C482244F2
:107FC00008F014FC01213A4805F030F92A8802F43F
:107FD000007292B2002A5AD03F4C9FED407AD4ED05
:107FE000007AF4EEC77AF1EE10FA55DC9FED3C7A98
:107FF000F4EEC77AF1EE10FA54DCB2EE027AF4EE47
:10800000C77AF1EE10FA4FF03502CCBF302111469D
:10801000274805F007F920680DF07EFD41EC100BB4
:108020000221234808F038FC02222E49204808F09B
:10803000B3FB1F4805F022FD2B4A137823F00F03F2
:1080400043F00603137005B0BDEC028BF0BD0023B6
:108050000093314613231922154804F081FF0123B0
:108060000093314614231922114804F0F7FD6EE7FE
:10807000FDEEC87A0096CDED037ABDF90C600C4890
:1080800031461623192204F0E9FD29884CE7012125
:10809000074805F0D1F89FE735222621044805F06E
:1080A000C1F8B8E735222B21014805F0BBF8B2E74B
:1080B000104BFF1F142AFF1F0456FF1F38AF01008B
:1080C000EC51904000000000333343410000FE4279
:1080D00064AF0100B4AE01005845FF1F00C07944F1
:1080E0000000C642B8AE01001845FF1F70B52DED67
:1080F000028B714C0122002182B005466F4802F0CC
:10810000EDF8D4ED8A7A6E4BB3EE047AF4EEC77ACA
:1081100000224FF48031F1EE10FA19629A61DA61AF
:1081200000F197809FED677AF4EEC77AF1EE10FACE
:1081300076DD654A654ED4ED8B7A9FED657A654BA9
:10814000F4EEC77AF1EE10FA9E61DA617FD4B1EEF7
:10815000047AF4EEC77AF1EE10FA00F39680F7EEA7
:10816000006A86EEA77AF0EE477AFEEEC17A17EE45
:10817000902AD4ED8C7A5A62B3EE047AF4EEC77A80
:10818000F1EE10FA68D49FED4F7AF4EEC77AF1EE73
:1081900010FA7CDD4C4B4D4ED4ED8D7A9FED4C7A30
:1081A0004D4AF4EEC77AF1EE10FA9661D3614CD4E1
:1081B000B1EE047AF4EEC77AF1EE10FA63DCF7EE72
:1081C000006A86EEA77AF0EE477AFEEEC17A17EEE5
:1081D000901A424B516200224FF48031D9619A616A
:1081E0001A62002D3BD13E4C3E4D2B883E4D3F4EFA
:1081F000DB4301211820238007F02AF93C483D4940
:10820000027A0B783C4C2E6142F0020243F00203EA
:10821000022502720B70257002B0BDEC028B70BD9E
:108220009FED360A9FED368A27EE800A60EE087AC7
:10823000FDEEE77A17EE906A0AF002F920EE080ADE
:10824000FDEEC07A17EE902A75E72E49C1E72D4A58
:108250008FE72D4A16466EE72B4B1E469CE7214DB5
:108260001F4C2B882380FFF7FDFD284A284B1268FE
:1082700093F900300192274A01991160002BB4DB79
:10828000F8F71CF9B1E72449A3E7234A71E79FED0A
:108290001B0A9FED1B8A27EE800A60EE087AFDEE2E
:1082A000E77A17EE906A0AF0CBF820EE080AFDEEA6
:1082B000C07A17EE903A6FE7A853FF1F8C50FF1F4C
:1082C0009050FF1F00009646008C3C4B00BE6C5047
:1082D0003333333F2C4FFF1F1C45FF1F085AFF1F2E
:1082E000142AFF1FC459FF1FE84EFF1F622ACE3613
:1082F000C848FF1F184FFF1F8453FF1F1F42093834
:108300000000004F00B76D5B54721500845EFF1FC4
:108310001845FF1F3056FF1FD0CCCC0C2DE9F04183
:10832000044686B0C74805F031FA042C00F22881D3
:10833000DFE814F03000D600B000C90005000221CB
:10834000C04804F073FF0A221221BE4804F06AFFFD
:10835000BD4B1A78002A00F06881BC49B94808F082
:1083600045FA0121B74804F061FF35221421B548D0
:1083700004F058FF022300930122B549B14808F0E8
:1083800035FAB44B187820F00F002043187006B06F
:10839000BDE8F081B048B14D0EF012FFC0B200EB65
:1083A000400007EE900A9FEDAE7AA648F8EEE77A15
:1083B000002277EE677A1646FDEEE77ACDED057A74
:1083C000BDF9141004F02EFFA34AA6499D4808F0F9
:1083D0000DFA32462E219B4804F024FF0622A249C2
:1083E000984808F0D9F9A1480EF0EAFEC0B200EBB7
:1083F000400007EE900A9FED9E7A9248F8EEE77AE9
:10840000324677EE677AFDEEE77ACDED057ABDF973
:10841000141004F007FF954A92498A4808F0E6F9DB
:108420000A21084635230F220096FFF773FC3523F7
:108430000F220A2139200096FFF76CFC35230F220A
:108440000A2167200096FFF765FC0A21084695ED92
:10845000010ADFED880A35230F22B7EE001AFFF775
:108460009BFB95ED000ADFED830A35230F220A21DD
:108470003920B7EE001AFFF78FFB95ED020ADFED0A
:108480007D0A35230F220A216720B7EE001AFFF775
:1084900083FB76E701250022402180230191009390
:1084A0001146754B0295674804F080FD3522142172
:1084B000644804F0B7FE02232A46009364496148E9
:1084C00008F094F95DE7012040218023002202900A
:1084D000019100931146694B5A4804F067FD50E73B
:1084E0000022052157485D4D04F09CFE042264499A
:1084F000544808F051F900222821524804F092FE15
:10850000082260494F4808F047F900225C214D4895
:1085100004F088FE5C494B4808F068F900260A21FF
:10852000084635230F220096FFF7F4FB35230F2270
:108530000A2139200096FFF7EDFB012300930F225B
:1085400035230A216720FFF7E5FB0A21084695ED50
:10855000030ADFED480A35230F22B7EE001AFFF7B2
:108560001BFB95ED040ADFED430A35230F220A2198
:108570003920B7EE001AFFF70FFB95ED050A7EE7ED
:10858000424F434ED7ED006A96ED857A2D48C6EEF0
:10859000877A0A221146FCEEE77ACDED057A9DF83E
:1085A000145004F03FFE38680DF0B6FA012D28BFD4
:1085B000012502460B462348364908F017F905F114
:1085C000820814237F221E210020FFF7F7FB06EB11
:1085D000880806EB850393ED861AD8ED010A97ED1E
:1085E000000A14237F221E210020FFF739FB3522C9
:1085F0000A21144804F016FE98ED017AD7ED007AAE
:10860000B4EEE77AF1EE10FA15DA06EB850595ED92
:10861000817AF4EEC77AF1EE10FA3FF6B2AE0C2290
:108620001D49084808F0B8F8ABE610221B49054878
:1086300008F0B2F895E60F221949024808F0ACF8A4
:108640009FE600BF104BFF1F1945FF1FE0AE010062
:1086500000A901001845FF1FF055FF1F202EFF1F26
:1086600000008C41B4AE0100BCAE0100FA55FF1F02
:108670000000DD4200000000382EFF1F182AFF1FF7
:10868000C4AE0100CCAE0100D8AE0100182EFF1F11
:10869000A853FF1F08AF010028AF0100F4AE01008E
:1086A00018AF010070B5254C23781A0684B001D4A8
:1086B00004B070BD03F00F03022B25D0032B09D0AB
:1086C000AE211F4805F06AF8237803F07F0323707A
:1086D00004B070BD04201B4E1B4DFFF71FFE184851
:1086E00005F0CCF9326894F900300392039A2A60BD
:1086F000002B01DBF7F7E2FE33680293029BA3F540
:10870000FA632B6004B070BD03200E4E0E4DFFF7D0
:1087100005FE0B4805F0B2F9326894F90030019279
:10872000019A2A60002B01DBF7F7C8FE336800933B
:10873000009BA3F5FA632B6004B070BD1845FF1FC2
:10874000104BFF1F845EFF1F3056FF1F70B52DEDCD
:10875000028B002182B00446182006F079FED24A2E
:10876000D2491378002023F0020313700870002C04
:1087700040F06F81CE4CD4ED1A7AB3EE047AF4EE69
:10878000C77AF1EE10FA00F15F819FEDCA7AF4EE3C
:10879000C77AF1EE10FA40F32181C74AC74DD4EDF4
:1087A0001B7A9FEDC77AC74BF4EEC77AF1EE10FA49
:1087B0009D61DA6100F14381B1EE047AF4EEC77A8B
:1087C000F1EE10FA00F35F81F7EE006A86EEA77A09
:1087D000F0EE477AFEEEC17A17EE902AD4ED1C7ABD
:1087E0005A62B3EE047AF4EEC77AF1EE10FA00F1B1
:1087F00028819FEDB07AF4EEC77AF1EE10FA40F3DB
:108800008B81AD4AAD4DD4ED1D7A9FEDAD7AAE4B67
:10881000F4EEC77AF1EE10FA9D61DA6100F10D8194
:10882000B1EE047AF4EEC77AF1EE10FA00F3298182
:10883000F7EE006A86EEA77AF0EE477AFEEEC17A8E
:1088400017EE902AD4ED0A6AD4ED0B7A9F4E5A6245
:10885000F4EEE76AF1EE10FA96ED026A40F1E48078
:1088600037EEE67AF0EE667AE6EE077AB2EE047A52
:10887000C7EE876A16EE900A0DF04EF941EC100B28
:1088800009F02AFE51EC100B0DF092FC9FED907A4E
:1088900007EE900AF4EEC77AF1EE10FA00F3C28008
:1088A0009FED8C7AF4EEC77AF1EE10FA00F1EF80CA
:1088B00007EE100ABEEEC87A17EE103AD4ED0C6A35
:1088C000D4ED0D7A844D96ED026AAB61F4EEE76A61
:1088D000F1EE10FA40F19D8037EEE67AF0EE667A1E
:1088E000E6EE077AB2EE047AC7EE876A16EE900AD1
:1088F0000DF012F941EC100B09F0EEFD51EC100BEC
:108900000DF056FC9FED727A07EE900AF4EEC77AEE
:10891000F1EE10FA7BDC9FED6F7AF4EEC77AF1EEA0
:1089200010FA00F1B28007EE100ABEEEC87A17EE18
:10893000103A6A499FED667AD1ED017AEB61F4EE67
:10894000C77A0023F1EE10FA2B625EDC9FED617AAC
:10895000F4EEC77AF1EE10FA00F19D80B0EE677A7E
:10896000BEEEC87A17EE103AD1ED027A9FED587A32
:108970005B4AF4EEC77AF1EE10FA936143DC9FEDA7
:10898000557AF4EEC77AF1EE10FA00F18280B0EE7B
:10899000677ABEEEC87A17EE103AD1ED037A9FEDF2
:1089A0004C7AD361F4EEC77AF1EE10FA4FDC9FED0A
:1089B000497AF4EEC77AF1EE10FA6ED5494B13629C
:1089C00049480022012101F089FCFAF761FA474B7E
:1089D00001221A7002B0BDEC028B70BD9FED4C0AF3
:1089E0009FED4C8A27EE800A60EE087AFDEEE77A6A
:1089F00017EE905A09F024FD20EE080AFDEEC07A29
:108A000017EE902ACBE63A4BC7E7394BACE7384B29
:108A10008FE7B7EE007A77EEE66A36EE476AE6EE63
:108A2000267A5FE7324B49E7B7EE007A77EEE66ADF
:108A300036EE476AE6EE267A18E72E4A02E72D4A16
:108A4000CCE62D4A1546DEE62B4A1546A7E6284B0E
:108A5000B5E72A4C237843F00F032370FFF75EFC41
:108A6000274805F00BF8274A94F900301268019264
:108A7000254A01991160002BFFF67CAEF7F71EFD29
:108A800078E6224ADEE6214AA8E6164B51E7154B66
:108A900014E7144B81E7134B66E7B0EE677ABEEE3E
:108AA000C87A17EE103A8AE7184FFF1F0856FF1FC3
:108AB000A853FF1F00009646008C3C4B00BE6C5034
:108AC0003333333F2C4FFF1F1C45FF1F202EFF1F4A
:108AD00000FEFF4600FEFFC69050FF1FE84EFF1F3E
:108AE000085AFF1F000001808C50FF1F8453FF1F96
:108AF0000000FF7F00B76D5B547215001845FF1F23
:108B0000104BFF1F845EFF1F3056FF1FD0CCCC0CD4
:108B10001F4209380000004F1FED030A1FED038AB2
:108B200027EE800A60EE087AFDEEE77A17EE905A9B
:108B300009F086FC20EE080AFDEEC07A17EE902AB6
:108B400061E600BF70B51C4B1C491D4A1D48886179
:108B500082B09A6101210C2006F07AFC1A491B4C64
:108B60000B7822781A4E1B4D23F0060342F0400288
:108B700043F0010300200B702270FFF7E7FD23781C
:108B8000022043F00F032370FFF7C8FB124804F0E4
:108B900075FF326894F900300192019A2A60002B27
:108BA00001DBF7F78BFC33680093009BA3F5FA63B6
:108BB0002B6002B070BD00BF7044FF1F9444FF1FC4
:108BC000DD8B0000D98C0000184FFF1F1845FF1FD8
:108BD000845EFF1F3056FF1F104BFF1F324B1B7868
:108BE00013F0FB0F2CD0314B30B51A6840F2ED2357
:108BF0009A4283B025D82E4B1B78022B50D02D4B98
:108C00002D4C18780130C0B2012888BF00201870A0
:108C1000237803F00F03834201D0FFF77FFB27483F
:108C200004F02CFF264A94F9003012680092254A7D
:108C300000991160002B01DBF7F740FC03B030BD59
:108C40007047214C1C4DFBF72DF823781F4A013348
:108C50001278DBB29A4223709CBF00232370FAF78C
:108C60002FFC22781A491B4807F0C0FD2B780420FE
:108C700043F00F032B70FFF751FB104804F0FEFE8A
:108C80000F4A95F90030126801920E4A019911605D
:108C9000002B01DBF7F712FCFAF7FAF803B030BD4E
:108CA0000120FFF753FDC9E7184FFF1F7044FF1F56
:108CB0008453FF1F0856FF1F1845FF1F104BFF1F4F
:108CC000845EFF1F3056FF1F1945FF1F1C2EFF1F1C
:108CD000D8AA0100B45FFF1F10B50D4C237803F034
:108CE0000F03042B82B002D00420FFF717FB0948C2
:108CF00004F0C4FE084A94F9003012680192074A51
:108D000001991160002B01DBF7F7D8FB02B010BD11
:108D10001845FF1F104BFF1F845EFF1F3056FF1FBB
:108D200030B51B4A1B4C1378022B83B022D1237819
:108D300058071FD4D90726D4174D297801F00F0101
:108D400023F00203012005292370107002D00520B2
:108D5000FFF7E4FA114804F091FE114A95F900304A
:108D6000126801920F4A01991160002B05DBF7F799
:108D7000A5FB02E00120FFF7B9F9237823F00403F3
:108D8000237003B030BD0120FFF7E0FCF5E700BF22
:108D90008453FF1F184FFF1F1845FF1F104BFF1F65
:108DA000845EFF1F3056FF1F2DE9F0432DED028B2F
:108DB000B1B007F017FA002840F09781694D6A4C6E
:108DC000287D06F04BFB2B7A83426B7D00F0E2811D
:108DD000D9071BD49A0726D522682592E868259AD8
:108DE000697A121A8A421ED919060BD42A6A002AF5
:108DF00000F0F5859047AB695A4E002B00F0EA85EC
:108E00009847737D03F03D036B750CE02268269252
:108E10002698226827922969279AE86023F001039F
:108E2000521A6B752A60514D287D06F017FB2B7A7C
:108E300083426B7D00F09C81DA0700F179819F0706
:108E400007D522681E921E9AE868697A121A8A4229
:108E500075D8474D287D06F001FB2B7A83426B7D48
:108E600000F07481DE0700F15581980707D522686C
:108E70001792179AE868697A121A8A424DD83D4DBE
:108E8000287D06F0EBFA2B7A83426B7D00F094810B
:108E9000D80700F13181990707D522681092109AFE
:108EA000E868697A121A8A4225D82368324A0293FE
:108EB000029B12689B1AB3F5FA7F00F2DF802F4DF8
:108EC0002F48304F04F0B8FE2B783880042B5DD04B
:108ED0002D4E33781A0600F1A9812B78002B66D12C
:108EE000337803F0C002402A00F03D8431B0BDEC7D
:108EF000028BBDE8F0831E060BD42A6A002A00F01C
:108F000082859047AB691B4E002B00F07785984710
:108F1000737D03F03D036B75C7E71F060BD42A6A08
:108F2000002A00F066859047AB69114E002B00F0D7
:108F30005B859847737D03F03D036B759FE71A06C9
:108F40000BD42A6A002A00F040859047AB69074E8F
:108F5000002B00F035859847737D03F03D036B755A
:108F600077E700BF0C56FF1F845EFF1F7044FF1F92
:108F7000C04EFF1F9444FF1F0C4BFF1F184FFF1FD5
:108F8000C848FF1FC459FF1F1845FF1F2368DFF89B
:108F900070820393039BD8F800209B1AB3F57A7F65
:108FA00000F2F8818D4E3378180600F143818C4B26
:108FB0001B78012B00F00C8472B68A490B7F03F0FA
:108FC000FF020BB100230B7762B6002A40F08981C3
:108FD000854B49F699121A6284483F880388BB4240
:108FE000834B00F0D384D3ED007AF5EE407AF1EEB6
:108FF00010FA40F0CC812268DFF804820C92D8F895
:1090000000100C9A521A40F2E2418A4213D9596870
:10901000784A794B1160C3ED007A0780FEF722FF92
:10902000226896F900300D920D9AC8F80020002BA6
:1090300001DBF7F743FA2B787049D8070CD4226884
:109040006F480E9204680E9A47F23050121B82420B
:1090500084BF23F002030B706A4A137F002B3FF496
:1090600045AF6948037800211177032B00F29B84F8
:10907000DFE813F0A00242020E02D902634D012183
:10908000286805F06BFA00283FF419AF0121286821
:1090900005F0D0FA012108EE100A286805F036FA2A
:1090A0009FED5B7ADFED5B7ADFED5B5A9FED5B6AEC
:1090B000DFED5B6A5B4BB8EEC88A012228EE078AB7
:1090C00007EE100AB8EE475A286888EE057A222182
:1090D00077EE277A67EEA57A87EE867A77EE267A9C
:1090E000C3ED007A05F04AFAE9E607F03FF8C1B2AD
:1090F0004D4803F0C3FA61E6226811921198226884
:109100001292129A2969E86023F00103521A6B75D2
:109110002A60CAE622681892189822681992199A49
:109120002969E86023F00103521A6B752A60A6E6EC
:1091300022681F921F9822682092209A2969E8606D
:1091400023F00103521A6B752A6082E61E063FF572
:1091500096AED80700F16C819907226800F162840D
:109160001D921D9AEA602A6143F001036B7586E641
:109170001F063FF56EAEDE0700F1458198072268B5
:1091800000F155842492249AEA602A6143F0010395
:109190006B755EE61A063FF546AEDF0700F11E81ED
:1091A0009E07226800F134842B922B9AEA602A6190
:1091B00043F001036B7536E619063FF576AEDA0724
:1091C00000F1F7809F07226800F127841692169A13
:1091D000EA602A6143F001036B7566E61845FF1FDC
:1091E0008453FF1FE84FFF1F9050FF1F142AFF1FDB
:1091F000C848FF1F0456FF1F5845FF1F184FFF1F89
:109200003056FF1F884FFF1FE44EFF1F9048FF1F7F
:1092100033335340000000000044C54700E80047D6
:10922000CDCC4C3E182EFF1FAC48FF1FDFF87883D3
:10923000D8F80020216804910499DFF870E3891AB6
:1092400041F28830814200F2088103F00F03052BC0
:109250003FF443AE023B012B7FF63FAEDEF8003019
:109260000593059B9FEDBE7ABE48BF49D0ED006ACD
:1092700091ED856A9B1A07EE903AF8EE677AF4EE64
:10928000C77AF1EE10FA25DCDEF800300693069B73
:109290009FEDB67A9A1A07EE902AF8EE677AF4EE06
:1092A000C77AF1EE10FA7FF718AEC6EE867AFCEEBA
:1092B000E77ACDED017A9DF80430012B28BF012318
:1092C00001EB8301D1ED817AF4EEE76AF1EE10FA59
:1092D0007FF503AE0520FFF721F8A54804F0CEFB8B
:1092E000FBE52368A34A0A930A9B1068DFF8BCE2F7
:1092F0001B1A142B7FF66CAEDEF800300B930B9B21
:10930000136072B647F6FF724FF400404FF0000E44
:10931000B1F91E30A1F822E0CA83B1F920200884F7
:1093200062B683EAE371A1EBE37182EAE273A3EB35
:10933000E2738B42B8BF0B4607EE903ADFED8E6AC0
:109340009FED8E6AF8EEE77A87EEA67AB4EEC67ADB
:10935000F1EE10FA7FF740AE9FED896AC6EE077A0C
:10936000F4EEE67AF1EE10FA00F366839FED857A6B
:10937000F4EEC77AF1EE10FA00F1EE83B0EE677A00
:10938000BEEEC87A17EE103A7F4A136224E6DFF881
:1093900018823CE67D497E4B09781B7800201942F3
:1093A000287040F0AC837B4E337819067FF599AD79
:1093B00040E79E0700F19B8122681492149AE868A6
:1093C000697A121A8A4240F29281EA6943F00201F4
:1093D0006975002A00F07F83904766E5980700F1E1
:1093E0004A8122682992E868299A697A121A8A427F
:1093F00040F24181EA6943F002016975002A00F0F8
:109400006F8390470FE5990700F18F8122682292C0
:10941000229AE868697A121A8A4240F28681EA69D9
:1094200043F002016975002A00F05F83904710E560
:109430009F0700F13E8122681B921B9AE868697AB7
:10944000121A8A4240F23581EA6943F002016975D5
:10945000002A00F04F83904711E5FFF723F995F8B4
:109460000080DFF84C91B8F1000F7FF4A0AD4146C9
:109470000C2005F0EDFF3378474999F8002081F87A
:10948000008003F0BF033370002A3FF42AAD93E558
:10949000424A92ED027AD2ED067AB4EEE77AF1EE24
:1094A00010FA00F1FE8240F3B780DFED3D6A37EE3F
:1094B000667AF4EEC77AF1EE10FA40F1FC8282EDA2
:1094C000027AF0EE477A9FED2C7AF4EEC77AF1EE4D
:1094D00010FA00F319839FED2B7AF4EEC77AF1EEC0
:1094E00010FA00F1B183B0EE677ABEEEC87A17EEDB
:1094F000102A2C49CA618FE0284A92ED017AD2EDF8
:10950000057AB4EEE77AF1EE10FA00F1D78240F373
:109510008380DFED236A37EE667AF4EEC77AF1EEE8
:1095200010FA40F1D58282ED017AF0EE477A9FED94
:10953000127AF4EEC77AF1EE10FA00F3E7829FEDAB
:10954000117AF4EEC77AF1EE10FA00F18383B0EEEF
:10955000677ABEEEC87A17EE102A12498A615BE07C
:1095600000007A45182EFF1FA853FF1F0000FA4481
:10957000104BFF1F084BFF1F00FEFF4652499D3A4C
:109580009A99193F00FEFFC69050FF1F805EFF1F93
:1095900044B601001845FF1F8453FF1FE84EFF1F0C
:1095A000CDCCCC3C085AFF1F3056FF1F845EFF1FF6
:1095B000184FFF1F794A92ED007AD2ED047AB4EE8B
:1095C000E77AF1EE10FA00F1398225DDDFED746AF9
:1095D00037EE667AF4EEC77AF1EE10FA40F138828F
:1095E00082ED007AF0EE477A9FED6E7AF4EEC77A5C
:1095F000F1EE10FA00F38E829FED6B7AF4EEC77AEB
:10960000F1EE10FA00F12283B0EE677ABEEEC87A6E
:1096100017EE102A65498A610133037031B0BDEC41
:10962000028BBDE8F0835D4BD3ED037A93ED077AAF
:10963000F4EEC77AF1EE10FA00F10D8240F3B98131
:10964000DFED587A83ED037AB4EEE77AF1EE10FAA3
:1096500000F35E82DFED547AB4EEE77AF1EE10FAB1
:1096600000F1F682F0EE477AFEEEC87A17EE903AF5
:109670004F4A13629DE16A684E4E002A3FF4D3AB15
:1096800021682891289930694B4F091A8A42BFF402
:10969000CAAB3A682C922C9AB169121A326000292E
:1096A00000F0DA828847737D63F03F036B75FFF744
:1096B000BABB6A68414E002A3FF4E1AB21681A91B7
:1096C0001A9930693C4F091A8A42BFF4D8AB3A68FC
:1096D0002E922E9AB169121A3260002900F0C282CD
:1096E0008847737D63F03F036B75FFF7C8BB6A68FB
:1096F000334E002A3FF4D9AB216813911399306996
:109700002D4F091A8A42BFF4D0AB3A682F922F9A94
:10971000B169121A3260002900F0A1828847737D76
:1097200063F03F036B75FFF7C0BB6A68254E002AE4
:109730003FF48FAB21682191219930691E4F091A9E
:109740008A42BFF486AB3A682D922D9AB169121AFB
:109750003260002900F089828847737D63F03F03FF
:109760006B75FFF776BB03F00F03052B02D00520C6
:10977000FEF7D4FD144804F081F923680F9396F99D
:109780000030124A0F991160002BFFF6AFABF6F7CD
:1097900095FE31B0BDEC028BBDE8F083E84EFF1FB3
:1097A000CDCCCC3C00FEFF4600FEFFC64848FF1F64
:1097B000085AFF1F0C56FF1F845EFF1FC04EFF1F7D
:1097C0009444FF1F7044FF1F104BFF1F3056FF1FB4
:1097D0002368D14A0793079B1168D0485B1A322B44
:1097E0007FF63AACCE4B01680891197C089810605E
:1097F000012940F2878272B6DA6862B672B6002139
:10980000D96062B6C74B197C012940F2318272B629
:10981000D96862B672B60020D86062B6C24B187CB6
:10982000012840F2B98272B6D86862B672B60025D5
:10983000DD6062B682EAE27581EAE177A5EBE27566
:10984000A7EBE17780EAE07802FB05F501FB07F77B
:10985000A8EBE078EB1900FB08F813EB080F3FF4D6
:10986000FBABDFF8F092337899F8000003F00F03B8
:10987000984203D0FEF752FD99F80030002B40F0DB
:109880006D8125B307EE905A9FEDA87AA84DF8EEAA
:10989000E76AC6EE877A95ED017A77EE877AB7EEBA
:1098A000007AF4EEC77AF1EE10FA40F3058385ED05
:1098B000017AF9F771FB0A21084635230F22B7EE2A
:1098C000001ADFED9C0A95ED010AFEF765F927B352
:1098D00007EE907A9FED957A954DF8EEE76AC6EE21
:1098E000877A95ED007A77EE877AB7EE007AF4EE14
:1098F000C77AF1EE10FA40F3EB8285ED007AF9F7C2
:10990000C7FA35230F220A213920B7EE001ADFEDFE
:10991000890A95ED000AFEF73FF9B8F1000F24D04F
:1099200007EE908A9FED817A814DF8EEE76AC6EEE8
:10993000877A95ED027A77EE877AB7EE007AF4EEC1
:10994000C77AF1EE10FA40F3CF8285ED027AF9F78B
:10995000CBFB35230F220A216720B7EE001ADFED7B
:10996000750A95ED020AFEF717F9734804F086F8B8
:109970002368099396F90030704A09991160002B09
:10998000FFF66AABF6F79AFDFFF766BB6C4AD3EDBC
:10999000007A92ED007AF4EE477AF1EE10FA3FF495
:1099A0004AABFFF722BB0133DBB2032B03707FF618
:1099B0009DAA0023037031B0BDEC028BBDE8F0839B
:1099C000737D43F00403FFF7C8BA43F010036B75CF
:1099D000FFF7BCBA737D43F00403FFF713BA43F0FB
:1099E00010036B75FFF707BA737D43F00403FFF7AD
:1099F000A2BA43F010036B75FFF796BA737D43F07C
:109A00000403FFF786BA43F010036B75FFF77ABAC9
:109A10002A922A9AEA60FFF7CBBB1592159AEA6060
:109A2000FFF7D8BB1C921C9AEA60FFF79DBB2392FC
:109A3000239AEA60FFF7AABB424BA5E4DFED426A36
:109A400037EE267AF4EEC77AF1EE10FA3FF7C8AD9A
:109A5000C2ED007AC8E5DFED3C6A77EEA67AB4EE97
:109A6000E77AF1EE10FADCBFF0EE477A83ED037A85
:109A70009FED367AC8BFC3ED037AF4EEC77AF1EEF4
:109A800010FA45DC9FED327AF4EEC77AF1EE10FA67
:109A900000F1DE80B0EE677ABEEEC87A17EE103ABB
:109AA000E6E5DFED296A37EE267AF4EEC77AF1EEC5
:109AB00010FA3FF704ADC2ED027A04E5DFED226A49
:109AC00037EE267AF4EEC77AF1EE10FA3FF72BADB7
:109AD000C2ED017A2BE543F00A036B75FFF7E5B998
:109AE00043F00A036B75FFF79EB943F00A036B75E9
:109AF000FFF7AFB943F00A036B75FFF7C0B9012058
:109B0000FEF7F4FAFFF7E4B90E4AF2E40D4A24E551
:109B10000C4BADE50B4A7DE5084BFF1F845EFF1F34
:109B2000604EFF1F744EFF1F884EFF1F00009643BC
:109B3000202EFF1F00000000104BFF1F3056FF1F9C
:109B40005845FF1F0000FF7FCDCCCC3C00FEFF46F8
:109B500000FEFFC60856FF1FC14B15E425B307EEF4
:109B6000905ADFEDC06AC04DF8EEE77A87EEA67A2C
:109B7000D5ED037A77EE277AB7EE007AF4EEC77A5E
:109B8000F1EE10FA40F3748185ED037AF9F752FB98
:109B90000A21084635230F22B7EE001ADFEDB30A7B
:109BA00095ED030AFDF7F8FF27B307EE907ADFED96
:109BB000AD6AAD4DF8EEE77A87EEA67AD5ED047A78
:109BC00077EE277AB7EE007AF4EEC77AF1EE10FA64
:109BD00040F35A8185ED047AF9F762FB35230F22B1
:109BE0000A213920B7EE001ADFEDA00A95ED040A2C
:109BF000FDF7D2FFB8F1000F3FF4B7AE07EE908A41
:109C0000DFED986A984DF8EEE77A87EEA67AD5ED03
:109C1000057A77EE277AB7EE007AF4EEC77AF1EE9E
:109C200010FA40F33D8185ED057AF9F771FB352394
:109C30000F220A216720B7EE001ADFED8C0A95ED9E
:109C4000050AFDF7A9FF90E6854A52E4844AE1E45B
:109C5000834B0DE5824A80E443F0040324E543F09E
:109C600004035DE543F004033CE543F0040375E5BC
:109C700072B693E8220008782F785D7A197A2F421D
:109C800000EA010000F0E380997A01F0030108B1D5
:109C900041F0040141F008018810013998720D2942
:109CA0003FF6B6AD01A050F821F000BFFD9C0000CA
:109CB000F59C0000ED9C0000F59C00001198000050
:109CC000E59C0000FD9C0000FD9C0000E59C000060
:109CD00011980000F59C0000ED9C0000F59C000030
:109CE000FD9C0000D9680239D96092E5D96802313B
:109CF000D9608EE5D9680139D9608AE5D968013122
:109D0000D96086E572B61A68586811780578587A6D
:109D10001A7A054201EA020100F090809A7A02F074
:109D2000030209B142F0040242F008029110013A24
:109D300099720D2A3FF660AD01A151F822F000BFE3
:109D4000919D0000899D0000819D0000899D00007B
:109D5000F9970000799D0000919D0000919D000001
:109D6000799D0000F9970000899D0000819D000009
:109D7000899D0000919D0000DA68023ADA603CE5B6
:109D8000DA680232DA6038E5DA68013ADA6034E536
:109D9000DA680132DA6030E572B693E8810005785E
:109DA00097F800E05F7A187A1EEA070F05EA0005C7
:109DB0003CD0987A00F003000DB140F0040040F070
:109DC0000800851001389D720D283FF62DAD01A5C4
:109DD00055F820F0259E00001D9E0000159E0000F5
:109DE0001D9E0000299800000D9E0000259E000089
:109DF000259E00000D9E0000299800001D9E000079
:109E0000159E00001D9E0000259E0000D8680238A7
:109E1000D8600AE5D8680230D86006E5D86801380D
:109E2000D86002E5D8680130D860FEE4987A00F086
:109E30000300002DC5D040F00400C2E79A7A02F07A
:109E4000030200293FF472AF42F004026EE7997AF0
:109E500001F0030100283FF41FAF41F004011BE7AC
:109E60000000018000009643202EFF1F000000002C
:109E7000F5EEC07A1FED037AF1EE10FA48BFF0EE6E
:109E8000477AC5ED037A81E6F5EEC07A1FED097ACF
:109E9000F1EE10FA48BFF0EE477AC5ED047A9BE682
:109EA000F5EEC07A1FED0F7AF1EE10FA48BFF0EE32
:109EB000477AC5ED057AB8E6F5EEC07A1FED157A5A
:109EC000F1EE10FA48BFF0EE477AC5ED017AF0E402
:109ED000F5EEC07A1FED1B7AF1EE10FA48BFF0EEF6
:109EE000477AC5ED007A0AE5F5EEC07A1FED217AD2
:109EF000F1EE10FA48BFF0EE477AC5ED027A26E59A
:109F00002DE9F04F00F5807EB1E8A00AB2E84015D7
:109F1000C5EA0643C6EA2544C7EA0845C8EA274613
:109F2000C9EA0A47CAEA2948CBEA0C49CCEA2B4AD3
:109F3000A0E8F807B1E8A00AB2E84015C5EA064370
:109F4000C6EA2544C7EA0845C8EA2746C9EA0A47D7
:109F5000CAEA2948CBEA0C49CCEA2B4AA0E8F80720
:109F60008645D1D1BDE8F04F70472DE9F00F4FF095
:109F7000000200F5807C00BFB1E8A00AC5EA020338
:109F8000C2EA2544C7EA0205C2EA2746C9EA02072F
:109F9000C2EA2948CBEA0209C2EA2B4AA0E8F8073C
:109FA000B1E8A00AC5EA0203C2EA2544C7EA0205ED
:109FB000C2EA2746C9EA0207C2EA2948CBEA0209EF
:109FC000C2EA2B4AA0E8F8078445D5D1BDE8F00FD6
:109FD00070472DE9F00F4FF0000200F5807C00BFC4
:109FE000B1E8A00AC2EA0543C2EA0504C2EA07458D
:109FF000C2EA0706C2EA0947C2EA0908C2EA0B49EF
:10A00000C2EA0B0AA0E8F807B1E8A00AC2EA0543D1
:10A01000C2EA0504C2EA0745C2EA0706C2EA0947DE
:10A02000C2EA0908C2EA0B49C2EA0B0AA0E8F8072B
:10A030008445D5D1BDE8F00F70472DE9F00F089C9D
:10A0400000F5007B51F8045B53F8046BC5EA064742
:10A05000C6EA254952F8045B54F8046BC5EA064881
:10A06000C6EA254AA0E8800751F8045B53F8046B60
:10A07000C5EA0647C6EA254952F8045B54F8046B62
:10A08000C5EA0648C6EA254AA0E880078345D9D133
:10A09000BDE8F00F704700BF70B50021064606F01E
:10A0A0005BFAD8B1B6F91E40B6F92010031D00F5D1
:10A0B000827533F9022B9442A8BF14469142B8BF6F
:10A0C00011469D42F5D8738CF4830133012231840B
:10A0D00073843277BDE8704006F000BA70BD00BFEF
:10A0E00070B50C4C0E4620463C21154602F094FA01
:10A0F0002046002101F080FF3146204601F07CFF20
:10A100002946204601F078FF2046BDE8704002F065
:10A1100095BA00BFBC5DFF1F38B504460D465648D2
:10A1200002F012F82846012105F0A6F9284601217F
:10A1300005F08EF9192005F0C7F903220021204609
:10A14000FFF7CEFF7D2005F0BFF920460122022156
:10A15000FFF7C6FF204620220521FFF7C1FF072297
:10A1600011462046FFF7BCFF2046DC221121FFF7F5
:10A17000B7FF204654221821FFF7B2FF204676226F
:10A180001921FFF7ADFF204603221A21FFF7A8FF90
:10A19000204601221B21FFF7A3FF204611221C218C
:10A1A000FFF79EFF204643221D21FFF799FF20461F
:10A1B00041221E21FFF794FF204610222321FFF7A2
:10A1C0008FFF204610222421FFF78AFF204610220D
:10A1D0002521FFF785FF204610222621FFF780FF6B
:10A1E000204600222921FFF77BFF204610222D2147
:10A1F000FFF776FF204611222E21FFF771FF204640
:10A2000000223221FFF76CFF204645223321FFF761
:10A2100067FF2046F0223421FFF762FF204600222C
:10A220003921FFF75DFF204600223E21FFF758FF4E
:10A2300020460F223121FFF753FF204610224321F1
:10A24000FFF74EFF204677224421FFF749FF2046C3
:10A2500005224521FFF744FF204600224621FFF753
:10A260003FFFA02260212046FFF73AFF062005F0BD
:10A270002BF9012038BD00BFBC5DFF1F70B5002960
:10A2800005460BBF00241124602161219DF81000B8
:10A290001AB141F0020144F02204C3B144F0440475
:10A2A000612618B146F0020644F088040A462846A2
:10A2B0001D21FFF715FF32461E212846FFF710FF2C
:10A2C000224628464421BDE87040FFF709BF6026BA
:10A2D000E7E700BF1F31C9B2FFF702BFF8B50D466F
:10A2E000174631210F220446FFF7FAFE002D15BF55
:10A2F000052600260025032514BF01220822DFB908
:10A3000042F0100245F00C052E212046FFF7E8FE32
:10A310002A4643212046FFF7E3FE324645212046E8
:10A32000FFF7DEFE062005F0CFF82A462046312151
:10A33000BDE8F840FFF7D4BE42F0020246F00A063C
:10A34000E2E700BF2F31C9B2FFF7CABE10B50F4810
:10A350000C463C2102F060F900210C4801F04CFE53
:10A3600021460A4801F048FE084802F067F9012238
:10A370003C21064802F04AF9012801D0FF2010BD17
:10A38000024801F065FEC0B210BD00BFBC5DFF1FFA
:10A39000233170B5CCB2214616460546FFF7D6FFED
:10A3A00000F07F0040EAC61221462846D2B2BDE83E
:10A3B0007040FFF795BE00BF70B50D4628211446CA
:10A3C0000646FFF7C3FF0122AA40AC4020EA020084
:10A3D00040EA0402D2B230462821BDE87040FFF7BF
:10A3E0007FBE00BF233170B5CCB22146164605466C
:10A3F000FFF7ACFF00F08002324321462846BDE85B
:10A400007040FFF76DBE00BF70B50E462D2114469B
:10A410000546FFF79BFF1122B24020EA020042B23C
:10A420002CB104F0010141F01001B1400A4328466B
:10A43000D2B22D21BDE87040FFF752BE38B50021E1
:10A44000054606F095F888B1044605F1180205F1B5
:10A45000BC01043000F056FE28462146002206F0DA
:10A4600061F82046BDE8384006F038B838BD00BF76
:10A4700003291ED800F1180001EB810100EBC10196
:10A4800072B613680B6053684B6093688B60D2EDB3
:10A49000037A18BF074BF1EE677AC1ED037AD2ED6C
:10A4A000047A08BF0023F1EE677AC1ED047A4B62AB
:10A4B00062B6704700FEFF462DE9F04F83B0884634
:10A4C000846A0190D0F81CC0D0F824A0C16A076B40
:10A4D000DDF8309008F580702646834638F902EBA7
:10A4E0004FEA0E3E5CFB17F401EB84045AFB17F5B0
:10A4F0007644C4EB6606A6EB85065CFB16F007EB1C
:10A5000080005CFB10F104EB81015AFB10F5C1EBFC
:10A510000E07A7EB85055CFB15F700EB87070C44DE
:10A5200024F34F34384420F34F30354425F34F356E
:10A53000C34522F8024B764623F8020B29F8025B4A
:10A54000CCD1019A1346C3F828E0D162176303B057
:10A55000BDE8F08F2DE9F04F85B088468169019103
:10A5600001460C460390006A0290D1F824B08F6A2D
:10A57000206BC96ADDF838A0DDF83C9008F58074DE
:10A58000009432F9026B029C06FB04F626F0784533
:10A5900005F10065ED0055FB15F5284C55FB14F54C
:10A5A000ED00013CF616C6F106062C443441019D2F
:10A5B00055FB14F4224D38F902CBAC42A8BF2C460F
:10A5C00024024FEA0C3C54FB10F601EB86065BFBC1
:10A5D00010F107EB0C0EC6EB6E0EAEEB810E54FBCA
:10A5E0001EF500EB850554FB15F106EB81015BFBC5
:10A5F00015F0C1EB0C07A7EB800754FB17F405EB34
:10A6000084000E4426F34F36054425F34F35BE44EF
:10A610002EF34F3E009C23F8026B44452AF8025B60
:10A62000674629F802EBACD1039A1346C3F828C059
:10A63000D162106305B0BDE8F08F00BFABAAAA2AB3
:10A64000E71052002DE9F043002183B0044605F0E5
:10A6500083FF01210546204605F07EFF0646002DBA
:10A660003CD005F0EFFE074600283CD005F0EAFE9E
:10A670008046002842D005F0E5FE8146002851D0F2
:10A68000002E45D0021D08F10403019200932046DC
:10A690003B1D321D291DFFF75DFF304605F01EFFF3
:10A6A000284605F01BFF00223946204605F03AFFF8
:10A6B000384605F013FF01224146204605F032FFDF
:10A6C000404605F00BFF20460222494605F02AFFCE
:10A6D000484603B0BDE8F04305F000BF0028F8D1BC
:10A6E00003B0BDE8F083284605F0F8FE002EF7D051
:10A6F000304603B0BDE8F04305F0F0BE284605F053
:10A70000EDFE384605F0EAFE002EE9D03046F0E7CF
:10A71000031D00933A1D08F10403291D2046FFF78D
:10A72000CBFEBDE7284605F0D9FE384605F0D6FE3B
:10A73000404605F0D3FE002ED2D03046D9E700BF08
:10A7400010B5044606F00CF8204610BD024A034935
:10A7500003480BF0F1BE00BF102AFF1F41A7000005
:10A76000405AFF1F38B5074D074C08482A46214676
:10A770000BF0E2FE2A4621460548BDE838400BF0C2
:10A78000DBBE00BF102AFF1F41A70000485AFF1F71
:10A79000505AFF1F024A034903480BF0CDBE00BFC9
:10A7A000102AFF1F41A70000585AFF1FF0B4224B88
:10A7B000224D1A68224912691B790B70AA4234D2C1
:10A7C000204B1B78002B33D11F4B196859B31F4FF7
:10A7D0003C88402C27D81E481E4A1F4B066810682C
:10A7E0001A6863001E4419441844403413449A1CE8
:10A7F000023605F1080302313C80023005F502758E
:10A8000033F9084C21F8024F33F9064C26F8024F71
:10A8100033F9044C20F8024F083333F90A4C22F87C
:10A82000024FAB42ECD1F0BC7047A5F50075CBE709
:10A830000A4B01221A60C7E76C5AFF1F641DFF1FF5
:10A840001F800040645AFF1F785AFF1F745AFF1F71
:10A85000605AFF1F7C5AFF1F685AFF1F08E200E082
:10A860002DE9F047804605F0EDFD054605F0EAFDCF
:10A87000064605F0E7FD074605F0E4FD04465DB336
:10A880003EB337B328B372B63B4B1A887F2A39D808
:10A89000002D6DD039490A6872B162B6284605F0BC
:10A8A0001DFE304605F01AFE384605F017FE20461C
:10A8B000BDE8F04705F012BE0D60DFF8CCE030488F
:10A8C00030491A80CEF8006007600C6062B6BDE8BF
:10A8D000F087284605F002FE16B1304605F0FEFD71
:10A8E00017B1384605F0FAFD002C3DD02046002473
:10A8F00005F0F4FD27462646254672B61E4B1A88FB
:10A900007F2AC5D91D4920481D4AD1F800A00D60F5
:10A910001C49D0F8009006601668176000220D6888
:10A920001A800C6062B65146404605F0FBFD504669
:10A9300005F0D4FD49464046012205F0F3FD4846A6
:10A9400005F0CCFD31464046022205F0EBFD3046D5
:10A9500005F0C4FD40462946032205F0E3FD2846E4
:10A96000BDE8F04705F0BABD2746264625468AE7EA
:10A9700062B6BDE8F08700BF745AFF1F785AFF1F08
:10A98000605AFF1F685AFF1F7C5AFF1FF8B5384DE9
:10A990000121284605F080FE00F07CFA3548364A51
:10A9A00036494FF48063036013602B686FF05F02D9
:10A9B00018781A706FF00F0258785A7002209A783F
:10A9C00098704022DC78DA7000221961997D187540
:10A9D0009A75012404214FF0FF3019276FF0030608
:10A9E000DF715E765A71DE7D5A729A72DA721A736C
:10A9F0005A739A73DA735A751A76197119729C71AF
:10AA0000DC75987629799E7F9A7701F18041DE7F07
:10AA1000DC7701F5043106261F7F1E778C26D87659
:10AA2000587F5A770A700E7005F0DCFD144E154BF6
:10AA30002A79154930701A700B682A791348144D19
:10AA4000144E43F0124323430B6053119B000168E3
:10AA500003F1604302F01F0703F561431032BC406D
:10AA600041F01041016045F822601C60F8BD00BF54
:10AA70006C5AFF1F14B004402CB00440641BFF1F2D
:10AA8000645AFF1F1B80004080F0024000F002402B
:10AA90000024FF1FADA70000024A034903480BF042
:10AAA0004BBD00BF102AFF1F41A700006C5AFF1FBB
:10AAB0002DE9F8434FF00008064600F11805474617
:10AAC00041463046002F4FD005F046FDF0B12C68CE
:10AAD000B4F5803F07F1040100F1040E07F5827C14
:10AAE00027D05EF8042B34FB02F334FB12F903F396
:10AAF0000F0209F30F03C2EA03430A6893FA12F341
:10AB000041F8043B8C45ECD805F0E8FC08F101085D
:10AB1000B8F1040F05F10405D2D1002F40D0304622
:10AB20003946002205F0FEFC3846BDE8F84305F042
:10AB3000D5BC07F10C0100F10C0451F8083C54F8A5
:10AB4000082C93FA12F341F8083C54F8042C51F8FD
:10AB5000043C93FA12F38C4541F8043C04F10804D8
:10AB600001F10801E9D8CFE705F002FD074600280A
:10AB7000CCD02868B0F5803FC8D0391D07F5827465
:10AB80000B6830FB03F230FB13F302F30F0203F305
:10AB90000F03C2EA034341F8043B8C42F0D8B5E707
:10ABA000BDE8F883024A034903480BF0C5BC00BF67
:10ABB000102AFF1F41A70000805AFF1F024A0349C5
:10ABC00003480BF0B9BC00BF102AFF1F41A70000CB
:10ABD000885AFF1F2DE9F041514B52481A685249DB
:10ABE00012681B790B70824282B055D24F4B1B7892
:10ABF000002B6AD14E4F3B68002B53D04D4A4E4E2E
:10AC00001188043303EB41013368002B4FD04B4ACA
:10AC10004B4D12882C68043303EB4202002C4BD0BE
:10AC2000484BDFF824811B88043404EB4303D8F835
:10AC30000040002C47D0DFF814E1BEF800E00434F7
:10AC400004EB4E040094FFF7F8F93868384C28B14B
:10AC5000384B1A88002A59D140221A803068364C65
:10AC600028B1364B1A88002A47D140221A8028681A
:10AC7000334C28B1334B1A88002A35D140221A8030
:10AC8000D8F80000304C20B1304B1A880ABB402263
:10AC90001A8002B0BDE8F081254F3B68A0F5007036
:10ACA000002BABD1244E2A493368002BAFD1244D61
:10ACB000274A2C68002CB3D1DFF88C80244BD8F8BD
:10ACC0000040002CB7D1224CBCE7224B01221A6075
:10ACD00090E700251D8005F001FC1F4B1A682260DB
:10ACE0001D6002B0BDE8F08100251D8005F0F6FB77
:10ACF0001A4B1A6822601D60C2E700261E8005F00C
:10AD0000EDFB174B1A6822601E60B0E700271F801A
:10AD100005F0E4FB134B1A6822601F609EE700BF3A
:10AD20009C5AFF1F6421FF1F1F800040B45AFF1F61
:10AD3000B05AFF1FAC5AFF1FA85AFF1FBC5AFF1F73
:10AD4000C85AFF1FA45AFF1FB85AFF1F905AFF1F6F
:10AD5000C4AF010008E200E0945AFF1F985AFF1F99
:10AD6000C05AFF1FC45AFF1F70B50021044605F0EA
:10AD7000F3FB88B172B63B4A1368002B68D03A499E
:10AD80000D68002D54D0394E1560002208603280C5
:10AD900062B6184605F0A2FB0121204605F0DCFB57
:10ADA00088B172B6324A1368002B47D031490D681A
:10ADB000002D3AD0304E156000220860328062B615
:10ADC000184605F08BFB0221204605F0C5FB80B13B
:10ADD00072B62A4A1368002B35D029490D680DB385
:10ADE000284E156000220860328062B6184605F0D1
:10ADF00075FB2046032105F0AFFB90B172B6224AE5
:10AE00001368002B29D021490C68A4B1204D14608F
:10AE1000002208602A8062B61846BDE8704005F03E
:10AE20005DBB70BD086062B6E3E7086062B6CAE762
:10AE3000086062B6B0E7086062B670BD0E49106087
:10AE40000B8062B6BFE70F4910600B8062B6D0E797
:10AE5000064910600B8062B69EE70D4910600B80BA
:10AE600062B670BDB05AFF1FC45AFF1FAC5AFF1F15
:10AE7000A85AFF1FC05AFF1FBC5AFF1FC85AFF1F06
:10AE8000985AFF1FA45AFF1FB85AFF1F945AFF1F5A
:10AE9000905AFF1F2B4B2C491A682C4842F4004251
:10AEA0001A600A6842F002020A601A6842F002025E
:10AEB0001A600368002B43DB254B1B68002B3FDB2C
:10AEC000F0B5DFF8B8E0234F234CDFF8B4C0234AD5
:10AED000234E244D0023A1F5C831CEF80030383977
:10AEE0003B600366012020604FF000740C604FF45B
:10AEF0004031CCF800101C4CDFF888C0C2F800C00C
:10AF00001A4A32604FF0844C2B602060184B4EF888
:10AF100078CC05F5DF3504F5DF3447F8781C05F506
:10AF2000947504F5C4741348134919604FF4C06351
:10AF3000C6F88020AEF1780E2B6023600360F0BD70
:10AF4000704700BF3C8004404080044000F0024055
:10AF500080F0024004F1024004F0024010F0024090
:10AF600014F00240E0F0024084F00240000F0F0FA6
:10AF700090F0024018B004401B0F010000F10240A5
:10AF80000CF002401A0F0100F8B5394E012130468D
:10AF900005F082FB37483849384A394B00240460B1
:10AFA0000C6014601C60FFF775FF3648364A37495D
:10AFB0004FF4C06303601360336820221960197C6A
:10AFC0001A746FF00F02597C5A740222997C9A7499
:10AFD0004021D87CD974997D1A719C750125042172
:10AFE0004FF0FF3219276FF003005C715C729C72A6
:10AFF000DC721C735C751C765C7693F817E09F71AD
:10B000005873DD71DD75197219759A73DA739C7650
:10B010003279997F9C7702F18042D97FDD7702F502
:10B0200004320621187F19778D21DC76587F5C77F2
:10B030001470117005F0D6FA3279154B1549164C7B
:10B0400018700A70531121681448154E9B0003F1C3
:10B05000604302F01F0741F0124103F561431032D3
:10B06000BD4041F00101216040F822601D60F8BD43
:10B070009C5AFF1FB05AFF1FA85AFF1FC85AFF1F34
:10B08000B85AFF1F04B0044000B00440641FFF1F03
:10B09000B45AFF1F1B80004000F002400024FF1F35
:10B0A000D5AB0000024A034903480BF045BA00BF84
:10B0B000102AFF1F41A700009C5AFF1F024A0349A4
:10B0C00003480BF039BA00BF102AFF1F41A7000048
:10B0D000CC5AFF1F024A034903480BF02DBA00BFA8
:10B0E000102AFF1F41A70000D45AFF1F024A03493C
:10B0F00003480BF021BA00BF102AFF1F41A7000030
:10B10000DC5AFF1F2DE9F0012DED0B0A00F58076CA
:10B11000B2EC050A1546F2EC052AF5EE404AF1EECE
:10B1200010FA65D003460C4601F5007830F9027B31
:10B1300005EE107AB8EEC55A65EE004AE0EEA34A75
:10B14000E1EE044AE1EEA24AE2EE034AB0EE623AD0
:10B15000F0EE642AB0EE634AF0EE453AE1EC012AE3
:10B16000B042E3DBC5EC042AB2EC050A1546F2EC6A
:10B17000052A2146F5EE404AF1EE10FA18D091ED7D
:10B18000005A65EE004AE0EEA34AE1EEA24AE2EE82
:10B19000034AE1EE044AB0EE623AF0EE642AB0EE01
:10B1A000634AF0EE453AE1EC012A4145E7DBD9E795
:10B1B0001846B1EC015A65EE004AE0EEA34AE1EE12
:10B1C000A24AE2EE034AE1EE044AB0EE623AF0EE41
:10B1D000642AB0EE634AF0EE453ABDEEE25A15EE4F
:10B1E000107A07F30F0720F8027BB042E1DB21E081
:10B1F000B0F9007005EE107AB8EEC55A65EE004A57
:10B20000E0EEA34AE1EEA24AE2EE034AE1EE044A8E
:10B21000B0EE623AF0EE642AB0EE634AF0EE453AE0
:10B22000BDEEE25A15EE107A07F30F0720F8027B05
:10B23000B042DDDBC5EC042ABDEC0B0ABDE8F00131
:10B2400070472DED010A00EE100AB0EEC00A10EEB4
:10B25000104ABDEC010A70472DED010A00F580721D
:10B2600030F9023B00EE103AB8EEC00AA1EC010A38
:10B270009042F5DBBDEC010A70472DED030A134641
:10B2800000F58072D3EC020A30F9023B00EE103A6E
:10B29000B8EEC00AF4EE400AF1EE10FAB8BFF0EED4
:10B2A000400AB4EE401AF1EE10FAC8BFB0EE401AF0
:10B2B000A1EC010A9042E7DBC3EC020ABDEC030AF1
:10B2C00070472DED010A01F58072B0EC010ABDEE68
:10B2D000C00A10EE103A03F30F0321F8023B91422B
:10B2E000F3DBBDEC010A70472DED020AD2EC010A36
:10B2F00001F58072B0EC010A20EE200ABDEEC00A12
:10B3000010EE103A03F30F0321F8023B9042F1DBF9
:10B31000BDEC020A704710B42DED020AD3EC020A0C
:10B32000D2EC011A01F58072B0EC010AF4EE400A89
:10B33000F1EE10FAB8BFF0EE400AB4EE401AF1EEAA
:10B3400010FAC8BFB0EE401A20EE210ABDEEC00AC6
:10B3500010EE104A04F30F0421F8024B9042E3DB95
:10B36000C3EC020ABDEC020A10BC704710B42DED0C
:10B370000C0A00F50073B1EC050A0C46F1EC052A45
:10B38000024692ED005A65EE005AE0EEA35AE1EE55
:10B39000045AE1EEA25AE2EE035AB0EE623AF0EE3F
:10B3A000652AB0EE634AF0EE453AE2EC012A9A4291
:10B3B000E7DBE4EC042AF5EE404AF1EE10FADAD1CC
:10B3C000BDEC0C0A10BC704710B42DED0C0A20B473
:10B3D00000F50073B1EC050A0C46F1EC052A0546B0
:10B3E000B2EC015A65EE005AE0EEA35AE1EEA25A21
:10B3F000E2EE035AE1EE045AB0EE623AF0EE652A4C
:10B40000B0EE634AF0EE453AE5EC012A9A42E7DBFA
:10B4100020BCE4EC042AF5EE404AF1EE10FAAAD181
:10B42000BDEC0C0A10BC70472DED050A92EC020A27
:10B4300000F5007290ED001AF1EC011A20EE012ADD
:10B44000A0EEA12AA0EC012A9042F3DBBDEC050A94
:10B4500070472DED040AF0EC030AFCEEE00A10EE52
:10B46000901AB0EC030A30EEC00A80EE210AB4EE66
:10B47000410AF1EE10FA01DB01ED010AB0EC020A1B
:10B48000A1F101010029ECD1BDEC040A704700BF15
:10B490001649174B0A681748F0B442F48052164F09
:10B4A000164E174D174C0A601F60DE601D611C6050
:10B4B0000378D90755BF144A144A4FF410714FF45A
:10B4C000007111609A0754BF114A124A5B074FF48A
:10B4D000007154BF104B114B116054BF4FF41072E8
:10B4E0004FF400721A60F0BC704700BF3C8004400B
:10B4F00000C00240B05FFF1F01401F000110003874
:10B500000110007800001F8018B0044008C00440FB
:10B510001CB004400CC0044014B0044004C00440FB
:10B52000124A1349136843F480531360CA6802F047
:10B53000E063920105D5020902F4706220F47040C4
:10B5400010430B4AD1681843884209D01368590444
:10B5500007D40849116040F08041D0601161136048
:10B56000704740F08043D060136170473C800440D6
:10B5700000C0024001401F00064B074ADA62022168
:10B58000002259609A7083F8242083F8302083F8D1
:10B5900032207047005BFF1F4CB0010008B501214D
:10B5A000007803F055FF0E4B1A7802B908BD0D4A1A
:10B5B000127800211970002AF8D0D00703D50A4963
:10B5C0000A4B09681960910703D50749084B496878
:10B5D00019605307EAD5044A064B92681A6008BD01
:10B5E000585BFF1FFC5AFF1FF05AFF1F00E100E0ED
:10B5F00004E100E008E100E0204B1A781AB100787D
:10B60000002103F025BF70B41D491E4A0C78126852
:10B6100001251D7004B372B60B78DC0707D51A4CF0
:10B620001A49266809681A4D314029602160990736
:10B6300007D5184C154926684968154D31402160D9
:10B6400069605B0707D51449104B0D689B68104C67
:10B650002B400B60A36062B6104BD968914207D0B3
:10B660000F4C1C600F49DA6042F080441C61196085
:10B670000078002170BC03F0EBBE00BF585BFF1FD9
:10B68000FC5AFF1F545BFF1F80E100E0E45AFF1FDC
:10B69000F05AFF1F84E100E088E100E000C00240B2
:10B6A00001401F0000001F80F0B4134C134A2368B0
:10B6B00082B01746009300984FF0004680B2FF25F5
:10B6C000136843F480631360D6625563D36A002B1A
:10B6D000FCDABB6BDBB2FF2B0AD023680193019B22
:10B6E0009BB21B1A8B42EBDB002002B0F0BC704710
:10B6F000012002B0F0BC7047845EFF1F00C0024012
:10B70000F8B50D464FF4967116460446FFF7CCFF88
:10B71000284B1A684FF0004042F4806245F0400127
:10B720001A60D8621A465963D36A002BFCDA2149A1
:10B7300018204FF000470A6826FA00F342F48062AE
:10B74000DBB20A60CF624B63CB6A002BFCDA0838AD
:10B7500010F1080FEFD155B3082D0CBF8721FF2141
:10B76000144B1A684FF0004042F480621A60D862AD
:10B770001A465963D36A002BFCDA0E4A0027164694
:10B780004FF00045FF21136843F480631360D562D6
:10B790005163D36A002BFCDAB36BD8B21B0660701E
:10B7A00000D4F8BD0137B7F5807FECD1F8BD952105
:10B7B000D6E700BF00C00240F0B4164C164A23681A
:10B7C00082B01746009300994FF0004689B2FF25DA
:10B7D000136843F480631360D6625563D36A002B09
:10B7E000FCDABB6BDBB2FF2B43700BD123680193F8
:10B7F000019B9BB25B1AB3F5967FE9DD002002B096
:10B80000F0BC7047A3F1FE00B0FA80F0400902B02E
:10B81000F0BC7047845EFF1F00C00240F8B583781B
:10B82000032B0E46044618BF4E021546FFF7E4FEF2
:10B83000324611212046FFF763FF18B92046FFF773
:10B84000BBFF20B92046FFF7A9FE0020F8BD204B22
:10B850002049214A1A608E4659631A4659631E468A
:10B86000596305F5FD70A91C05F5FE77D36A13F041
:10B87000F00FFBD0C6F834E0B36B01F8013C1B12AB
:10B8800001F8023C02318F42F0D105F50075A84263
:10B890000DD20F4A1646D36A13F0F00FFBD0B36BEC
:10B8A000191200F8021BA84200F8013CF3D3084B20
:10B8B0000949084A196019465A63CB6A044A13F0C9
:10B8C000F00FFAD02046936BFFF768FE0120F8BD19
:10B8D00000C00240FFFF009000041F80F0B4314E12
:10B8E00033684FF0004743F4806333603D46F762AE
:10B8F000344671633346511C02F20127E26A002A82
:10B90000FCDA1A6811F8016C42F480621A60DD6298
:10B910005E63E26A002AFCDA1A6811F8026B42F4EC
:10B9200080628F421A60DD625E63E7D11D49CA6A98
:10B930001C4B002AFBDA1A684FF0004542F4806283
:10B94000FF241A601946DD625C63CB6A154A002B3E
:10B95000FBDA13684FF0004543F48063FF24136063
:10B960001146D5625463CB6A0E4A002BFBDA13688A
:10B970004FF0004543F48063FF2413601146D56205
:10B980005463CB6A074A002BFBDA936BDBB203F0FC
:10B990001F024370A2F10500B0FA80F04009F0BC2C
:10B9A000704700BF00C0024070B5044671B1837893
:10B9B000032B0D4618BF4D021646FFF71DFE2A4603
:10B9C00018212046FFF79CFE054620B12046FFF7D0
:10B9D000E5FD002070BD3246FE212046FFF77EFFC8
:10B9E0000028F3D04FF416712046FFF75DFE0028C3
:10B9F000ECD02A460D212046FFF782FE0028E5D133
:10BA00000B4B1A684FF0004542F48062FF201A6029
:10BA10001946DD625863CB6A054A002BFBDA936B4B
:10BA200013F0FF0FD2D12046FFF7B8FD012070BD03
:10BA300000C00240014B024A1A607047545BFF1F6E
:10BA40000320003838B590F90530002B03DBBDE842
:10BA5000384000F091B904460121006900F0B6F9C0
:10BA6000F8B1257D104B13EB45151AD0A3790F4A79
:10BA7000012B9CBFA369EB61E36912686B831B0C0C
:10BA8000AB8232B105F1160105F1180090472B8BFE
:10BA90006B82637903F07F036371BDE8384000F087
:10BAA0006BB9002038BD00BF685BFF1F5C5BFF1FE8
:10BAB00010B500F1080204460121006A00F024FAE2
:10BAC00050B1E3693BB96379A268E26163F07F0337
:10BAD0006371012010BD012010BD00BFF8B583794E
:10BAE00013B182698A4201D20020F8BD022B0F46B1
:10BAF00005461AD007B32B6AE9681C7C4A1E04F17C
:10BB000009037C1EDA40DC40A24211D9EB69AB602C
:10BB100005F1080606E0A968286A00F0BDF9013CB5
:10BB20000028E1D03246002CF5D1EF600120F8BDAD
:10BB30000029EBD0A41AEBE7AF60EF600120F8BD5D
:10BB40002DE9F04F8B46817985B00129804601921D
:10BB500006D0012388F80430002005B0BDE8F08F3E
:10BB600042799107F5D553070AD5D8F80C40D8F893
:10BB700018108C4200F0C680FFF7B0FF0028E8D014
:10BB8000019BD8F80C40002B00F0AF80DFF8C89183
:10BB9000DFF8C8A1019F3AE0002C43D1D8F8081083
:10BBA000002940F08380D8F81C20002A00F0928001
:10BBB000C8F80820C4F50076B6B2BE4239D890F86D
:10BBC00010E04169023A02FA0EF20D44B6F5007F28
:10BBD000154435D1DAF80020954204BF4FF0FF320A
:10BBE000CAF80020584A294610685A46FFF7DCFE7A
:10BBF0000028AED00BF5007B4FF40074D8F80C2071
:10BC0000BF1B1444BFB2C8F80C40002F6DD0D8F849
:10BC100020000579013D05EA542515F0FF05C4F320
:10BC20000804B9D0C4F50076B6B2BE42D8F80820F0
:10BC3000C5D9067C4169023AB2400D4415443E46DE
:10BC40002CB9D8F80C10D8F8182091421BD22846ED
:10BC5000012100F0BBF800283FF47BAF4C4404EB1B
:10BC6000060E744520D00BF1FF31621E0EF1FF3538
:10BC700011F8010F02F8010F9542F9D1C4EB0E0E35
:10BC8000F3443446BAE700F077F800283FF461AF98
:10BC90002E49CAF800500A784C4404EB060E42F0D4
:10BCA000010274450A70DED13446A7E703AA00F00A
:10BCB000F3F800283FF451AFD8F82000244B90F857
:10BCC0002060039A4FF6F871102E18BF19468A4269
:10BCD000FFF46EAF4046FFF7EBFE00283FF439AFAC
:10BCE000D8F82000D8F8082064E7D8F81830A34224
:10BCF0000DD298F80520C8F8184042F0800288F864
:10BD000005200FE0019B002B7FF440AF0AE0114BB0
:10BD100098F805201B682BB1019B1BB142F08002F3
:10BD200088F8052012070AD598F80630002B3FF452
:10BD300010AF4046FFF786FE00283FF40AAF019897
:10BD400005B0BDE8F08F00BF645BFF1F685DFF1F9B
:10BD5000F8FFFF0F5C5BFF1F685BFF1F3832FF1FA0
:10BD600000B583B002AB012203F8011D1946FFF7AD
:10BD7000E7FE03B05DF804FB70B50F4C23780BB9F8
:10BD8000012070BD0D4B0E4D196828680D4AFFF754
:10BD90000BFE70B10C4E316819B9002323700120DD
:10BDA00070BD2868074AFFF7FFFD10B1002333601C
:10BDB000F3E7002070BD00BF685DFF1F3832FF1F32
:10BDC000645BFF1F685BFF1F605BFF1F70B50D4D5D
:10BDD0002B6883420E460ED00446FFF7CDFF08B90C
:10BDE000002070BD084B094A18682146FFF716FD70
:10BDF0000028F5D02C60064B1978314319700120CA
:10BE000070BD00BF3832FF1F645BFF1F685BFF1F00
:10BE1000685DFF1FF8B590F82030C469102B1A4BED
:10BE200005460E4617461B6816D004EBD1149C42FB
:10BE300016D106F07F06154A42F826701449287E6E
:10BE40000A78012842F001020A7018D9A968114A3B
:10BE50000B4413600120F8BD04EB11249C4208D070
:10BE600000212046FFF7B2FF50B195F82030102B8B
:10BE700007D1F6B2054A234622F81670DEE7012004
:10BE8000F8BD2346D5E700BF3832FF1F685BFF1FB0
:10BE9000685DFF1F605BFF1FC36801338B4218D3CF
:10BEA00070B590F82030102B154B044616460D4601
:10BEB000C0691B680FD000EBD11098420FD105F07C
:10BEC0007F01104B53F8213023F070433360012081
:10BED00070BD0020704700EB1120984207D0002170
:10BEE000FFF774FF50B194F82030102BE7D1E9B27E
:10BEF000044B33F811303360012070BD002070BD59
:10BF00003832FF1F685BFF1F2DE9F04F176883B0C1
:10BF10006FB301374FF0000AC36803F1010813B390
:10BF20008B46064691463C46002505E01C461F46CA
:10BF3000F3680135AB4216D9A04538BF022421462B
:10BF400001AA304638BF2746FFF7A6FF631CD91B5E
:10BF500048B1019A002AE9D18B4510D01C46F368FC
:10BF60000135AB42E8D8002003B0BDE8F08FA1F165
:10BF7000010ABAFA8AFA07684FEA5A1ACCE7012C82
:10BF8000F1D9F36801339C42EDD86FF0704221463D
:10BF90003046FFF73FFF0028E5D0A74214D2013C0E
:10BFA000012CE0D9F36801339C42DCD8621C2146A5
:10BFB0003046FFF72FFF0028D5D0A74204F1FF3409
:10BFC00002D0012CEED1CEE7D9F8001059B10129E9
:10BFD000C9D9F36801339942C5D83A463046FFF7CC
:10BFE00019FF0028BFD0C9F80070BAF1000F01D0C6
:10BFF000013737600120B7E70B4B1B7813B90B4BA8
:10C000001B7873B10A4A1378202B08D810B4581C37
:10C01000084C1070E15401205DF8044B7047012377
:10C0200003710020704700BFCE5DFF1F915DFF1FB1
:10C03000CF5DFF1F705DFF1F704700BF024A034BBB
:10C0400010781B78C01A7047CD5DFF1FCC5DFF1FB5
:10C05000064A074913780978994204D90548591CBA
:10C06000C05C117070474FF0FF307047CC5DFF1F10
:10C07000CD5DFF1F945DFF1F054B064A1B781278AC
:10C080009A4286BF044AD05C4FF0FF30704700BF31
:10C09000CC5DFF1FCD5DFF1F945DFF1F70B50D4B85
:10C0A0001B78144613B90C4B1B788BB10B4E3578AB
:10C0B000C5F12103A34202D201221C4602710848A5
:10C0C00022462844254402F043FE3570204670BDC8
:10C0D000184670BDCE5DFF1F915DFF1FCF5DFF1F36
:10C0E000705DFF1F124BDB7803F020034BB1114A48
:10C0F00013780133DBB2012B137012D9122003F035
:10C1000051B910B5122003F0FF0403F04BF90A4BAC
:10C110001B685BB109490A4A0C701078BDE81040F1
:10C120001847084B1B78002BE8D0704710BD00BFA4
:10C1300000600640B85DFF1F6C5DFF1FCC5DFF1FF8
:10C14000CD5DFF1F915DFF1F1D4B1E491E48002244
:10C1500010B41A700B681D4C43F040030B60A270C2
:10C160000378122B1DD0112B25D0194B1B78132BC4
:10C1700012D0102B1AD0134B1B685B0604D5134B3F
:10C180002C21042259709A71104B20218022597160
:10C190009A705DF8044B70470E4B4FF419721A6099
:10C1A000E9E70D4B4FF419721A60DEE70B4B4FF4C1
:10C1B00019721A60DFE70A4B4FF419721A60D4E75C
:10C1C000915DFF1F348004403C32FF1F0060064039
:10C1D0004432FF1F08A004400CA0044000A004400B
:10C1E00004A0044010B5384CE378DBB2D80623D560
:10C1F00010225906E2701ED503F0040303F0FF027B
:10C20000002B33D0314B32491A68324C00230B706B
:10C210002370002A3BD090472378002B37D02E4B39
:10C220001B78294A2D49D02494701371264B012084
:10C2300002220870DA7010BD5A06DDD4A27802F02E
:10C24000100202F0FF0042B313F001031BD1234997
:10C2500020480A780078904281BF1F4B501C9B5C9D
:10C2600008702371184BD0229A7008E01C48164BB6
:10C27000174902700120C02208709A701B79124B76
:10C280000222DA7010BDC023A3702379F7E71249A8
:10C29000002301220B702270C3E7124B1249187061
:10C2A0000322122003F00AF80D4923790A781F2A85
:10C2B000DBB2E4D8064800780028E0D00B4C501CD4
:10C2C000A3540870DBE700BF00600640B45DFF1FA9
:10C2D000695DFF1FCF5DFF1F705DFF1FD05DFF1FFA
:10C2E000CD5DFF1FB85DFF1FE5C00000945DFF1F1F
:10C2F0002DE9F047584C1223E370A37803F0200394
:10C3000082B0002B54D0B423DFF860A1A370DAF818
:10C310000020514C0020E378DBB2934218BF01208B
:10C320009F061A46F7D5002840F08D804B4B1B78AE
:10C33000002B34D003F1FF3C5FFA8CFC0027DAF8C5
:10C340000020DFF82CE1444D0CF1010C3C464FF08D
:10C3500002081EF8013F2B715FFA87F9104601E0D1
:10C360009E0608D5EB78DBB293421CBF1846012429
:10C370009E071A46F4D585F80380EE78F6B2B342EC
:10C380000EBF024632460124F30633D4B30631D53C
:10C39000F30744D401376745DBD1002C4AD1002094
:10C3A00000292ED12E4B00221A7002B0BDE8F08772
:10C3B0002C4DDFF8B8A003F0FF022B680093009E1D
:10C3C000DAF8000005E02B680193019B9B1B0F2B03
:10C3D0001BD8E378DBB2834218BF012213F0200F91
:10C3E0001846F0D192BB20481B4B0024B0220470A9
:10C3F0009A708CE70CBB184B80229A70042000299D
:10C40000D0D0154B80229A70CCE7CAB9124B0021CC
:10C410008022042099709A7002B0BDE8F087C4B9F8
:10C420000D4BB9F1000F4FF080020CBF022003202A
:10C430009A70B7E7CAF80020B1E7CAF80020DAE737
:10C44000CAF80000E2E7CAF800306FE7CAF8003027
:10C45000C9E7CAF80020E3E700600640CF5DFF1F90
:10C46000CE5DFF1F845EFF1F915DFF1F4032FF1FE7
:10C470006F5DFF1F2DE9F0475E4F5F4D5F4E00205F
:10C48000122428703070FC70B87800F0200000286A
:10C4900078D0B420DFF870E1B870490041F00101B4
:10C4A000544FC9B23971DEF8000000240546F9780E
:10C4B000C9B288421CBF0D46012411F0020F084684
:10C4C000F5D0002C40F08C804A480224C470C0781B
:10C4D000C0B2814218BFCEF8000010F011006FD139
:10C4E000002A65D0012A73D0424FDFF81481A021C1
:10C4F000B9703979DEF8004005464FF0020C4FF074
:10C50000A809F978C9B2A14218BF012511F0020F9C
:10C510000C46F6D0013AD2B2012A87F803C008BF10
:10C5200087F802901F2800F101049BBF97F804A030
:10C5300008F800A03C79E0B2012A0C46E1D1002DB8
:10C5400054D1DEF800102B4D0024EA78D2B28A4292
:10C5500018BF012411468A07F7D5002C3DD1254A82
:10C560000224B0211F28D47091702FD82449127949
:10C570000A540130C0B213B11E4B80229A70307041
:10C58000BDE8F087DFF880E0DEF8004000F0FF054E
:10C59000F878C0B2A04218BF01250446A006F7D41F
:10C5A0000DBB184C134800252570B024847074E727
:10C5B000002B104B0CBFA02280229A70BDE8F087A0
:10C5C0000C4B80229A700020BDE8F0871279D2E7E8
:10C5D000084AA82191701279B3E7CEF80010BEE79F
:10C5E000CEF8005070E7CEF80040DAE7CEF8001041
:10C5F000A7E700BF00600640CC5DFF1FCD5DFF1FB9
:10C60000945DFF1F915DFF1F4032FF1FD2B2C9B280
:10C610000123FFF72FBF00BF0548064A10B40123CE
:10C62000054C03704900137021705DF8044B70478E
:10C63000CE5DFF1FCF5DFF1F705DFF1F0121FFF764
:10C6400057BE00BF044B054A1A604FF47A710022AE
:10C6500099601A711A737047BC5DFF1F5CB00100CE
:10C6600070B5044608460D46164609F09FFF0023A4
:10C67000037026602561A060E06070BDC3685A1C2D
:10C6800010B5C2601970C36800220A2904461A70E6
:10C6900016D01F2908D904F108000DC8013B034436
:10C6A0009A4215D0002010BD037D13F01C0FF2D06C
:10C6B000190722D4DA061BD45B07ECD5012010BD84
:10C6C00003680BB180689847A368E360012010BD40
:10C6D000237D626843F0010323752AB19047237DCF
:10C6E000A06803F0FE032375E060C3F3400010BDB3
:10C6F0006368A0689847237DDEE7036880689847F1
:10C70000237DD7E7FFFFFFFF2DE9F8430D460178B2
:10C710004B1E2E2B80460AD82B78421C0133DBB2ED
:10C720002B70904612F8011B481E2E28F6D930298E
:10C7300042D098F80040002C3AD008F1FE090026BB
:10C740000027A4F14103052B01D8073CE4B2A4F172
:10C75000610EBEF1050F9CBF273CE4B2A4F1300E80
:10C76000BEF10F0F4FF000021B4B3046394618D870
:10C7700009F026FA064620460F4609F0BBF90246A4
:10C780000B463046394609F069F8144B002209F08F
:10C7900063F82B78C84503F1010306460F462B705A
:10C7A00003D147EC106BBDE8F88318F8014FC8E7D8
:10C7B0009FED070BBDE8F88398F80130782BB8D1CE
:10C7C0002B78023308F102082B70B2E7AFF3008038
:10C7D0000000000000000000000030400000484061
:10C7E00070B4184E054610F8012BA2F12003DBB2FD
:10C7F0001D2B26FA03F410D9A2F13003092B1DD802
:10C8000005F1FE060020A2F13003092B22F03002D0
:10C8100000EB800407D970BC7047E307ECD50B78B8
:10C8200001330B70DEE70B78AE4203F1010302EB3C
:10C8300044000B70EFD015F8012FE4E7002070BC26
:10C84000704700BF0110002C2DE9F04F604E85B0FD
:10C850008A464FF0010B044610F8013B33B9002023
:10C86000002141EC100B05B0BDE8F08FA3F12C02C4
:10C87000202B0BF10101D2B205D9112A26FA02F5BB
:10C880000CD8EA070AD59AF8003011F0FF0B03F133
:10C8900001038AF80030DED163780446A3F1300248
:10C8A000092A28D92D2BDAD19AF8003001338AF8D9
:10C8B000003063789FED427B302B8DED007B04F1DF
:10C8C00001041ED06FEA0B0B54FA8BFB00260027E5
:10C8D000CDF80CB0B046B946D346039BA3421ED157
:10C8E00042464B46DDE9000109F06AF941EC100BC4
:10C8F00005B0BDE8F08F9FED347B302B8DED007BD4
:10C90000E0D16378782BDDD151462046FFF7FCFE5D
:10C91000DDE9000153EC102B09F052F9A1E714F8FE
:10C92000015BA5F1300A5FFA8AFEBEF1090F3046BD
:10C9300039464FF000024FF0000321D809F0A8FB60
:10C940000022244B48BB504609F0D4F832463B46FF
:10C9500009F060FA02460B464046494608F07EFF61
:10C96000002280468946304639461A4B09F028F99C
:10C9700006460F469BF8003001338BF80030ACE7D9
:10C980002E2DADD1304639460022002309F080FB20
:10C990000028A5D000260F4FECE74046494609F095
:10C9A0000FF980468946504609F0A4F842464B46A6
:10C9B00008F054FF80468946DCE700BFAFF30080F3
:10C9C000000000000000F0BF000000000000F03F89
:10C9D00001C00200000024402DE9F0414FF0000E9C
:10C9E000147890F800800EF1010E5FFA8EFEFCB113
:10C9F000154615F8013F002BFBD1A04505F1010CB0
:10CA000008BF064601D009E09CB112F8017F16F874
:10CA1000014F0133BC42DBB2F6D057B16B7873B132
:10CA200062460EF1010E14785FFA8EFE002CDFD103
:10CA300023460A78134470460B70BDE8F08118460F
:10CA4000BDE8F0812DE9F04F85B09946BDF9387009
:10CA5000BDF83CA0BB1AC1EB090B002BB8BF5B4271
:10CA6000BBF1000FB8BFCBF1000B5B450D4616467E
:10CA70000093804648DC4D453A4633464CDC194627
:10CA800013460A46C5EB09019B1A89B2002B0CB26A
:10CA9000B8BF5B4204EBD474BE42ACBF4FF0FF3270
:10CAA00001224D45039102924FEA640429DC9BB2B6
:10CAB00001930DE0D8F80070BF68B847019BE41AF5
:10CAC000A3B21CB20135002C2DB211DBA94518DB35
:10CAD000009B5B452A46534631464046EADCD8F87F
:10CAE000002053469768294632464046B847E5E756
:10CAF000029A1644039AA94502EB030436B224B203
:10CB0000E6DA05B0BDE8F08F4A462B46B946354611
:10CB10004D4517461E46B2DD304629463E464D4637
:10CB200007468946AEE700BF2DE9F04782B00568A9
:10CB3000BDF82C70BDF9289000970446D5F814A0D4
:10CB400090460D461E46D0472368009709F1FF32F4
:10CB50004244D3F814A029463346204612B2D047A7
:10CB600023680097D3F810A042464B46294620463A
:10CB7000D04720680A97711E2944056909B24B46BF
:10CB800042462046AC4602B0BDE8F047604700BFD1
:10CB900030B583B0013B1344BDF8185004681BB294
:10CBA0008DE828000B46E468A04703B030BD00BF05
:10CBB00030B583B00468BDF818500092013B0B44B7
:10CBC00001951BB2E468A04703B030BD2DE9F047E2
:10CBD0005F1882B0B942BDF92890BDF82C800FDAF9
:10CBE0000C46054692462B68CDF80080214601345C
:10CBF0001E6952464B46284624B2B047BC42F2DB7F
:10CC000002B0BDE8F08700BF10B582B0B0F90C20CB
:10CC10000191016800920022CC69B0F90A301146F6
:10CC2000A04702B010BD00BF704700BFF0B40024A1
:10CC300001264FF6FF75084F07600471C475C48163
:10CC4000048244768675067685824582C18002819B
:10CC500041818281F0BC70477CB001002DE9F04F2A
:10CC60008BB01FFA83FA04929B460193BDF81030F3
:10CC7000BDF85080CAEBCA3E4FEA4E0E1A46036812
:10CC800002920FFA8EF5524404469F68059512B23F
:10CC900043468946B84702992368CAEB01029F6858
:10CCA00012B2434649462046B8471FFA89F5236821
:10CCB000049A9F680AEB050109B243462046B8472B
:10CCC00023680395CAEB0501049A9D6809B243469F
:10CCD0002046A8475B46002B40F38D80039F0299B6
:10CCE000002304937B1C07937B1E06934B1CCAF105
:10CCF000010609934B1E36B20893049A079B95B21E
:10CD0000013205EB030B0492059A0FFA8BFB002E00
:10CD100043465946204602F102020ADB019F92B2C5
:10CD2000013F3FB2164412B2019736B205921FFA84
:10CD300087FA029A276802EB0A090FFA89F94A462C
:10CD4000BF68B847069B5F1B23683FB24A46394617
:10CD5000D3F8089020464346C847029A2368CAEB96
:10CD600002090FFA89F959464A46D3F808B0204615
:10CD70004346D84723684A46394620469F6843467B
:10CD8000B847039B099A03EB0A0905EB020B2368DA
:10CD90000FFA89F90FFA8BFB49465A469F682046DD
:10CDA0004346B847039BCAEB030723683FB25A4682
:10CDB0003946D3F808B020464346D847089BC5EB10
:10CDC000030B23680FFA8BFB49465A46D3F80890A9
:10CDD00020464346C847236839465A469F6820463E
:10CDE000434606EB4506B8470135019B2DB2033695
:10CDF000AB4236B281DC0BB0BDE8F08F2DE9F04FCD
:10CE00009CB28DB09846C4EBC4335B001BB2BDF836
:10CE100060500892B8F1000F0393BDF95C209DF8B3
:10CE20005830049540F3988092B2154689B2099221
:10CE3000059103F002022946C4F101040131D2B286
:10CE400003F0010324B20A91079206934FF0000BFE
:10CE5000824607E0079B002B4ED1029B43450BF116
:10CE6000010B79DA1FFA8BF67500039AADB2002C2C
:10CE700005F1030306F1010102F1020208DB92B29F
:10CE8000144408F1FF3812B224B203920FFA88F862
:10CE90001C440BB20293069B24B2002BDAD0059BF4
:10CEA000DAF80000049ABDF820700092591C0A9B21
:10CEB00000690B971FFA88F9C9EB070203EB4903D6
:10CEC0003144074612B21BB209B25046B8470B9B19
:10CED00009980599049F5A1EC31CDAF800000097B0
:10CEE000921B49442B441BB2076912B209B2504647
:10CEF000B847079B002BB0D0059BDAF80000049AD6
:10CF0000BDF820700092591E0A9B00690B971FFA0A
:10CF100088F9C9EB070203EB4903891B074612B2E4
:10CF20001BB209B25046B8470B9B09980599049F5C
:10CF30005A1EC31CDAF8000000972B44921BC9EB61
:10CF400001011BB2056912B209B25046A847029B03
:10CF500043450BF1010B85DB0DB0BDE8F08F00BF41
:10CF60002DE9F04385B09CB2D0F800E0BDF83080E8
:10CF7000CDF800801F46630016460133121B1BB21A
:10CF8000DEF8104012B205468946A0474FF0000E69
:10CF90000324CDF808803B463246494628468DE8B2
:10CFA0001040FFF72BFF05B0BDE8F0832DE9F04FEF
:10CFB00089B0BDF9484003942546073548BF039D15
:10CFC000BDF94C40BDF85060009648BF0E35ED10DD
:10CFD000002C059543DD0692039A0793631E571EA6
:10CFE0009BB20022BFB201330191804602920493AA
:10CFF00001379346039B002B28DD069B029A13FA08
:10D000008BFA079B0FFA8AFA00249E18802501E00C
:10D01000A7421BD023B2002BB8BF0733DB10A1B24D
:10D0200001F00702F35C45FA02F2134204F1010435
:10D03000EED0019AD8F800301144D3F80890009B44
:10D0400009B252464046C847A742E3D1029B059A1F
:10D0500013440293049B0BF1010B9B45CAD109B009
:10D06000BDE8F08F2DE9F04F8FB08346BDF86040EA
:10D07000B0F90A000594BDF86440079488429DF811
:10D080006840049476DDBBF90C00904272DD062006
:10D0900010FB041000286DDD02EBC400002869DDE0
:10D0A0009BF8190000287AD092B203EB83030D920B
:10D0B0000B9308328BB20C9393B2069306230A9318
:10D0C000BDF810A000230893089B052B6CD0374AAD
:10D0D000D3180B9A9F5C08990C9B0D9CBDF910808E
:10D0E000029701FB0A3213FA81F312B21BB20392C8
:10D0F0000993264625461BE0049B0399012B2AB27F
:10D100004346584639D0DBF800E0059F0197CDF83B
:10D110000080DEF81C90C847029B5B080134029334
:10D12000069BA4B2554456449C42ADB2B6B217D049
:10D13000029BDB07E0D4059B079A0399934258466C
:10D1400032B24346E8D0049F012F1FD0DBF800E045
:10D15000079F0197CDF80080DEF81C90C847DBE7F9
:10D16000089A0A9B0132013B52B213F0FF03089266
:10D170000A93A9D10FB0BDE8F08FDBF80020059B22
:10D18000D2F80890099922B2C847C5E7DBF8002019
:10D19000079BD2F80890099922B2C847BCE7AF2B89
:10D1A00084BF0133DBB27FE7002794E7A4B001001E
:10D1B000F0B50A2985B0044629D00D2924D0458A26
:10D1C000877D868AB0F910200B46B0F90E108DE8E5
:10D1D000E000FFF747FFA27DE389207E91B201EBDB
:10D1E000410503EB45031BB2E38168B1B4F90A00C2
:10D1F000A2EB820200EB4202934205DD238A002269
:10D2000003EBC1012182E281012005B0F0BD038A58
:10D21000817D002203EBC1030382C281012005B09E
:10D22000F0BD00BFC1810282704700BF002908BF66
:10D2300001218175704700BF41828282704700BF23
:10D24000C07D7047B0F90A00704700BFB0F90C000C
:10D25000704700BFF0B5C47DBDF81450022C75D0E6
:10D26000032C6ED0012C32D0002A79DBB0F90840B3
:10D27000944265DD002978DBB0F906605818B042A9
:10D28000C4BF731A1BB2002B5ADD002A1046B8BF68
:10D29000D01D012440F3CF0002F00702704E01EBD5
:10D2A000C01104FA02F2A5423144D2B200F0A480C7
:10D2B000C0F09580022D43D1013B11FA83F04B1E43
:10D2C00013F8011F514083421970F9D1F0BDC48891
:10D2D000013CA21A12B2002A7BDBB0F9064094424C
:10D2E0002EDD00293DDBB0F908605818B042C4BFFC
:10D2F000731A1BB2002B23DDC9B2C808584C02EBCD
:10D30000C01211F00701DBB204EB020039D0C1F109
:10D310000801C9B2534E8B42765C2AD2C3EB010E90
:10D32000FF2747FA0EF7012D06EA070674D06ED3E1
:10D33000022D40F09480A75C7E40A6548B421DD203
:10D34000F0BD0489E41A611A09B2C4E70689C488E9
:10D35000013EB21AE41A12B2611A002A09B285DA41
:10D36000F0BD0B441BB20021BDE70B441BB20021F2
:10D3700082E7012D50D04AD3022DDCD05B1ADBB2FC
:10D380008030072B18D9022D4ED0A3F10806C6F322
:10D39000C406B11C00EBC111012D0CBFFF240024F9
:10D3A00000F1800202F8804C80328A42FAD10136C4
:10D3B00000EBC61003F00703002BC1D02A4A012D51
:10D3C000D35C2DD006D3022DBAD10278534003701E
:10D3D000F0BDF0BD027822EA03030370F0BD013B0B
:10D3E000D24311FA83F0D2B24B1E13F8011F114041
:10D3F00083421970F9D1F0BD013B11FA83F04B1E45
:10D4000013F8011F114383421970F9D1F0BDA75CD5
:10D4100027EA0606A65491E7A75C3E43A6548DE78B
:10D42000027813430370F0BDA3F10805C5F3C405EA
:10D43000AC1C00EBC41400F1800212F8801CC9433C
:10D4400002F8801C8032A242F7D1013513F00703A5
:10D4500000EBC5103FF474AF034AD35CB5E7F0BDF1
:10D460005832FF1F5032FF1F4832FF1FF0B5C47DF6
:10D47000BDF81450022C76D0032C6FD0012C37D07D
:10D4800000297ADBB0F906408C4230DD002A79DBD6
:10D49000B0F908609818B042C4BFB31A1BB2002B91
:10D4A00025DDD2B2D008754C01EBC01112F0070295
:10D4B000DBB204EB010071D0C2F10802D2B2704EAF
:10D4C0009342B65C62D2C3EB020EFF2747FA0EF717
:10D4D000012D06EA070600F0AC80C0F0A580022D01
:10D4E00040F0CA80675C7E406654934253D2F0BDE0
:10D4F000C488E41AA21A12B2002977DBB0F90840F6
:10D500008C42F4DD002A39DBB0F906609818B0428D
:10D51000C4BFB31A1BB2002BE9DD00290846B8BF0F
:10D52000C81D012440F3CF0001F00701534E02EB68
:10D53000C01004FA01F1A54206EB0002C9B268D09E
:10D540005AD3022DD3D1013B12FA83F0531E13F8A4
:10D55000012F4A4083421A70F9D1F0BD0489013C81
:10D56000611A09B2C8E7C6880489013E711AE41A33
:10D5700009B2A21A002912B284DAF0BD13441BB218
:10D580000022C1E713441BB2002281E7012D50D0D5
:10D590004AD3022DA6D09B1ADBB28030072B18D9B4
:10D5A000022D4ED0A3F10806C6F3C406B11C00EB51
:10D5B000C111012D0CBFFF24002400F1800202F8EC
:10D5C000804C80328A42FAD1013600EBC61003F05B
:10D5D0000703002B8BD02B4A012DD35C2DD006D313
:10D5E000022D84D1027853400370F0BDF0BD027863
:10D5F00022EA03030370F0BD013BC94312FA83F032
:10D60000C9B2531E13F8012F0A4083421A70F9D190
:10D61000F0BD013B12FA83F0531E13F8012F0A43A9
:10D6200083421A70F9D1F0BD675C27EA060666549A
:10D630005BE7675C3E43665457E702781343037029
:10D64000F0BDA3F10805C5F3C405AC1C00EBC41480
:10D6500000F1800111F8802CD24301F8802C803138
:10D66000A142F7D1013513F0070300EBC5103FF4D9
:10D670003EAF044AD35CB5E7F0BD00BF5832FF1F90
:10D680005032FF1F4832FF1FF8B50D1E06DB14464F
:10D690001F460646FFF7D6FD854200DBF8BD002C8D
:10D6A000FCDB3046FFF7D2FD8442F7DA3046FFF765
:10D6B000C7FD02284BD0032843D0012804D1F388AA
:10D6C000013B1B1B2C461DB2012F03D026D3022F7A
:10D6D00012D0F8BD002C2346B8BFE31D43F3CF039F
:10D6E00005EBC3151E4804F00704435D012101FA50
:10D6F00004F41C434455F8BD002C2346B8BFE31D79
:10D7000043F3CF0305EBC315154804F00704435D4D
:10D71000012101FA04F45C404455F8BD002C234675
:10D72000B8BFE31D43F3CF0305EBC3150C4804F06A
:10D730000704435D012101FA04F423EA040444557B
:10D74000F8BD3389013B5B1B25461CB2BCE7F18861
:10D7500032890139013A4D1B141B2DB224B2B3E7B3
:10D760005832FF1F38B5402204460D468021FFF78E
:10D770005DFAFF23044AE577237784F82030A37706
:10D7800063772260204638BDACB501004FF480625B
:10D790000021014809F04CBA5832FF1F70B590F9CA
:10D7A0001C3001334CD0C26A90F8363014782343D1
:10D7B0001370026B90F83740137823EA0403137058
:10D7C000C26A90F83640137823EA0403137090F885
:10D7D00021301BBB082480220FE090F834302E78D3
:10D7E00033432B70856A90F835302E78013C43EA3C
:10D7F00006034FEA52022B701BD0856A90F8356001
:10D800002B7823EA06032B701142456AE5D190F884
:10D8100034602B7823EA06032B70E3E7124B4FF0BA
:10D820000042DA621C465963E36A0F4A002BFBDAB6
:10D83000936BC26A90F8363011780B43137070BD49
:10D840000C4690F91A100948FEF7E6FE0021074839
:10D85000FEF7D2FB21460548FEF7CEFB0348BDE8A4
:10D860007040FEF7EBBE00BF00C00240BC5DFF1F72
:10D870002DE9F0410E4690F91C10827601310446E4
:10D88000C676984600F08E800121807F784F01F0A7
:10D89000F3FD012194F8200001F0EEFD94F9203011
:10D8A00094F91E2057F83330E362012584F836508E
:10D8B00094F8213057F83220226384F83750002B37
:10D8C00000F0BA80FDF7E4FD6A48FDF729FEB8F1E3
:10D8D000000F6DD1AE212046FFF760FFD521204615
:10D8E000FFF75CFF80212046FFF758FFA821204664
:10D8F000FFF754FF3F212046FFF750FFD32120467A
:10D90000FFF74CFF00212046FFF748FF402120464B
:10D91000FFF744FF8D212046FFF740FF012E5ED028
:10D9200014212046FFF73AFF20212046FFF736FF5B
:10D9300000212046FFF732FFA1212046FFF72EFFEE
:10D94000C8212046FFF72AFFDA212046FFF726FFED
:10D9500012212046FFF722FF81212046FFF71EFFFC
:10D96000CF212046FFF71AFFD9212046FFF716FFE7
:10D97000F1212046FFF712FF2046DB21FFF70EFFC3
:10D9800020464021FFF70AFF2046A421FFF706FFAB
:10D990002046A621FFF702FF2046AF21BDE8F04157
:10D9A000FFF7FCBE3448FEF7CFFBB8F1000F91D073
:10D9B000E07F012101F060FD0121E07F01F048FDE1
:10D9C000012001F081FD0021E07F01F041FD0A20EE
:10D9D00001F07AFD0121E07F01F03AFD7AE720466F
:10D9E0001021FFF7DBFE20462021FFF7D7FE20465F
:10D9F0000021FFF7D3FE2046A121FFF7CFFE2046EE
:10DA0000C821FFF7CBFE2046DA21FFF7C7FE2046EC
:10DA10001221FFF7C3FE20468121FFF7BFFE2046FB
:10DA20009F21FFF7BBFE2046D921FFF7B7FE222139
:10DA30002046FFF7B3FE9FE72946207F01F01CFD3B
:10DA40002946607F01F018FD94F91D3094F91C20DF
:10DA500057F83330A36284F8355094F8213057F8E2
:10DA60003220626284F83450002B3FF430AF29E753
:10DA700048B60100000002B8BC5DFF1F2DE9F84365
:10DA800021210446FFF78AFE20460021FFF786FE8B
:10DA900020467F21FFF782FE20462221FFF77EFEEF
:10DAA00020460021FFF77AFE20460721FFF776FE89
:10DAB00094F91C30013357D0E26A94F8363011786B
:10DAC0004C4F4D4D0B431370226B94F83730117847
:10DAD0000B431370E26A94F83610137823EA0103BB
:10DAE000137007F5806EA8464FF0004C94F8213073
:10DAF00017F8016F33BB0821802212E094F834300C
:10DB000090F8009049EA03030370A06A94F8353056
:10DB100090F80090013949EA03034FEA520203707A
:10DB200018D0A06A94F83590037823EA09030370AB
:10DB30001642606AE2D194F83490037823EA09032C
:10DB40000370E2E7C5F82CC06E63EB6A002BFCDAC9
:10DB5000D8F838307745C9D1E26A94F83630117870
:10DB60000B431370BDE8F883244B254F5A780025EA
:10DB70001C2A4FF01C014FF080029D7008BF4FF02F
:10DB80000C08597018BF4FF048089A7094F91A1091
:10DB90001C48FEF741FD40211A48FEF72DFA05F119
:10DBA0001006B6B2795D17480135ADB2FEF724FA1A
:10DBB000B542F7D11348FEF741FDB5F5806FE5D1C9
:10DBC000B8F10C0F0DD0B8F1480F01D0BDE8F883C3
:10DBD0000A4B00202C218022987059709A70BDE861
:10DBE000F883064B00201C218022987059709A708F
:10DBF000BDE8F8835732FF1F00C0024000600640B6
:10DC00005832FF1FBC5DFF1F70B500F1180400F50E
:10DC1000C47500F17806F4E8020105A3D3E90023F6
:10DC200007F0CEFFB442E5E80201F4D170BD00BFB9
:10DC30000000006007905F3F2DE9F04F90F8D8306A
:10DC4000C3F10103DBB200EB830E80F8D830DEF8BD
:10DC5000E8408FB0002C6BD190F883518246002DA4
:10DC600047D0062D00F02A8300F25A81032D00F0E0
:10DC70002F8300F20D82012D00F04E82022D40F024
:10DC80001883D0F83031D0F83451CD49CD4A0868E6
:10DC90001470591B0029B8BF4942814204DA1D445F
:10DCA0000121CAF850511170DAF83841191B0029C6
:10DCB000B8BF4942884207DD117801F154051C4480
:10DCC00001314AF825401170DAF83C41191B00294E
:10DCD000B8BF4942884240F3CB831178BAF8E46078
:10DCE00001F15400234401314AF82030117003251A
:10DCF0000CE2B54AD0F8381213680C930C9B5B1AEF
:10DD0000F92B73D913680D93A3A1D1E900019AF8F7
:10DD100008300D9ACAF838229A07CAE98A01BAF877
:10DD2000E4605FD526F08006B6B2AAF8E46059E058
:10DD300000EB030ADE009AF8808108F1FF3707F054
:10DD4000070707F1FF3C0CF0070C0CF1FF3101F065
:10DD500007014D1E05F00705B0446A1E08F13C0896
:10DD600002F007023144B44440F8284006EB0209AF
:10DD700035443744013A3C310CF13C0C02F00702C7
:10DD80003C353C3709F13C0950F82CC050F82110C3
:10DD900050F8255050F8277050F8299002F1FF38BC
:10DDA00008F00708324461443C3200EB031C46444F
:10DDB0003C443C364D4450F82220CCF83041CCF85D
:10DDC0003411CCF838518AF8808150F8261001249B
:10DDD0000A440021CCF83C2180F88341CEF8E810B9
:10DDE000B0F8E46030460FB0BDE8F08FD0E98A4566
:10DDF000D0E98C232946204607F02EFD21F0004370
:10DE0000194667A3D3E9002308F06AF9002800F057
:10DE10002A810023CAF80430CAE98C4562A3D3E9F9
:10DE200000232046294608F03DF9002800F006812D
:10DE3000002200232046294608F052F9002800F06D
:10DE4000FD8022462B4654A1D1E9000107F0E2FFF4
:10DE5000DAE97A2306460F4608F042F9002800F076
:10DE6000ED803946304608F0A3F951A3D3E90023E9
:10DE7000CAF800003946304608F032F970B1304631
:10DE800039460022514B07F09BFE49A3D3E90023FA
:10DE900006460F4608F024F90028F0D19FED467B96
:10DEA0000C238DED007B0AF118094FF00008069352
:10DEB000CDE90467CDF81CA01EE0AB46DDE90023E8
:10DEC0005046594608F0EEF808F1010880B105F116
:10DED000004303930294D9E91623DDE9020107F018
:10DEE0006FFE08F065F9079B0697CDE900AB586017
:10DEF000B8F10C0F00F06C82F9E80223DDE90401AF
:10DF000007F0AAFC0022002304460D4608F0E8F8BA
:10DF10005FFA88F7A2460028CFD105F1004BCDE784
:10DF2000092D00F00F8200F2A180072D00F0B881CA
:10DF3000082D40F0BE81264B93F8008008F1540371
:10DF4000012750F823B0234B58461F7007F0D2FD2D
:10DF50001C4B93F80090204BCDE90001C3E9000170
:10DF6000B9F1000F00F07082154B07951B68CDF8D2
:10DF700020A01846194B06941B680293184B93ED8A
:10DF8000007B0AF5A8768DED047BA6462246214645
:10DF900023460546A24632E00000000080841E4170
:10DFA00000000020A375843F000000007C841E4117
:10DFB000000000C0F5C83F400000000000003E40E7
:10DFC0005C5EFF1F7C5EFF1F845EFF1F0000E03F62
:10DFD0007D5EFF1F685EFF1F705EFF1F785EFF1F84
:10DFE000605EFF1FCDE9040192460692114602973A
:10DFF0000134E3B2994506F1040640F2BF81984529
:10E00000F6D03068C0EB0B03002BB8BF5B42AB42CD
:10E0100007F1010EECDA5FFA8EF707F06BFD0246AE
:10E020000B46DDE9000107F019FC029BBB42CDE97C
:10E0300000014FF00102D5DB1146D9E79AF808300C
:10E04000BAF8E4609B0744BF26F08006B6B206F437
:10E05000784646F4E166002346F00406AAF8E46038
:10E06000CAF80030BEE6BAF8E460BBE60A2D00F05C
:10E07000B480FE2D40F01D81037AB0F8E46099076A
:10E0800004D526F08006B6B2A0F8E460FF253DE096
:10E09000042D66D0052D40F00C81D0F84421D0F835
:10E0A0004811AD48531A002B0068B8BF5B42834249
:10E0B00008DAAA4C237803F15405561801334AF8BC
:10E0C00025602370DAF84C31D41A002CB8BF6442B2
:10E0D000A04208DDA14D2C7804F154061A44013405
:10E0E0004AF826202C70CA1A002AB8BF5242904221
:10E0F00040F3B6819948BAF8E460027802F154041A
:10E100000B4401324AF824300270062530468AF862
:10E1100083510FB0BDE8F08FD0E97E450022904BCF
:10E120002046294607F0DCFF002800F086819AEDA2
:10E13000037AF0EE087AC7EE276A16EE900A07F027
:10E14000EBFC22462B4607F03BFD07F0E9FF824B34
:10E15000BAF8E46018600928DCBF0A221A600225B8
:10E16000D4E7D0F84031D0F844017B491A1A002A8C
:10E170000968B8BF52428A4208DA784C227802F124
:10E180005405184401324AF825002270DAF8480193
:10E190001A1A002AB8BF5242914208DD6F4C227809
:10E1A00002F15405184401324AF825002270DAF8C9
:10E1B0004C011A1A002AB8BF5242914240F35481CE
:10E1C0006649BAF8E4600A7802F154040344013263
:10E1D0004AF824300A70052598E7624B624C1868AB
:10E1E00007F088FC0022614B07F0EAFC02460B4670
:10E1F000D4E9000107F00EFEDAE97E8942464B467B
:10E2000004460D4607F028FB534B0646186821F0DC
:10E21000004707F06FFC02460B463046394607F0D0
:10E2200041FF002800F0FC809AF80830BAF8E4605A
:10E23000980704D546F08006B6B2AAF8E4604246D4
:10E240004B462046294607F009FBDAE9802307F010
:10E2500005FBDAE9822307F001FBDAE9842307F002
:10E26000FDFADAE9862307F0F9FA0022404B07F0BD
:10E27000D1FD404A9AF8203212680B925A1C0AEBE0
:10E28000C303CAE98A01C3E98089CAE97E4502F06D
:10E2900003020B9FCAF838728AF82022002535E75E
:10E2A000354A304B147001221A60B0F8E46008253A
:10E2B0002CE70135EDB2BAF8E46027E7274B027C82
:10E2C0001B78B0F8E4609A423FF6E0AE07251DE700
:10E2D000D0F83421D0F838111F48531A002B0068A9
:10E2E000B8BF5B42834208DA1C4C237803F1540523
:10E2F000561801334AF825602370DAF83C31D41AF5
:10E30000002CB8BF6442A04208DD144D2C7804F103
:10E3100054061A4401344AF826202C70CA1A002ADE
:10E32000B8BF5242904240F397800C48BAF8E4607C
:10E33000027802F154040B4401324AF8243002708E
:10E340000425E3E6074B427C1B68B0F8E4609A4280
:10E35000D4BF0A25FE25D9E65C5EFF1F7C5EFF1F49
:10E3600000407F40785EFF1F605EFF1F000020407E
:10E3700000001840845EFF1F7D5EFF1F5046079D12
:10E38000DDF820A000297AD122B19DED007B3D4B24
:10E3900083ED007B069B13B13B4B029A1A6020B1C0
:10E3A0009DED047B394B83ED007B08F101085FFA9A
:10E3B00088F8374BC14583F800804AD9354BBAF805
:10E3C000E4601B7801334B45FFF6A0AE09259DE6BE
:10E3D000069BDDF81CA00AEBC304DDE90001D4E9CB
:10E3E0006223DDE9046707F05DFE002844D1324670
:10E3F0003B46D4E9060107F073FE002814BF4FF432
:10E40000C0664FF44076BAF8E430069A23F4FF630E
:10E4100023F0070313431E43B6B2AAF8E460E1E415
:10E42000CAE97E45CAE98645CAE98445CAE9824502
:10E43000CAE98045BAF8E46030E7174BBAF8E460FF
:10E4400064221A60022561E6114B08F1010883F885
:10E450000080BAF8E460B9E7BAF8E460042555E64C
:10E46000BAF8E460062551E6BAF8E46005254DE601
:10E47000BAF8E460032549E64FF4A066C3E7054B0C
:10E480001F7081E7705EFF1F785EFF1F605EFF1FD9
:10E490007D5EFF1F685EFF1F5C5EFF1F38B5104A80
:10E4A000104B00F1AC050021044600F0DBFA2846D1
:10E4B0000D4B0E4A012100F0D5FA0D490D4A0223F9
:10E4C00084F858310B68C4F8605143F00063C4F815
:10E4D0005C410B60136843F000632046136038BD55
:10E4E000D8B5010030B60100D4B5010004B6010072
:10E4F0003C80044030800440012A03D0D0F85C0105
:10E5000000F040B9D0F8600100F03CB9012903D017
:10E51000D0F85C0100F090B8D0F8600100F08CB841
:10E52000012A03D0D0F85C0100F076B9D0F8600180
:10E5300000F072B9012A03D0D0F85C0100F0EEB906
:10E54000D0F8600100F0EAB9012A03D0D0F85C01EC
:10E5500000F074B8D0F8600100F070B801290CBF69
:10E56000D0F86031D0F85C315B6B5B0103F1844320
:10E57000D869003018BF0120704700BF531C0FD06E
:10E5800052B1012A3AD0D0F85C21D38A9BB243F031
:10E590000103D38200207047D0F85C0100F046BB35
:10E5A00070B50446D0F85C010D4600F01DFB29460D
:10E5B0000646D4F8600100F017FB76B110B3D4F82A
:10E5C0005C31D4F86001597D427D914298BF184674
:10E5D0002946BDE8704000F029BBD0B9D4F85C11E1
:10E5E000D4F86021CB8A9BB243F00403CB82D38A58
:10E5F0009BB243F00403D382002070BDD0F86001C9
:10E6000000F014BB2946D4F85C01BDE8704000F06E
:10E610000DBB2946D4F86001BDE8704000F006BB90
:10E6200001290CBFD0F86031D0F85C315B6C186800
:10E6300000B27047FFF7F4BFC069704738B5437E3A
:10E6400004460D46DBB9A36D012D4FEA43131DD9D6
:10E6500003F184430122042D9A6009D9082D23D99E
:10E66000102D1AD91A605A60202384F8203038BD42
:10E6700000221A605A60042384F8203038BD00F06C
:10E680001BF8A36D012D4FEA4313E1D803F1844237
:10E690000023936084F8203038BD002183E8060011
:10E6A000102384F8203038BD00211A6059600823F7
:10E6B00084F8203038BD00BFF8B5836D5B0103F1ED
:10E6C00084430446DA6942B102F0EEF9A36D5B01BE
:10E6D00003F18443DA69002AF6D19B6923B1E38A06
:10E6E0009BB243F00203E38272B6637E002B37D005
:10E6F000216F636FA26F0F68E06F1B68D4F8801002
:10E7000016680568D4F8842009681268606E3B4476
:10E7100033442B440B441344C3F34E03D4F88C50BE
:10E72000D4F89010D4F8942043F4004303602F6889
:10E73000D4F898000B681668D4F89C100568D4F8D3
:10E74000A02009681268A06E3B4433442B440B445C
:10E750001344C3F34E0343F4004300220360627684
:10E7600062B6A37E6BB10221204600F055F802216B
:10E77000204600F0D3F804212046FFF75FFF002376
:10E78000A376F8BD38B5C37E8B421ED0437E0446C7
:10E790000D46002B33D1072D18D90D2D22D8A5F108
:10E7A0000803012B13D9A5F10A03012BE36B4FEAF0
:10E7B000431303F1844325D90020012140F6FF7261
:10E7C000D8609960E261E57638BD38BD0825E36B15
:10E7D0005B0103F184430022FF21DA609A60E1616A
:10E7E000E57638BDE36B5B0103F1844301224FF60C
:10E7F000FF711025DA609A60E161E57638BDFFF7B8
:10E800005BFFC8E70120002140F2FF32D860996029
:10E81000E261E57638BD00BF90F824308B4258D0D5
:10E8200070B5437E05460C46002B33D10F2C2A6C65
:10E8300017D8520102F184420021D1606CBBEB6B0E
:10E8400094605B0103F1844301210A46D9610846C3
:10E850000026012183E842009A61586185F824402E
:10E8600070BDEB6B52015B0103F1844302F1844202
:10E8700001210020102CD160596019605861986105
:10E8800028D0112C2BD0122C17D0132CE6D191604C
:10E89000D861E3E7FFF710FFC8E7012C10D0022C86
:10E8A00029D0032C30D0042C1CD0052C1AD0EB8A94
:10E8B0009BB243F00103EB8270BD9060D861CDE75D
:10E8C000EB6B91605B0103F184432246DC612046DF
:10E8D000BEE770479060D96185F8244070BD9160B3
:10E8E000D961BBE7EB6B5B0103F1844301209060CE
:10E8F000D9610A46ACE7EB6B91605B0103F184439D
:10E900000846D9610122A3E7EB6B5B0103F1844365
:10E91000012090600246D961084699E738B590F821
:10E9200025308B4222D0437E05460C46FBB97CB194
:10E93000012C2ED0022C39D0E31E012B1CD9052C22
:10E9400014D1EB6B5B0103F1844300221A610BE0ED
:10E95000EA6B2B6C52015B0103F1844302F18442A8
:10E96000012111615C601C6085F8254038BDFFF70E
:10E97000A3FE002CDCD1EBE7EA6B2B6C52015B01B0
:10E9800003F1844302F1844201211161596019604D
:10E99000EAE7EA6B2B6C52015B0103F1844302F15D
:10E9A0008442002114611C605960DDE7EA6B2B6C26
:10E9B00052015B0102F18442012103F184430020F2
:10E9C000116183E80300CFE7026C38B552010446B9
:10E9D000002302F18442C37601210220E3616375C2
:10E9E00084F8203084F8210084F8223084F8231041
:10E9F00084F8243084F825306376E382116194F83A
:10EA000021208AB1164A1370626D84F821305201B8
:10EA100002F18442136072B6A36D61765B0103F16B
:10EA200084439961D96162B6012520460A21FFF726
:10EA3000A9FE2046A5762021FFF700FE29462046A4
:10EA4000FFF7EAFE29462046FFF768FF72B6A36D7E
:10EA500065765B0103F184439D61DD6162B638BD7B
:10EA6000014007402DE9F0418262434E434AC362B0
:10EA7000CD042E442A44066442644FF40033DFF888
:10EA800040E13F4F3F4E404A036305F1804C3F4B0E
:10EA9000DFF830810176AE442F442E442A440CF531
:10EAA0006C3CC0F834C0C0F838E0C7632B448665BE
:10EAB000C265DFF814C1DFF814E1354F354E364A30
:10EAC0000366364BA844AC44AE442F442E442A443B
:10EAD000C0F84880C0F84CC0C0F850E047652B44EF
:10EAE00046678267DFF8E880DFF8E8C0DFF8E8E033
:10EAF0002B4F2C4E2C4AC3672C4BA844AC44AE443D
:10EB00002F442E442A44C0F86480C0F868C0C0F87E
:10EB10006CE007672B44C0F88860C0F88C20DFF8F1
:10EB2000BC80DFF8BCC0DFF8BCE0214F214E224A98
:10EB3000C0F89030214BAC44AE442A44A8442F4442
:10EB40002E4401EB810503EBC50327310446C0F8D1
:10EB50008080C0F884C0C0F894E0C0F89870C0F815
:10EB60009C60C0F8A020C0F8A43080F8A810FFF77F
:10EB70002BFF2046BDE8F0810CB0034010B00340ED
:10EB800008B0034024B0034050B0034028B0034015
:10EB900020B003403CB0034040B0034044B00340C9
:10EBA00038B0034054B0034058B003405CB0034059
:10EBB00064B0034068B003406CB003401060034091
:10EBC00004B0034014B0034018B003401CB003402D
:10EBD0002CB0034030B0034034B0034048B0034091
:10EBE0004CB0034060B00340282907D8836A585CC2
:10EBF00000F01F001F3818BF012070470020704729
:10EC0000836A026C5B5C5201190602F184424CBFBC
:10EC100000210121116172B690F82210426B03F0BD
:10EC20001F0303EB8113136062B67047282938B5C0
:10EC3000044630D8836A5B5C03F01F031F2B2AD085
:10EC4000437E0D46002B2DD1636D5B0103F18443A0
:10EC5000DB69003318BF0123237583B172B6626B81
:10EC6000E36B126822601A68236CE2601A68636DB5
:10EC700022611A68A36D62601B68A36062B6A36D0F
:10EC80005B0103F18443002220462946DA60FFF746
:10EC9000B7FF012038BDE38A9BB243F00403E3824F
:10ECA000002038BDFFF708FDCEE700BF1F490A78F6
:10ECB0001E4B1006FBD5F0B51D481E4D1E4C1F49BE
:10ECC0000022302709261F702E70227002700A70F1
:10ECD00072B680221A701A7814491206FBD5DFF832
:10ECE00054E0154D124B1548154A164F164E174C49
:10ECF0004FF0300C81F800C04FF0060C8EF800C0C9
:10ED00004FF0000E85F800E004251D700C250570FD
:10ED1000FF23FE2580203B70137033700A46257058
:10ED2000087013781B06FCD5F0BD00BF0000024040
:10ED300005000240070002400600024004000240B5
:10ED40000A0002400B000240090002400800024095
:10ED5000844641EA000313F003036DD1403A41D3E6
:10ED600051F8043B40F8043B51F8043B40F8043BA5
:10ED700051F8043B40F8043B51F8043B40F8043B95
:10ED800051F8043B40F8043B51F8043B40F8043B85
:10ED900051F8043B40F8043B51F8043B40F8043B75
:10EDA00051F8043B40F8043B51F8043B40F8043B65
:10EDB00051F8043B40F8043B51F8043B40F8043B55
:10EDC00051F8043B40F8043B51F8043B40F8043B45
:10EDD00051F8043B40F8043B51F8043B40F8043B35
:10EDE000403ABDD2303211D351F8043B40F8043BD5
:10EDF00051F8043B40F8043B51F8043B40F8043B15
:10EE000051F8043B40F8043B103AEDD20C3205D3E4
:10EE100051F8043B40F8043B043AF9D2043208D0DC
:10EE2000D2071CBF11F8013B00F8013B01D30B884E
:10EE300003806046704700BF082A13D38B078DD02C
:10EE400010F003038AD0C3F10403D21ADB071CBFFE
:10EE500011F8013B00F8013B80D331F8023B20F868
:10EE6000023B7BE7043AD9D3013A11F8013B00F8A1
:10EE7000013BF9D20B7803704B7843708B78837029
:10EE80006046704730B42948294A2A4B2A4D6024ED
:10EE9000E121047011701B78284C082B30D00A2B0C
:10EEA0002748284937D00C2B0CBF35225D2212236E
:10EEB0002A60236002600B60234B24491B78244A9C
:10EEC000BBB101230B601360224B23491B78234AFB
:10EED000012B26D9042B0FD9082B1ED9102B94BF38
:10EEE000862387230B6013601D4B01221A7030BCF0
:10EEF00070470B601360E7E784230B601360F3E750
:10EF000000F58E200F490830212213232A60236048
:10EF100002600B60D0E73922F7E785230B601360AE
:10EF2000E2E780230B601360DEE700BF004007408C
:10EF3000014007405936FF1F08B003400CB00340A2
:10EF400008B00B400CB00B407F5EFF1F20B00340A9
:10EF500020B00B405A36FF1F24B0034024B00B40B2
:10EF60007E5EFF1FF0B51B4B1B4E596818689A68F0
:10EF7000DB6885B06C460FC4337899071DD5174AF6
:10EF8000174C1378174913F0700318BF1370164A03
:10EF9000164B8027177000263220052226706D46FA
:10EFA00008701A7072B6043C45F001052046A84767
:10EFB00062B6237813F0700309D10D4B064901E0C6
:10EFC000013B02D00A78D207FAD505B0F0BD237014
:10EFD00005B0F0BD34B6010001000240000002405F
:10EFE000040002400B000240070002400A000240F9
:10EFF000410D0300B0F5805F0AD210B5094B1B78B4
:10F00000DB07044606D504F1A0500078C0B210BD5D
:10F0100000207047FFF7A6FF04F1A0500078C0B2AF
:10F0200010BD00BF01000240B1F5805F60D2F0B5B5
:10F03000374B1B78DB0785B00C465AD5B2F5805F9D
:10F0400003D28B18B3F5805F5ED3C1F58052314D8A
:10F050002F4B14F0030118D002292DD004F1A05633
:10F06000077831788F4200F1010008D0297811F03B
:10F07000700118BF297037701978C907FCD5013A9B
:10F080000134002AE5D105B0F0BD032A14D904F1FA
:10F09000A05650F8047B31688F4208D0297811F0CF
:10F0A000700118BF297037601978CF07FCD5043A72
:10F0B0000434002ACDD1E6E7012ACFD004F1A057CD
:10F0C00090F801E001783E8841EA0E218E4200F17D
:10F0D000020008D02E7816F0700618BF2E70398006
:10F0E0001978CE07FCD5023A0234002AB1D1CAE71A
:10F0F0007047039202910190FFF734FF01A807C8FF
:10F10000B2F5805F9DD3A0E7002AA0D1BBE700BF86
:10F110000100024000000240024A136801331360FC
:10F12000704700BF845EFF1F08B5104C08E02368DD
:10F1300059050DD423681A050FD42368DB0411D4B4
:10F1400023685803F3D500F03DFB23685905F1D53A
:10F1500001F0FAFF23681A05EFD502F05BFB236884
:10F16000DB04EDD502F00CFEEAE700BF348004407A
:10F1700008B5FFF7D9FF00BF014B10221A80704776
:10F1800000200540704700BF024A13681844106011
:10F19000184670475C36FF1FFEE700BFEFF3138091
:10F1A00070B9EFF310836BB9EFF305825AB94FF4DE
:10F1B0008070EFF311832BB1984228BF1846704737
:10F1C0004FF0FF3070470F2A01D81846F1E7014B86
:10F1D000D05CEEE7F0E300E0704700BF10B4114BE5
:10F1E00053F8302092F8804234B1012379B182F88B
:10F1F00080305DF8044B704703EBC0035B681A680E
:10F2000051B922F002021A605DF8044B704782F88F
:10F2100000315DF8044B704742F003021A605DF85C
:10F22000044B704748B60100234A02EBC003012992
:10F230005B6813D004291DD052F83020002082F8DA
:10F24000800219B94FF480721A60704702291ED0EB
:10F25000032924D040F203121A60704752F830009C
:10F260004FF4A27280F880121A601A6822F020020D
:10F270001A60704752F830104FF4A272012081F8E2
:10F2800080021A601A6842F020021A6070474FF438
:10F2900080721A601A6842F003021A6070474FF4D5
:10F2A00080721A601A6842F002021A601A6822F02C
:10F2B00001021A60704700BF48B601002128F0B46F
:10F2C00015D8042A13D8DFE802F04B454814420051
:10F2D000284E72B6136823F4702343F08070C2F393
:10F2E00084042843136046F82410106062B6F0BC12
:10F2F00070474FF41025204A204B214CC3F82C4175
:10F3000002EBC0001F4C4268C3F8304102F1404498
:10F310001D4E1E4FC3F83461A4F592201C4EC3F855
:10F3200038717C28C3F83C61D2D9A4F594237C2B96
:10F3300019D9A4F596237C2B17D9A4F598237C2BF7
:10F3400015D9A4F59A247C2CD1D8124EC1E74FF4DC
:10F350003025D0E74FF44025CDE74FF42025CAE70C
:10F360004FF40025C7E70C4EB3E70C4EB1E70C4E47
:10F37000AFE700BF6036FF1F48B601000024FF1F43
:10F38000DD29FF1FB129FF1F8529FF1F5929FF1FF5
:10F390002D29FF1F3837FF1F9836FF1FE836FF1F44
:10F3A0001837FF1F1A4B03EBC00010B4426802F17C
:10F3B0004043A3F592217C2905D9A3F594217C290A
:10F3C00014D8144900E0144972B61368134C23F0A2
:10F3D0008773C2F3840023F4803343F08073136097
:10F3E00041F8204062B65DF8044B7047A3F59621C2
:10F3F0007C2909D9A3F598217C2907D9A3F59A235B
:10F400007C2BF0D80649DFE70649DDE70649DBE754
:10F4100048B601009836FF1F6036FF1FD9F1000083
:10F420003837FF1FE836FF1F1837FF1F30B4054B72
:10F43000054D064C002210211A602A6020601960D8
:10F4400030BC704714D0034004D0034000D00340C8
:10F45000212801D8FFF7C2BE704700BF212806D877
:10F46000044B53F8303093F80002C0B270470020CC
:10F47000704700BF48B60100212801D8FFF7D4BE6D
:10F48000704700BF72B60C490C4B0D4A1B680868E8
:10F49000126862B6520102D5322B88BF0130094989
:10F4A000C3F5EA334FF47A72BF33A1FB031302FBB7
:10F4B00000F000EB93107047845EFF1F18E000E03F
:10F4C00004ED00E0898888882DE9F843054672B686
:10F4D000204F214B214A1B683C68126862B65201DA
:10F4E00002D5322B88BF013495B3C3F5EA331C4EE5
:10F4F000DFF86490DFF86480BF334FF47A72A6FBC4
:10F50000031302FB04F404EB931472B6D9F8001051
:10F510003A68D8F800E062B6C1F5EA33BF33A6FB1B
:10F5200003031EF0806FC4EB93134FF47A7002D084
:10F53000322988BF013200FB0233B3F57A7F04D34E
:10F54000013D05D004F57A74DFE701F0ADFADCE7A0
:10F55000BDE8F883845EFF1F18E000E004ED00E0E2
:10F5600089888888F8B52F4B2F49304E304D314C63
:10F57000314A324FDFF8D4C0DFF8D4E04FF00060FA
:10F5800018604FF0805018604FF0005018604FF036
:10F59000804018604FF00040186000200860282369
:10F5A0004EF6FF71CCF80010CEF8003033601360D7
:10F5B0002B6023603B60B3629362092245F8242CE0
:10F5C000C4F8D80F05F57F65C7F8D41F07F5FF27E6
:10F5D00007F5FA67C6F8F83F2B6006F5FF26C4F872
:10F5E000D42F05F5FD2504F5FF24386006F2F476E6
:10F5F0001348316005F5FF6504F5FD642B60236059
:10F600000260FFF73FFC0F4A0F4B12781B781A423B
:10F6100003D04FF4C870FFF757FFBDE8F84000F083
:10F62000FBBC00BF04E100E0048003401480034001
:10F63000248003402C8003401C800340348003401E
:10F6400000800B40805EFF1F45B60100088003402C
:10F650000C800340431E032B14D872B60A4951F89C
:10F66000230068B170B4094C058834F8132046684B
:10F6700041F82360521B24F8132062B670BC704717
:10F6800062B6704700207047E05EFF1FBC61FF1F3D
:10F69000013803280BD872B6074B53F8203043B11A
:10F6A00000205B680130002BFBD162B67047002060
:10F6B00070471846F9E700BF345FFF1FF0B472B619
:10F6C0001A491B4E012311F8014B194F9A002407C8
:10F6D00042F0010505D556F8324064B156F83520A0
:10F6E000BAB10133052BEED162B6124B00221A706B
:10F6F000F0BC00F015BD0F4C0F4D217847F832508B
:10F7000007EB431308304A1E5860227062B6F0BC03
:10F7100070470849094B0A7847F8353007EBC503AD
:10F720000830013A58600A7062B6F0E78CB7010001
:10F730000000FF1F5D5FFF1F88004000C800400001
:10F74000431E032B1DD81B4A400140F0100030B46B
:10F75000104472B6184CE25C032A1BD8DFE802F0B2
:10F760000212151703220D88E25410F0080F14BF7F
:10F77000C823882343EA054308310360416062B629
:10F7800030BC704708300222EDE70522EBE7083075
:10F790000422E8E7094A52F8230038B1084A52F82F
:10F7A0002300416042F8231062B6E9E742F82310D3
:10F7B000034AF7E70000FF1F6C5FFF1F345FFF1F66
:10F7C000445FFF1F2DE9F04FDFF800A3DFF800B31F
:10F7D00087B044E0A84F4FEA930807EBC809013E01
:10F7E000D9F8042003F00803F6B2A2F1080003F0F0
:10F7F000FF04002B40F0FC8057F838301B0C99B206
:10F8000022F8081C002B00F0EA809C4B22F8064CE2
:10F8100042F8044C53F82620002A00F02982984D23
:10F8200055F826305860974C45F8260034F81630C5
:10F83000194424F8161000F053FC002800F011823F
:10F84000914A924B19F0080F00F1080018BF1346B7
:10F85000C9F8040047F8383008238AF800309AF8CD
:10F860000040E4B260071AD5894B1B78A3B18949DF
:10F870000A7802F0FF0322B1013BDBB20B7003B93F
:10F8800000BE85490A7802F0FF032AB1013BDBB2D2
:10F890000B70002B00F0BB8104238AF8003004F0C9
:10F8A000080303F0FF02002B00F0C6809BF8003035
:10F8B000DBB21E098ED19C086F4F57F8342007EB3E
:10F8C000C401C2F38302013A49680C2A00F2838022
:10F8D000DFE802F0777781818181818140818181B8
:10F8E000070008686D4B6E4D0193674B4A686D4E7B
:10F8F00047F8343081B240F28164684B6A60286016
:10F9000000220120A1421A603A61BA61307000F20F
:10F91000E180B1F5D06F80F02582B1F5817F00F0F4
:10F92000DE8100F2C181802900F03482822940F01A
:10F93000DC81A9885C4B042900F2D8815B4C8900EA
:10F940000B44227062701A78930740F12283207072
:10F95000022023E2514B01931A683AB3544B514EA3
:10F960005449188834780D784028864645F00208B6
:10F9700028BF4FF0400E002C84F001043470CEEB11
:10F9800000000CBF8824C82407EBC80680B285F0AD
:10F99000010544EA0E447260188047F8384072440A
:10F9A0000D70002800F0B780019B1A603C4B1A884C
:10F9B000B2F5A06F0FD100219A7859703E4B1A70A2
:10F9C00009E0374A108842F22102904200F0A880F4
:10F9D0002D4A47F83420394A012313703CE72A4A5C
:10F9E0002A4B19F0080F18BF134647F8383033E791
:10F9F00000F096FB324A334952F82630002B00F0D3
:10FA00003B8158688C5D42F8260003F10802C9F872
:10FA10000420032C05D8DFE804F02C02292602225A
:10FA20008A551A8819F0080F0CBF8823C82343EAA7
:10FA3000024347F838300FE7E00700F1EB8021067A
:10FA400000F12881A20706D51F4A20491378022019
:10FA5000DBB213700870E30602D51C4B10221A703B
:10FA600007B0BDE8F08F04228A55DAE705228A55EF
:10FA7000D7E703228A55D4E70000FF1FE05EFF1F8F
:10FA80008C5EFF1FBC61FF1FC80040008800400063
:10FA9000685FFF1FF15EFF1F705FFF1F885EFF1F23
:10FAA000545FFF1FF05EFF1FC0200740605FFF1F15
:10FAB0009C5EFF1F5C5FFF1F98200740942007405B
:10FAC000345FFF1F6C5FFF1F8820074080200740C6
:10FAD0009020074042F22104A14200F0948043D8D4
:10FAE000B1F5086F00F0A881B1F5106F40F0FD800E
:10FAF000B84AB94CA978117004F1800503E00834C4
:10FB0000AC4200F09E81236A1906F8D5606A083875
:10FB100000F006FBF3E7BEF1400F18BF002243E7F9
:10FB2000AE4ACD1D11F8013B02F8013FA942F9D1BF
:10FB3000AB4A1268862A00F01181AA49AA4E0A78B7
:10FB4000307882F00105002842F002020D700CBFEF
:10FB50008821C82147F8321007EBC20280F001006B
:10FB600000213070516033E742F22124A14240F07D
:10FB7000FE81DFF8BCC29D4B9D49AC78DCF800509B
:10FB80001D6081460C700020029080468446044629
:10FB900094490D7845F0020E07EBCE03B9F1000F42
:10FBA0005C600CBF8824C82444EA080385F0010483
:10FBB00047F83E3032700C70DFF81CE28A4BDFF8F9
:10FBC0002482002840F09880BCF1400F1BD144F003
:10FBD000020407EBC403029FDFF8FCE15F60002A28
:10FBE00040F09F80020442F0880207444EF834201F
:10FBF00086F800900D703B46402804D100207D4AD5
:10FC0000019910800B607C4A01231370E3E600F039
:10FC1000C9FB41E6704B784872491A614FF0020EF9
:10FC200080F800E0754F0A70754919609960754E4B
:10FC3000754D764C9A610D213970FF213170DFF8D6
:10FC4000F4E129702270724D724A8EF800109F27DD
:10FC5000012406F8047C5D600470DA6007B0BDE83A
:10FC6000F08F6D4A47F83800137801331370F3E5CD
:10FC700043F82600694DD6E58B5D032B67D801A2BA
:10FC800052F823F059F8000059F80000D9FC0000A0
:10FC9000D3FC000059495C4B80220D2008701A707B
:10FCA000A2077FF5D8AECFE640F20232914240F093
:10FCB0005681A98801F07F01042916D86A88A2B963
:10FCC0004E4C89000C448146217841F0020121709C
:10FCD00059E701238B55BFE500238B55BCE5A98867
:10FCE00001F07F01042940F24781444B0F221A7032
:10FCF000414A012313706EE640287FF668AF44F056
:10FD000002040EEBC401029E4E60AAB1444A83F87D
:10FD100000903346403888F8005040334EF8342085
:10FD20006DE70204029B86F8009042F0C8020D7055
:10FD300003444EF834205FE783F80090029B304A7A
:10FD400088F80050403840334EF8342057E719F017
:10FD5000080F0CBF022303238B557DE5314A0F2189
:10FD60001170EAE6304A5468002CBED06888B5F8B5
:10FD700004E003E00C325468002CB6D013888342B0
:10FD8000F8D153887345F5D1000A03280CBF2078B9
:10FD9000108903E0254C022022706270EA888242BA
:10FDA00080F00C810F490D78402A45F0020E9446F0
:10FDB00007EBCE0028BF4FF0400C04EB0C0344606F
:10FDC0000293CCEB02004FEA0C484FF001090022ED
:10FDD000C824E9E6685FFF1F0000FF1FC361FF1F23
:10FDE000C461FF1F5C5FFF1FF05EFF1FCC61FF1F40
:10FDF000805FFF1F9C5EFF1F94200740C0200740CC
:10FE00008800400088200740802007409820074055
:10FE1000A05EFF1FF45EFF1F5D5FFF1F8C5EFF1F74
:10FE2000C8004000F15EFF1F90B70100605FFF1F38
:10FE3000845EFF1F8C200740684A694C127822704C
:10FE4000ACE76849684B694A02916949694C6A4D57
:10FE5000039405964FF0000988461C461646049503
:10FE6000206828B1456800F05BF92846002DF9D1DB
:10FE700000232360049B30681A46002342F829308F
:10FE800028B1456800F04CF92846002DF9D1002230
:10FE90003260029A98F800301146002241F8042B93
:10FEA000039A0291023B4FF0000122F81910032B34
:10FEB00007D8DFE803F0340234024FF0010388F87A
:10FEC000003009F10109B9F1040F04F1040406F14D
:10FED000040608F10108C3D1484B059EDFF83091B4
:10FEE000DFF8308100211970012518F8013B09F86D
:10FEF000043B1A0718D4AC0044F0020244F0030497
:10FF0000002347F8323047F834303D4B994505F12E
:10FF10000105EAD196F8009089F0010233E64FF02E
:10FF2000000388F80030CCE700F0DAF8AC0007EB0B
:10FF3000451300F10802002837D05A60314B47F8CA
:10FF4000343000F0CDF844F0010307EBC30200F1B8
:10FF5000080100B351602C4A47F83320CCE7B1F5D3
:10FF6000A06F7FF4C2AE00224FF001090BE642F20F
:10FF700021329142F7D0B8E66A88002A7FF4B5AE04
:10FF8000224C89000C448146217821F00201217025
:10FF9000F9E5022002E7194B44F001021B7847F80B
:10FFA0003200164A01331370A6E7144B134A1B782C
:10FFB000AC00013347F834001370C2E74028844690
:10FFC00028BF4FF0400C04EB0C03CCEB00004FEAD1
:10FFD0000C48029300224FF00109D9E5685FFF1F2A
:10FFE000605FFF1F445FFF1FE05EFF1F345FFF1F66
:10FFF0006C5FFF1FBC61FF1F8C5EFF1F5D5FFF1FFB
:020000021000EC
:10000000D420074088004000C8004000C0200740BE
:10001000C42007408CB701002DE9F843244C01F0BF
:100020001BFF002204F1880023461A605A6008333F
:1000300083424FF00001F8D11E481F4A0368DFF8E1
:1000400090E01E4F1E4D1F4EDFF88880DFF888C0FD
:10005000DFF8889043F48023036013681A4843F064
:1000600040731360C4F307238EF80030C4F30743D2
:100070003B70240EFF2302F5C9222C7002F5847216
:1000800088F80030114D8CF800303370012389F866
:10009000003070268EF864104FF40014102107F819
:1000A0002C3C2E70046011700EF1640EBDE8F883D4
:1000B0000000FF1F3480044000D80040B0200740FB
:1000C000B42007401020074004E100E035E400E0E0
:1000D0009C2007408020074088200740942007404C
:1000E00072B60D480268B2FA82F30B2B10DC4FF0A7
:1000F0000041D94022EA0102026062B6074803EBE0
:10010000C303DB00C2180021C15010465160704784
:1001100062B60020704700BF4037FF1F8825FF1FD1
:100120000D4B0E4AC31AA2FB03231B090B2B0CD841
:100130000B4A127852B972B60A484FF00041026871
:1001400021FA03F31A43026062B67047064A127836
:10015000002AF0D0FFF7B2BA8825FF1F398EE338A6
:100160005D5FFF1F4037FF1F685FFF1F38B50F4DF2
:10017000286878B143880288C118013393420C7A09
:1001800002D24380204638BDFFF7CAFF0023204635
:100190002B6038BD064B1B782BB10320FFF75AFAB2
:1001A00028600028E6D14FF0FF3038BD7C5FFF1F8C
:1001B000685FFF1F10B5094C206818B143881844C8
:1001C000007A10BD064B1B782BB10320FFF742FAD3
:1001D00020600028F2D14FF0FF3010BD7C5FFF1F80
:1001E000685FFF1F044B054A1B6890881BB11A8883
:1001F0005B88D31A184470477C5FFF1FBC61FF1FE8
:100200000B4B1B789BB110B50A4C206848B1FFF727
:1002100087FF002303202360FFF71CFA30B1FFF7AC
:100220007FFF0320FFF716FA0028F8D110BD7047B2
:10023000685FFF1F7C5FFF1F2DE9F84FDFF8EC9030
:10024000012289F8002069B3DFF8E480344F834647
:100250000E46D8F80000A0B3324D4488C4F14001E6
:10026000B14228BF314604EB010E00221FFA8EFE78
:100270002A70761AA0F802E000F1080251B1013CA0
:10028000224459441BF8014B02F8014F8B45F9D128
:10029000B0F802E0BEF13F0F09D8234A05211170E2
:1002A000002ED6D1002089F80000BDE8F88F40224A
:1002B000028001460420FFF743FA0022C8F800201C
:1002C000EBE73A7822B3174D4DF2E9044FF0010AFB
:1002D00007E0013C16D02A78A2B900F0E5FB3A7895
:1002E000B2B10420FFF7D4F90728F2D889F800A0AA
:1002F000FFF7F6FEC8F800000028AED10B4B013C1A
:100300001870E8D101232B704FF0FF30BDE8F88F53
:10031000002389F800304FF0FF30BDE8F88F00BFB0
:10032000685FFF1F785FFF1F705FFF1F715FFF1F18
:10033000745FFF1F00B583B002AB012103F8010D0C
:100340001846FFF779FF03B05DF804FBF8B5114BD1
:100350001B788BB1104E114D346801272F7064B19A
:100360000F4A638800271770214623800420FFF777
:10037000E7F9376000232B70F8BDFFF7B1FE084B9B
:1003800028B1014604201C70FFF7DAF9F2E71F706C
:10039000F0E700BF685FFF1F745FFF1F715FFF1F03
:1003A000705FFF1F38B50E4B1B7873B90D4C216879
:1003B00061B103F0FF054B880B800420FFF7C0F903
:1003C000256038BD084B01221A7038BDFFF788FE42
:1003D0000028F7D00146BDE838400420FFF7B0B947
:1003E000715FFF1F745FFF1F705FFF1FC029F0B4B4
:1003F00028BFC02172B6114B114E18600023336024
:100400007360B360F36033617361012799B15D0973
:1004100003F01F0456F8252007FA04F401332243A1
:100420008B4246F82520F2D10023437001338B42E2
:1004300000F58270F9D162B6F0BC70478C5FFF1F87
:10044000945FFF1F70B472B6204B196821B95968C8
:1004500021B30433202200E000221D4E3478B1FA8B
:1004600081F54FF00040E8400134E4B221EA000099
:100470003470186062B6531B03EB83139A00154B5C
:100480001549186802F5FB531C330122C2540A783F
:10049000A242184438BF0C7070BC7047996821B9EB
:1004A000D96829B10C336022D7E708334022D4E75A
:1004B000196921B9596929B11433A022CDE7103344
:1004C0008022CAE762B60846E6E700BF945FFF1FD6
:1004D000915FFF1F8C5FFF1F885FFF1F427872B61E
:1004E0000378012B03D9013B037062B6704770B4E7
:1004F00056110A4D0A4C55F826102378D2434FF076
:10050000004002F01F0220FA02F21143013B45F8BD
:100510002610237062B670BC704700BF945FFF1F47
:10052000915FFF1FC368B3B130B401E0DB688BB1EA
:10053000187A9042FAD158685C7A006950F82450D1
:10054000002DF3D140F82410087801300870DB68E2
:10055000002BEDD130BC7047437A8B4206D903693A
:10056000002253F8210043F82120704700207047F3
:1005700038B5437A8B421AD9036953F821400022D7
:1005800043F821209CB12378012B0ED9FFF75AFFA5
:10059000054628B14FF48072211D0430FEF7D8FBC8
:1005A0002378013B2370284638BD204638BD002003
:1005B00038BD00BF4368427A5B7A9A420ED872B661
:1005C0000168CA680AB90AE01A46D368002BFBD151
:1005D000D060426801230B72137262B67047C86024
:1005E000F7E700BF084B1A785AB90848084910B411
:1005F000D0240470012210460A601A705DF8044B82
:1006000070470020704700BF905FFF1F40E400E08C
:1006100008E100E01A491B4A1B48F8B50B681B4D5E
:10062000046843F080730B60136843F001031360A8
:100630002E6814B915E064699CB1237A002BFAD0B6
:1006400023682F681B68204698472B68E188DB1BCE
:100650001B099AB28B42A28088BFE2806469002C99
:10066000EBD10A4B0A4A1B6810880A4C9B1B1B09DA
:1006700099B28342218001D91180F8BDF8BD00BF35
:10068000FCED00E0001000E0845FFF1F041000E0BC
:10069000925FFF1FAC5FFF1FF0B572B699B9026899
:1006A0008AB103790F2B0ED8274C218841FA03F524
:1006B000ED070AD503F1007303F59063B2EB431F16
:1006C00003D162B6F0BD204C2188002341FA03F229
:1006D00012F0010207D00133102BF7D162B60022CD
:1006E00003710260F0BD01259D402943218062B65F
:1006F000164E174D174FDFF864E0D9B20171346818
:1007000044F0020434602C6844F002042C60A6F526
:1007100080268224A5F5802503F100733C6003F553
:100720009063223E243D0C4C8EF800105B0131702A
:100730002970217003601A605A609A60DA601A6149
:100740005A619A61DA61F0BDAE5FFF1F40800440DC
:100750003C800440008000401F8000401A80004020
:1007600003790F2B12D80A4A10B4137072B60949D4
:1007700004790A880123A34022EA03030B8062B6AE
:10078000102200235DF8044B02710360704700BF24
:100790001A800040AE5FFF1FF8B572B106460F46E3
:1007A00014460025336817F8011B1B68304698472C
:1007B000013C0544F6D12846F8BD1546FBE700BFCD
:1007C00000B5064A036812885B6883B001A9ADF8DA
:1007D00004200222984703B05DF804FB58B70100DB
:1007E00008B503685B689847002008BD0EB400B5E3
:1007F00082B003AA52F8041B019206F075FD02B004
:100800005DF804EB03B07047F0B507468BB0002AE3
:1008100033D0012A08BF0A2251B3212400E0F4B2E8
:10082000B1FBF2F502FB1511C8B2092900F1300144
:1008300098BFC8B20AA988BF3730214488BFC0B268
:1008400001F8240C661E2946002DE8D133B1013C85
:10085000E4B20AAB23442D2203F8242C3B6801AAFE
:1008600011195B683846C4F1220298470BB0F0BDFD
:1008700030228DF825202124E8E70368C9B21B68DF
:1008800098470BB0F0BD00BF0029BABF49422D23E5
:1008900000230A22FFF7B8BF2DE9F04357EC106B95
:1008A00085B005460C4610EE102A3B4610EE100AA5
:1008B000394605F01FFC002840F0B28027F00049BF
:1008C000304649464FF0FF32594B05F013FC90B9C2
:1008D000304649464FF0FF32554B05F0EDFB50B91D
:1008E0002B6854495B682846032298478046404657
:1008F00005B0BDE8F0834FF060424F4B30463946BB
:1009000005F0EEFB002872D14FF060424B4B3046B1
:10091000394605F0C7FB002869D100220023304684
:10092000394605F0BFFB002864D18146002C67D012
:10093000434900204FF000083BA3D3E9002308F10E
:10094000010805F03DF95FFA88F39C42F4D80246AD
:100950000B463046394604F081FF0F46064605F047
:1009600007FC804605F0B6F802460B46304639468D
:1009700004F072FF4B4606460F460A2241462846BF
:10098000FFF742FF0F2C28BF0F2404F101092E238B
:1009900080465FFA89F98DF8003001240022294B46
:1009A0003046394605F00CF90F46064605F0E0FBE7
:1009B00004AB2344C0B200F1300203F8102C05F060
:1009C00099F802460B463046394604F045FF01349B
:1009D000E4B2A14506460F46E0D12B684A465B6863
:1009E000284669469847404605B0BDE8F0832B6825
:1009F000154977E707F100431F464FF0010995E7D6
:100A000000220F4B3046394604F028FF05F0B0FBBA
:100A10004B4601460A222846FFF7F6FE804666E767
:100A20002B680A495EE700BF000000A09999B93F12
:100A3000FFFFEF7F64B70100FFFFEF41FFFFEFC152
:100A40000000E03F0000244060B701005CB70100F7
:100A500008B5F6F709FBF8F7A7F900F025F8FAE76B
:100A600005F0A4BDFFF7CCBBFFF770BCFFF7A2BB3E
:100A7000FFF77CBBFFF7B6BB08461146FFF7DCBBB0
:100A80000846FFF757BC00BF704700BF044B054A3C
:100A90001A604FF47A71002299601A711A737047C4
:100AA000B45FFF1F70B7010010B5154C237803B178
:100AB00010BD01232370FFF795FB58B900F0C2FA6F
:100AC00070B900F025FE88B901F0ECF8A0B9002358
:100AD000237010BDFFF7D8FF00F0B4FA0028F0D063
:100AE00001F06CFA00F014FE0028EDD001F01AFBC2
:100AF00001F0D8F80028EAD001F0C8FBE7E700BF12
:100B0000C45FFF1FF0B44D1E2E46002400E00134E8
:100B1000B0FBF2F302FB1300092800F130078ABF93
:100B20003730F8B2C0B206F8010F1846002BEED1EC
:100B30000A1953704CB1107815F8016F2870013301
:100B4000E01A834202F80169F5DB0846F0BC704701
:100B50002DE9F84F214B1B6807460BB101221A7093
:100B6000DFF888901E4D99F80040DFF884801D4E14
:100B700001343F2C8ABF4FF0000A5FFA84FA5446D2
:100B8000AB462B78A34216D1FEF708FB40281FDCAA
:100B900033791B06F5D59BF8003001333F2B86BF18
:100BA00000221346DAB218F80330DBB2F3712A7070
:100BB0002B78A342E8D00C490A4BFFB208F8047026
:100BC0000120BC22087089F800A0DA70BDE8F88F17
:100BD000FF28D6DDFFF768FFD3E700BF5860FF1F8F
:100BE0005560FF1F00A006405460FF1F5C60FF1FA0
:100BF000D05FFF1F274A28491368F0B543F480638C
:100C000013600A78254F264E264D274C274900238E
:100C10003B7033702B7023700B70002A35D0152A6F
:100C200026D0234B1B78012B2AD0052B03D1214B37
:100C30004FF451721A60204B204C2149C0F34436C6
:100C4000C0F347151E7000F01F005D7004224FF0C6
:100C5000020E88273C26402598729A704FF000407B
:100C600083F813E05A751F74DE7025700860F0BDBC
:100C7000144B40F213321A600D4B1B78012BD4D168
:100C8000114B4FF451721A60D5E7104B40F21332FA
:100C90001A60C6E7348004401060FF1FCC5FFF1F5E
:100CA000CD5FFF1F5C60FF1F5560FF1F5460FF1F7B
:100CB0004437FF1F1CC0044000A006401FE400E0B2
:100CC00000E100E018C0044044A0044040A00440FB
:100CD000144B14499B7803F0EC0200F00303134318
:100CE000420700F00F0248BF43F01003042A8B7044
:100CF00013D00C4B0B4A5B79C10603F0EF0348BFDE
:100D000043F0100353719379820603F0EF03054A11
:100D100048BF43F01003937170478B7943F0400351
:100D20008B71E6E700A00640F8B5124B1B685B0527
:100D30001DD5114C237823B1FFF7B6FE2378002B85
:100D4000FAD10E4B0E4F0F4E0F4D104C104811495B
:100D50004FF000421A600023FB7040F20312326031
:100D60002A60226803700B7012B101231370F8BD62
:100D7000F8BD00BF348004405460FF1F80E100E0F4
:100D800000A0064040A0044044A00440C85FFF1FEC
:100D9000CC5FFF1FCD5FFF1F0A4A38B505461378A9
:100DA00003F0FF04002BFAD101212846FEF764FB73
:100DB00021462846FEF74CFB034A044B52F83520E7
:100DC0001A6038BD5460FF1F48B601005860FF1F0D
:100DD00009B140F08000174A1378984217D010B438
:100DE000154C246864050FD503F07F03012B1DD03B
:100DF000052B12D0002900F07F0114BF602344238B
:100E000001290ED0052903D010705DF8044B7047FE
:100E10000A4943F440730B60F6E7084B00241C605A
:100E2000E8E7074943F440730B60EDE7044B002407
:100E30001C60DFE74437FF1F348004401CC00440BF
:100E400044A00440104B1A7882420AD00F49096826
:100E5000490505D5AAB1152A09D068B1152801D0D0
:100E6000187070470A4A40F213311160F8E7084AD7
:100E7000002111600028F1D1064A40F213311160BF
:100E8000EEE704490A60E8E71060FF1F3480044081
:100E900018C0044040A004400D4B1B6813F480634D
:100EA00005D0212805D90B4B002018607047184643
:100EB0007047094B10B5074C53F8303023600121BF
:100EC000FEF7DAFA236800221A70012010BD00BF75
:100ED00034800440C85FFF1F48B601000F4B1B68F9
:100EE00013F4806308D0122808D0142811D00C4ABB
:100EF000537B03F0FE03537300207047094B40F20D
:100F000002321A60064A537B43F0010353730120F7
:100F10007047054B40F202321A60F3E73480044018
:100F200000A006400CA0044014C00440034B1B6802
:100F30005B0501D5FFF70CBE704700BF348004404D
:100F40002DE9F84F294B1B685A0548D5284B1B68DB
:100F500005460BB101221A7005EB010A554540D236
:100F6000DFF89C80234CDFF89C90234F0AE015F8B3
:100F7000012B09F80B20214A0123AA45137088F898
:100F800000602ED098F80030227803F1010BBBF1FD
:100F90003F0F86BF0026B3465FFA8BF69345E6D136
:100FA000BC22FA7005E03A7913060BD422789345F7
:100FB000DDD1FEF7F3F84028F5DDFF28F6DDFFF779
:100FC00073FDF3E7227801323F2A86BF00210A46EB
:100FD000D1B219F80220D2B2FA712170E6E7BDE869
:100FE000F88F054BBC22DA70BDE8F88F34800440DE
:100FF0005860FF1F5560FF1F00A006405460FF1F90
:101000005C60FF1FD05FFF1F10B5044C237823B135
:10101000FFF74AFD2378002BFAD110BD5460FF1F63
:10102000064A074B1B781078DBB2C0B283422CBF54
:101030003F3000F1FF30C01A704700BF5560FF1FFE
:101040005C60FF1F054A064B10781B78C0B2DBB20C
:10105000984238BF4030C01A704700BFCC5FFF1FB6
:10106000CD5FFF1F30B4154B154C1A782378D2B2E0
:10107000DBB29A421ED001333F2B0ED91149124BDD
:10108000087819680023C0B2237021B1D31A1A2B33
:1010900001DC00230B7030BC70470A480A49C05C71
:1010A0000968DDB2C0B225700029F4D09A4238BF79
:1010B0004032EBE74FF0FF30EDE700BFCC5FFF1FA2
:1010C000CD5FFF1F1460FF1FC85FFF1F084A094B59
:1010D00012781B78DBB29A4207D00133402B28BF2D
:1010E0000023054AD05CC0B270474FF0FF30704714
:1010F000CC5FFF1FCD5FFF1F1460FF1F0D4B1B68F0
:101100005B0516D530B40C4B0C4CDA780C480D4905
:1011100002F0CB024025DA705D74DA7842F03402D6
:10112000DA7023780268DBB20B700AB10023137007
:1011300030BC70473480044000A00640CD5FFF1FE4
:10114000C85FFF1FCC5FFF1FF0B4384B1A7912F055
:10115000300F2CD072B6997D01F0FF0200293DD0EE
:1011600062B6334F334938780D78334E1C46C0B2DF
:10117000EDB2431C402BE17928BF0023AB4202F1C2
:10118000FF32C9B21CBFF154184612F0FF02F0D171
:101190002A4B1B68C2B23A704BB1A84236BFC5F1A8
:1011A0004005401B40192728C4BF01221A701F495F
:1011B000CA78D2B2150616D452060DD51B4B1B7930
:1011C0005B0609D51E4B1F491B6800220A7003B13C
:1011D0001A70164B3C22DA70F0BC70474022D97965
:1011E0005A7462B6E3E70B791C06E5D5164B174E29
:1011F0001C783378E4B2DBB29C420ED0144D01E08F
:10120000A3420AD00133402B28BF00230879E85CB1
:10121000C0B2C871087D0728F2D9DBB20349337028
:101220000B79180644BF7C23CB70C5E700A00640AD
:10123000CC5FFF1FCD5FFF1F1460FF1FC85FFF1F44
:101240005860FF1F5460FF1F5C60FF1F5560FF1F49
:10125000D05FFF1F264A27491368F0B443F40063A8
:1012600013600A78244F254E254D264C264900232D
:10127000092A3B7033702B7023700B7032D01A2AFE
:1012800023D0224B1B780A2B27D01F2B03D1204BB6
:101290004FF451721A601F4B1F4D204CC0F344375E
:1012A000C0F3471600F01F001F7004215E70022279
:1012B000987288273C2640209970DA7459751F74FB
:1012C000DE7028702260F0BC7047154B40F213327C
:1012D0001A600E4B1B780A2BD7D1124B4FF4517268
:1012E0001A60D8E7104B40F213321A60C9E700BF0A
:1012F000348004404537FF1FD060FF1F6560FF1F2B
:10130000D860FF1FD160FF1F6460FF1F4637FF1FBB
:1013100000D0044000B0064021E400E004E100E019
:1013200004D0044010B004400CB00440144B1449E5
:101330009B7803F0EC0200F003031343420700F034
:101340000F0248BF43F01003042A8B7013D00C4BDC
:101350000B4A5B79C10603F0EF0348BF43F010036B
:1013600053719379820603F0EF03054A48BF43F0B7
:101370001003937170478B7943F040038B71E6E75C
:1013800000B00640184B1B681B052CD510B5174C38
:10139000237823B1FFF788FB2378002BFAD1144878
:1013A000144A154B022400210460D1701B78092BCC
:1013B00003D1124B40F203121A60114B1B7803F059
:1013C0007F030A2B0AD00F4B0F4810491A680023DD
:1013D00003700B700AB10123137010BD0C4B40F267
:1013E00003121A60EFE77047348004406460FF1F07
:1013F00084E100E000B006404537FF1F0CB0044018
:101400004637FF1F6060FF1FD060FF1F6560FF1F32
:1014100010B004400A4A38B50546137803F0FF04BB
:10142000002BFAD101212846FEF726F8214628464E
:10143000FEF70EF8034A044B52F835201A6038BD07
:101440006460FF1F48B60100D460FF1F09B140F07F
:101450008000104A137898421AD010B40E4C2468B9
:10146000240512D503F07F030A2B02D10B4B002475
:101470001C60002900F07F0314BF602144210A2B67
:1014800003D1064B41F44071196010705DF8044BB4
:10149000704700BF4637FF1F3480044010B004403F
:1014A0000A4B1A7882420FD00949096809050AD502
:1014B000092A02D1074A00211160092803D1054AEF
:1014C00040F2133111601870704700BF4537FF1F9D
:1014D000348004400CB004400D4B1B6813F40063CF
:1014E00005D0212805D90B4B0020186070471846FD
:1014F0007047094B10B5074C53F830302360012179
:10150000FDF7BAFF236800221A70012010BD00BF4A
:10151000348004406060FF1F48B601000C4B1B681C
:1015200013F4006306D0172806D00A4A537B03F051
:10153000FE03537300207047074B064A40F2023106
:101540001960537B43F0010353730120704700BFC0
:101550003480044000B0064008B004402DE9F84F44
:10156000234B1B681A053BD5224B1B680BB101228C
:101570001A70DFF89090204D99F80040DFF88880CD
:101580001E4E0134272C8ABF4FF0000A5FFA84FAFE
:1015900054460746AB462B789C4216D1FDF7FEFD1C
:1015A00040281FDC33791B06F5D59BF8003001334A
:1015B000272B86BF00221346DAB218F80330DBB2BD
:1015C000F3712A702B789C42E8D00D490B4BFFB287
:1015D0000120BC2208F80470087089F800A0DA70B5
:1015E000BDE8F88FFF28D6DDFFF75EFAD3E700BF2E
:1015F00034800440D460FF1FD160FF1F00B006405C
:101600006460FF1FD860FF1F6860FF1F2DE9F84F5F
:10161000294B1B681A0548D5284B1B6805460BB19A
:1016200001221A7005EB010A554540D2DFF89C8073
:10163000234CDFF89C90234F0AE015F8012B09F8A2
:101640000B20214A0123AA45137088F800602ED090
:1016500098F80030227803F1010BBBF1270F86BF09
:101660000026B3465FFA8BF69345E6D1BC22FA70AA
:1016700005E03A7913060BD422789345DDD1FDF7C6
:101680008DFD4028F5DDFF28F6DDFFF70DFAF3E7C5
:1016900022780132272A86BF00210A46D1B219F8E2
:1016A0000220D2B2FA712170E6E7BDE8F88F054B4F
:1016B000BC22DA70BDE8F88F34800440D460FF1F8C
:1016C000D160FF1F00B006406460FF1FD860FF1F9D
:1016D0006860FF1F10B5044C237823B1FFF7E4F9CD
:1016E0002378002BFAD110BD6460FF1F064A074B18
:1016F0001B781078DBB2C0B283422CBF273000F1D8
:10170000FF30C01A704700BFD160FF1FD860FF1FB5
:10171000054A064B10781B78C0B2DBB2984238BF3E
:101720004030C01A704700BFD060FF1F6560FF1FC8
:1017300030B4154B154C1A782378D2B2DBB29A42EA
:101740001ED001333F2B0ED91149124B087819686E
:101750000023C0B2237021B1D31A1A2B01DC00235D
:101760000B7030BC70470A480A49C05C0968DDB29A
:10177000C0B225700029F4D09A4238BF4032EBE75E
:101780004FF0FF30EDE700BFD060FF1F6560FF1F27
:101790009060FF1F6060FF1F084A094B12781B789A
:1017A000DBB29A4207D00133402B28BF0023054A01
:1017B000D05CC0B270474FF0FF307047D060FF1F61
:1017C0006560FF1F9060FF1F0D4B1B681B0516D542
:1017D00030B40C4B0C4CDA780C480D4902F0CB02BB
:1017E0004025DA705D74DA7842F03402DA702378DA
:1017F0000268DBB20B700AB10023137030BC704773
:101800003480044000B006406560FF1F6060FF1F29
:10181000D060FF1FF0B4384B1A7912F0300F2CD083
:1018200072B6997D01F0FF0200293DD062B6334FB8
:10183000334938780D78334E1C46C0B2EDB2431CA4
:10184000402BE17928BF0023AB4202F1FF32C9B23D
:101850001CBFF154184612F0FF02F0D12A4B1B684E
:10186000C2B23A704BB1A84236BFC5F14005401B29
:1018700040192728C4BF01221A701F49CA78D2B262
:10188000150616D452060DD51B4B1B795B0609D5E0
:101890001E4B1F491B6800220A7003B11A70164BB9
:1018A0003C22DA70F0BC70474022D9795A7462B693
:1018B000E3E70B791C06E5D5164B174E1C783378F9
:1018C000E4B2DBB29C420ED0144D01E0A3420AD038
:1018D0000133282B28BF00230879E85CC0B2C87107
:1018E000087D0728F2D9DBB2034933700B7918065B
:1018F00044BF7C23CB70C5E700B00640D060FF1F1B
:101900006560FF1F9060FF1F6060FF1FD460FF1FB6
:101910006460FF1FD860FF1FD160FF1F6860FF1F5A
:101920002DE9F84F214B1B6807460BB101221A70B5
:10193000DFF888901E4D99F80040DFF884801D4E36
:101940000134272C8ABF4FF0000A5FFA84FA54460C
:10195000AB462B78A34216D1FDF720FC40281FDCB4
:1019600033791B06F5D59BF800300133272B86BF52
:1019700000221346DAB218F80330DBB2F3712A7092
:101980002B78A342E8D00C490A4BFFB208F8047048
:101990000120AC22087089F800A0DA70BDE8F88F49
:1019A000FF28D6DDFFF780F8D3E700BF5061FF1FA7
:1019B0004D61FF1F00C006404C61FF1F5461FF1FB7
:1019C000E460FF1F174A18491368F0B543F48053C9
:1019D000164C174D174FDFF874E01360164E174A78
:1019E000002323708EF80030154C2B700B703B7069
:1019F00040F213373760134D1349C0F344364FF4A8
:101A0000517727601670C0F347142C2700F01F0091
:101A1000402654709072082493701374D7702E70FF
:101A20000C60F0BD348004404D61FF1FE060FF1F7B
:101A30005461FF1F4C61FF1F08C0044000C00640F6
:101A40000CC0044023E400E004E100E0E160FF1F7B
:101A5000144B14499B7803F0EC0200F0030313438A
:101A6000420700F00F0248BF43F01003042A8B70B6
:101A700013D00C4B0B4A5B79C10603F0EF0348BF50
:101A800043F0100353719379820603F0EF03054A84
:101A900048BF43F01003937170478B7943F04003C4
:101AA0008B71E6E700C00640F8B5114B1B68DB04FC
:101AB0001CD5104C237823B1FEF7F6FF2378002BBA
:101AC000FAD10D4B0D4F0E4E0E4D0F4C0F481049D5
:101AD00008221A600023FB7040F2031232602A6071
:101AE000226803700B7012B101231370F8BDF8BDAA
:101AF000348004404C61FF1F84E100E000C00640D8
:101B000008C004400CC00440DC60FF1FE060FF1F01
:101B1000E160FF1F0A4A38B50546137803F0FF0459
:101B2000002BFAD101212846FDF7A6FC21462846C4
:101B3000FDF78EFC034A044B52F835201A6038BD7D
:101B40004C61FF1F48B601005061FF1F09B140F012
:101B50008000104A137898421AD010B40E4C2468B2
:101B6000E40412D503F07F03082B02D10B4B0024B1
:101B70001C60002900F07F0314BF60214421082B62
:101B800003D1064B41F44071196010705DF8044BAD
:101B9000704700BF4737FF1F348004400CC004402B
:101BA000704700BF0D4B1B6813F4805305D02128EC
:101BB00005D90B4B00201860704718467047094B39
:101BC00010B5074C53F8303023600121FDF754FC69
:101BD000236800221A70012010BD00BF3480044029
:101BE000DC60FF1F48B601000C4B1B6813F48053E8
:101BF00006D00E2806D00A4A537B03F0FE03537327
:101C000000207047074B064A40F202311960537BAF
